:020000040800F2
:10000000A0330020810200083B2B00086326000873
:10001000292B000807080008B1360008000000007E
:10002000000000000000000000000000C101000806
:1000300059080008000000001D020008932F000866
:100040009B0200089B0200089B0200089B0200081C
:100050009B0200089B0200089B0200089B0200080C
:100060009B0200089B0200089B0200089B020008FC
:100070000908000815080008210800082D080008D4
:1000800039080008450800089B0200089B02000888
:100090009B0200089B0200089B0200089B020008CC
:1000A0009B020008793000089B0200089B020008B0
:1000B0009B0200089B0200089B0200089B020008AC
:1000C0009B0200089B0200089B0200089B0200089C
:1000D0009B0200088D36000899360008A5360008F6
:1000E0009B0200089B0200089B0200089B0200087C
:1000F0009B0200089B0200089B0200089B0200086C
:100100009B0200089B0200089B0200089B0200085B
:100110009B0200089B02000885300008913000080F
:100120009B0200089B0200089B0200089B0200083B
:100130009B0200089B0200089B0200089B0200082B
:100140009B0200089B0200089B0200089B0200081B
:100150009B0200089B0200089B0200089B0200080B
:100160009B0200089B0200089B0200089B020008FB
:100170009B0200089B0200089B0200080000000090
:100180009B0200089B0200089B0200089B020008DB
:100190009B0200089B0200089B0200089B020008CB
:1001A0009B0200089B0200089B020008DFF80CD0AD
:1001B00000F0A8FA00480047B53F0008A03300202F
:1001C0002C4B19680868B0E8F04F80F30988BFF33A
:1001D0006F8F4FF0000080F311887047000000001F
:1001E00008480068006880F308884FF0000080F33A
:1001F000148862B661B6BFF34F8FBFF36F8F00DF15
:1002000000BF00BF08ED00E0DFF80C00016841F41A
:1002100070010160704700BF88ED00E0EFF30980D6
:10022000BFF36F8F134B1A681EF0100F08BF20ED3D
:10023000108A20E9F04F106009B44FF0500080F3AD
:100240001188BFF34F8FBFF36F8F04F0B1FB4FF0F6
:10025000000080F3118809BC19680868B0E8F04F05
:100260001EF0100F08BFB0EC108A80F30988BFF3AE
:100270006F8F704770000020EFF30580704700001B
:100280000648804706480047FEE7FEE7FEE7FEE730
:10029000FEE7FEE7FEE7FEE7FEE7FEE73530000893
:1002A000AD0100082DE9F05F0546002092469B460F
:1002B00088460646814640241BE02846414647467C
:1002C000224600F057F853465A46C01A914110D3BF
:1002D00011461846224600F03EF82D1A67EB010839
:1002E0004F4622460120002100F035F817EB0009A7
:1002F0004E41201EA4F10104DFDC484631462A4667
:100300004346BDE8F09F40EA01039B0703D009E0A4
:1003100008C9121F08C0042AFAD203E011F8013BF1
:1003200000F8013B521EF9D2704730B50B4601462A
:1003300000202022012409E021FA02F59D4205D384
:1003400003FA02F5491B04FA02F52844151EA2F12E
:100350000102F1DC30BD202A04DB203A00FA02F170
:10036000002070479140C2F1200320FA03F31943A3
:1003700090407047202A04DB203A21FA02F0002145
:10038000704721FA02F3D040C2F1200291400843A5
:10039000194670472DE9FE4F804681EA0300C00FE1
:1003A0000C46009021F0004123F00045B8EB02001C
:1003B000A94105D24046214690461C460B460246BE
:1003C00023F00040104347D0270DC7F30A00C3F3C2
:1003D0000A510290401A019040286BDAC3F31300CF
:1003E00040F4801B0098924620B10023D2EB030A10
:1003F00063EB0B0B01985946C0F140025046FFF7E2
:10040000AAFF06460D4650465946019A00F08CF95F
:1004100010EB08006141002487EA115284EAE77377
:100420001A4340D0009A62B3019A012A4FEA075258
:1004300015DC001B61EB02014FF0004202EA07529B
:10044000CDE90042001C41F5801132462B4600F0F8
:100450008CF903B0BDE8F08F40462146F9E7001B58
:1004600061EB0201001C41F5801300185B4120186C
:10047000A2F5001747EB030140EAD570B6196D41AC
:1004800011E06D084FEA360645EAC0754FEA07529B
:10049000001B61EB0201001C41F5801149084FEA85
:1004A00030000019514132462B4603B0BDE8F04FF1
:1004B00000F04CB90098012240000023D0EB02026A
:1004C00063EBE073009821464FEAE074B8EB00005C
:1004D00061EB0401E9E783F000435BE781F0004151
:1004E00058E72DE9FE4F81EA030404F0004421F0AF
:1004F000004100944FF0000B23F0004350EA010448
:100500005ED052EA03045BD0C3F30A54C1F30A5528
:100510002C44A4F2F3340194A0FB0254C1F3130160
:1005200041F48011C3F3130343F4801301FB02442D
:1005300000FB034E840A970A44EA815447EA835732
:10054000A4FB076802958D0A05FB07854FEA932CEB
:1005500004FB0C542705029D4FEA065847EA16375C
:10056000B5EB08056EEB070C870E920E47EA811774
:1005700042EA8312A7FB0201B6EB0B0164EB000415
:100580002B0D43EA0C335E1844EB1C50DA465146FF
:10059000E7FB0201C5F313044FEA0B3343EA14539C
:1005A0004FEA0432019C43EA0603A4F10C040294CE
:1005B000009CCDE900B400F0D8F803B0BDE8F08F9E
:1005C00000200146F9E72DE9F04D81EA030404F02B
:1005D000004B21F0004514464FF0000A23F0004183
:1005E00050EA050220D054EA01021DD0C5F30A5793
:1005F0000246C5F31303C1F31300C1F30A5640F4D6
:10060000801543F48013A7EB0608101BD64608F2AA
:10061000FD3873EB050002D308F1010801E09218E0
:100620005B41B8F1000F03DA00200146BDE8F08D10
:1006300000204FF48011064684460EE0171B73EB32
:10064000050705D3121B63EB050306434CEA010CB7
:1006500049084FEA300092185B4150EA0107EDD19A
:1006600052EA030012D082EA040083EA050108433B
:1006700005D0101BAB4106D20122002306E0002268
:100680004FF0004302E06FF0010253101AEB060036
:100690004CEB085110EB0A0041EB0B01BDE8F04DAB
:1006A00000F054B8C1F30A52C1F3130140F2FF3312
:1006B00041F480119A4202DA00200146704740F26C
:1006C00033439A42A2F2334202DC5242FFF752BE57
:1006D000FFF741BE30B5041E71F1000404DB4FF09A
:1006E0000044404264EB0101141E73F1000405DB79
:1006F0001C464FF00043524263EB0403994208BF8B
:10070000904230BD064C074D06E0E06840F0010322
:1007100094E8070098471034AC42F6D3FFF74AFD3F
:10072000A4600008C4600008202A06DBCB17203A2A
:1007300041FA02F043EAE07306E041FA02F3D040E6
:10074000C2F12002914008431946704710B5141EAB
:1007500073F1000408DA401C41F1000192185B417A
:100760001A4301D120F0010010BD2DE9F04D924651
:100770009B4611B1B1FA81F202E0B0FA80F2203268
:100780009046FFF7E8FD04460F4640EA0A0041EABA
:100790000B0153465A46084313D0114653EA010051
:1007A00019D0C8F140025046FFF7E4FD05460E4659
:1007B000504659464246FFF7CEFD084305D001207A
:1007C00004E020463946BDE8F08D0020054346EAA6
:1007D000E0762C4337430A986305E40AA0EB08004F
:1007E0000022FD0A44EA47540A3002D5002001469F
:1007F000E9E7010510196941DDE90845001969417A
:10080000BDE8F04DA2E7FEE7014800F04BB900005B
:1008100028060020014800F045B90000E00500204E
:10082000014800F03FB9000008050020014800F031
:1008300039B90000C0040020014800F033B90000BD
:1008400050050020014800F02DB900009805002057
:10085000012003F0F3FBFBE77047000092B0012298
:1008600011035C4800F0C6FA03F05CFE5A4E5B4C84
:100870005B4D2078012818D1002003F043FE0021B1
:10088000084603F0BBFED5E90012012355A003F092
:1008900059FF0F21002003F0B1FED6E90012012319
:1008A00052A003F04FFF03F0AFFE207861780843B9
:1008B0002CD103F027FE0021084603F09FFED5E966
:1008C000001201234AA003F03DFFD6E900120123E4
:1008D00049A003F037FF0F21002003F08FFED5E978
:1008E0000012012345A003F02DFF9FED450B46A20A
:1008F0008DED000B402102A802F0DCFED6E90012CB
:10090000012302A803F01EFF03F07EFE6078012899
:1009100018D1002003F0F6FD0021084603F06EFE1A
:10092000D6E9001201233AA003F00CFF0F210020AA
:1009300003F064FED5E90012012337A003F002FFA3
:1009400003F062FE607802282ED1002003F0DAFD69
:100950000021084603F052FED5E90012012330A021
:1009600003F0F0FED6E90012012323A003F0EAFE13
:100970000F21002003F042FED5E9001201232AA036
:1009800003F0E0FE1E21002003F038FED5E900123E
:10099000012327A003F0D6FED6E90012012325A0EB
:1009A00003F0D0FE03F030FE607803280ED1002063
:1009B00003F0A8FD0F21002003F020FED5E900126E
:1009C00001231DA003F0BEFE03F01EFE642003F011
:1009D00035FB4EE700040048080000201800002006
:1009E00000000020CEF8E8E1EAE0000043524300B6
:1009F000C7E0E3F0F3E700002D000000F7E8EA00AD
:100A0000666666666666104020252E3031660000F8
:100A1000464C415348000000EEF7E8F9E5EDE000F0
:100A2000CEE1EDEEE2000000EBE5EDE8E5000000D0
:100A3000CFCE00002E2E2E00D3D1CFC5D8CDCE00E4
:100A400010B5044604F0B6F8014614B103F0ACFA50
:100A50002060C86C10BD10B590F825100024022944
:100A600003D00421C16301241AE001680A6822F05E
:100A70000E020A6001680A6822F001020A6090F81A
:100A80004410036C01F01C02012101FA02F25A60C9
:100A900080F82510002180F82410816B01B188476F
:100AA000204610BDF0B4016C0C6801680D6890F828
:100AB000442002F01C06042202FA06F3234211D05D
:100AC0006B070FD50B689B0603D40B6823F0040358
:100AD0000B6090F8441001F01C018A40016C4A60E0
:100AE000016B1DE0022303FA06F727424FF0000CCA
:100AF0004FF0010218D0AF0716D50C68A40605D434
:100B00000C6824F00A040C6080F8252090F844104A
:100B100001F01C018B40016C4B6080F824C0C16A5D
:100B200000291AD0F0BC08470823B340234214D050
:100B30002B0712D50B6823F00E030B6090F84410BE
:100B4000036C01F01C0102FA01F15960C26380F8E4
:100B5000252080F824C0416BE2E7F0BC704700001C
:100B600070B568B12B4C036814212B4AA34209D2FB
:100B70002A4C1C44B4FBF1F18900C0E910210BE0C0
:100B8000012070BD234C64421C44B4FBF1F1890088
:100B90004164204908390164022180F825101C684D
:100BA00047F6F0718C43D0E902152943D0E9045689
:100BB0003543294385692943C5692943056A294382
:100BC000214319608168B1F5804F19D0036C0F2162
:100BD000934202D152F8A83F02E00E4AA0321368B5
:100BE00090F8444004F01C04A1408B43136090F83B
:100BF0004430416803F01C039940136819431160A5
:100C00000021C163012280F8252080F824100846C5
:100C100070BD00000804024000000240F8FFFDBF64
:100C200070B5044600F0ECF80546601C00D0641C6A
:100C300000F0E6F8401BA042FAD370BD2DE9F84F52
:100C4000DFF888B100234FF0010C4FF0030A4FF09A
:100C50000F090BF1040EB1E00CFA03F632406FD02D
:100C60004C68022C01D0122C11D1DC0800EB840757
:100C70003C6A5D07ED0E09FA05F824EA0804D1F88C
:100C8000108008FA05F848EA0408C7F820800768C9
:100C90005D0091F804800AFA05F408F00308A74300
:100CA00008FA05F848EA0708C0F800804F68012FE5
:100CB00005D0022F03D0112F01D0122F10D1D0F860
:100CC0000880CF6828EA0408AF4047EA0807876031
:100CD0004768B7430E79C6F300169E403E43466010
:100CE000C668A6438C68AC403443C4604C68E400DA
:100CF00063D5374C256E45F001052566246E23F03B
:100D0000030504F001040094324C2F19BD689C07C0
:100D1000260F09FA06F4A543B0F1904F04D02E4CEB
:100D2000A04203D1012421E000241FE02B4CA0426B
:100D300001D102241AE02A4CA04202D1032415E07A
:100D40003BE0284CA04201D104240FE0264CA042F5
:100D500001D105240AE0254CA04201D1062405E07A
:100D6000234CA04201D1072400E00824B4402C43C6
:100D7000BC60DBF800405D464E689443F60300D546
:100D800014432C60DEF8004075464E689443B60369
:100D900000D514432C600D4D08352C684E689443E3
:100DA000F60200D514432C60084D0C352C684E68B3
:100DB0009443B60200D514432C605B1C0A6832FAD7
:100DC00003F47FF449AFBDE8F88F00000004014050
:100DD00000100240000001400004004800080048E4
:100DE000000C00480010004800140048001800489B
:100DF000001C00480AB181617047816270470000A1
:100E00000148006870470000440000200248016863
:100E1000491C0160704700004400002010B5002408
:100E2000032000F0B1F8002000F008F808B1012418
:100E300001E000F03DF8204610BD000000B501467D
:100E400087B00022192000F07FF8192000F070F818
:100E50001348016E41F400610166006E05A900F4BB
:100E600000600690684600F04BFB00F081FB0D49E6
:100E70000D4AB0FBF1F10D48491E0260416040F29D
:100E8000E7320021C0E90321816001F031F810B19F
:100E9000012007B000BD054801F09CF8F9E700000B
:100EA0000010024040420F00002C0140700600205C
:100EB0001E4808B5016E41F001010166016E01F0A6
:100EC00001010091816D41F080518165806D00F0DC
:100ED00080500090032000F057F8002211466FF078
:100EE0000B0000F031F8002211466FF00A0000F00C
:100EF0002BF8002211466FF0090000F025F80022BF
:100F00001146501F00F020F800221146101F00F07B
:100F10001BF800220F21901E00F016F800220F216E
:100F2000BDE80840501E00F00FB80000001002405D
:100F300000F01F02012191404009800000F1E020F3
:100F4000C0F8001170470000F0B40E4B1B680C464F
:100F5000C3F30223C3F10705042D00D90425191D8D
:100F6000072901D2002300E0DB1E012606FA05F165
:100F7000491E214099409E40761E16403143F0BCE8
:100F800001F0DCBD0CED00E0064900F00702086846
:100F90004FF6FF03184040EA0220034A104308605E
:100FA000704700000CED00E00000FA051649B0F5AE
:100FB000007F0868C0F3412009D0022805D00868E6
:100FC00020F4C06040F48060086000207047012871
:100FD000FBD0086820F4C06040F4007008600B4843
:100FE0003222006850430A4AB0FBF2F0401C00E095
:100FF000401E4A69520501D50028F9D148694005CB
:10100000E3D5032070470000007000404800002036
:1010100040420F000248006800F4C06070470000C2
:10102000007000402DE9F84F044600270088EC4D81
:101030003E46010504F1200B1DD5A06E78B1B0F538
:10104000800F11D0B0F5000F04D0B0F5400F22D0C2
:1010500001270FE0E86840F48030E8601BE00021E1
:10106000201D01F07BFD03E00021584601F00CFE3D
:10107000070010D03E462088C00426D5E06EC0B1DF
:10108000B0F1807F1AD0B0F1007F0DD0B0F1407F79
:1010900019D0012718E0D5F88800A16E20F440008F
:1010A0000843C5F88800E6E7E86840F48030E86067
:1010B00009E00021201D01F051FD03E00021584608
:1010C00001F0E2FD0746F7B13E46206880033AD5BD
:1010D000A86D4FF00008C00009D4A86D40F0805002
:1010E000A865A86D4FF0010800F080500090DFF86F
:1010F000F4A2DAF8001041F48071CAF80010FFF78A
:101100007FFE814610E0D5F88800E16E20F0407047
:101110000843C5F88800D8E7FFF772FEA0EB090086
:10112000022801D9032705E0DAF80000C005F3D54D
:10113000002F7CD04FEA0706B8F1000F03D0A86D4E
:1011400020F08050A8652078C00707D0D5F8880027
:10115000A16B20F003000843C5F8880020788007C1
:1011600007D5D5F88800E16B20F00C000843C5F8DE
:1011700088002078400707D5D5F88800216C20F03A
:1011800030000843C5F888002078000707D5D5F857
:101190008800616C20F0C0000843C5F88800207802
:1011A000C00607D5D5F88800A16C20F4407008432C
:1011B000C5F888002078800607D5D5F88800E16C4E
:1011C00020F440600843C5F888002088800507D5D2
:1011D000D5F88800216E20F440200843C5F8880027
:1011E0002088400507D5D5F88800616E20F44010AE
:1011F0000843C5F888002078400607D5D5F8880050
:10120000216D20F440500843C5F88800207800067E
:1012100007D5D5F88800616D20F440400843C5F833
:1012200088002088C00509D5D5F8880000E027E0AF
:10123000A16D20F440300843C5F888002068C00242
:1012400007D5D5F89C00E16D20F003000843C5F8F0
:101250009C0020884FF0006780044FF0806850D5D4
:10126000D5F88800216F20F040600843C5F8880059
:10127000206FB8423DD1E86840F48010E86040E05B
:10128000D5F8900010F4407015D0D4F88810814241
:1012900011D0D5F89000D5F8901020F4407041F4AA
:1012A0008031C5F89010D5F8901021F48031C5F840
:1012B0009010C5F89000C00711D0FFF7A1FD0746B8
:1012C00041F2883907E000BFFFF79AFDC11B49458D
:1012D00001D9032630E7D5F890008007F4D5D5F87A
:1012E0009000D4F8881020F440700843C5F89000AE
:1012F00022E7404505D10121201D01F02FFC00B15E
:1013000006462068000317D5D5F88800616F20F0E5
:1013100040600843C5F88800606FB84204D1E868AF
:1013200040F48010E86007E0404505D10121201D10
:1013300001F014FC00B106462068400317D5D5F82B
:101340008800A16F20F040600843C5F88800A06FB6
:10135000B84204D1E86840F48010E86007E04045F6
:1013600005D10121201D01F0F9FB00B106462088BE
:1013700040041AD5D5F88800E16F20F040500843AA
:10138000C5F88800E06FB0F1805F03D0B0F1005F76
:1013900005D00AE00221201D01F0E0FB03E002215C
:1013A000584601F071FC00B106462088000408D5BB
:1013B000D5F88800D4F8801020F080400843C5F8A4
:1013C00088002068C00307D555F8880FD4F884102A
:1013D00020F00040084328603046BDE8F88F000048
:1013E00000100240007000402DE9F0470F46050054
:1013F00058D03F4E306800F00700B84209D230683C
:1014000020F0070038433060306800F00700B84231
:1014100048D12878374CC0072CD06868032811D0F1
:10142000022812D0216898B1490500293ADAA1684A
:1014300021F003010143A160FFF7E2FC804641F285
:10144000883910E021688901EFE721688903ECE71A
:101450008907EAE7FFF7D4FCA0EB0801494502D968
:101460000320BDE8F087A068696800F00C00B0EBCD
:10147000810FEFD12878800705D5A068A96820F0F2
:10148000F0000843A060306800F00700B8420BD9B4
:10149000306820F0070038433060306800F0070003
:1014A000B84201D00120DCE72878400705D5A068C4
:1014B000E96820F4E0600843A0602878000706D5BA
:1014C000A068296920F4605040EAC100A06000F0E3
:1014D00061F8A168084AC1F30311515C01F01F01D2
:1014E000C84006490860BDE8F0470020FFF7A6BCE9
:1014F0000020024000100240146000084800002054
:101500000F2202600C4A936803F003034360936860
:1015100003F0F0038360936803F4E063C3609268B0
:101520004FF4E06303EAD20202610448006800F06D
:1015300007000860704700000010024000200240D1
:10154000014800687047000048000020054806492F
:1015500000688968054AC1F30221515C01F01F014E
:10156000C840704748000020001002405460000846
:101570000548064900688968054AC1F3C221515CE3
:1015800001F01F01C84070474800002000100240D1
:101590005460000870B52549002318468A68CC6855
:1015A00012F00C0204F00306214C4FF4610509D03F
:1015B0000C2A05D0042A26D0082A00D1284670BD5E
:1015C000012E10D10B681B0704D4D1F89430C3F35B
:1015D000032302E00B68C3F30313164E56F82330BF
:1015E0007AB10C2AEBD1C86800F00302C868C0F3D6
:1015F0000210401C022A08D0032A09D0B3FBF0F0E5
:1016000008E0184670BD204670BDB4FBF0F001E064
:10161000B5FBF0F0CA68C968C2F306225043C1F3B3
:101620004161491C4900B0FBF1F070BD001002405F
:101630000024F4002460000870B5104C86B01646F3
:10164000E06C0D4640F00100E064E06C694600F09B
:1016500001000590A0150090022001900390002049
:10166000029004904FF09040FFF7E8FAA0683543ED
:1016700020F0FE402843A06006B070BD001002407C
:101680002DE9F84305007CD0F84CA06800F00C066A
:10169000E06800F003072878C00662D576B10C2E0A
:1016A00001D1012F0AD0A8690028206878D040F025
:1016B00001002060FFF7A4FB804659E02068800706
:1016C00002D5A8690028DED0296A2068000703D562
:1016D000206800F0F00004E0D4F89400F02202EA60
:1016E0001010814216D9084601F052FB002848D15B
:1016F000206840F0080020602068296A20F0F0008F
:10170000084320606068E96920F47F4040EA0120D6
:10171000606015E0206840F0080020602068296AB9
:1017200020F0F000084320606068E96920F47F4001
:1017300040EA01206060286A01F02AFB0028D6D127
:10174000FFF728FFA168CA4AC1F30311515C01F0F9
:101750001F01C840C74908600020FFF76FFB002841
:101760007ED12EE0FFF74CFBA0EB0800022878D8D2
:1017700020688007F6D5206840F0080020602068C7
:1017800001E0BBE00CE0296A20F0F0000843206093
:101790006068E96920F47F4040EA0120606010E061
:1017A00020F001002060FFF72BFB804606E000BF21
:1017B000FFF726FBA0EB08000228D8D82068800796
:1017C000F6D42878C00740D0082E18D00C2E01D1AE
:1017D000032F14D06868B0F5803F17D0B0F5A02F64
:1017E000206817D020F480302060206820F480200A
:1017F00020606868E0B1FFF703FB804614E02068D2
:10180000800322D56868002878D01EE0206840F464
:101810008030EDE740F480202060F7E7FFF7F0FA32
:10182000A0EB08006428A2D820688003F6D50CE05D
:10183000FFF7E6FA804605E0FFF7E2FAA0EB0800C2
:10184000642894D820688003F6D4287880073BD594
:10185000042E11D00C2E01D1022F0DD0E86801E02A
:101860005EE1B8E0002820681ED040F4807020605F
:10187000FFF7C6FA07460CE0206840050CD5E8687B
:101880000028C1D008E000BFFFF7BAFAC01B022849
:1018900093D820684005F7D56068297C20F0FE4089
:1018A00040EA016060600FE020F480702060FFF784
:1018B000A7FA074605E000BFFFF7A2FAC01B0228FF
:1018C000B1D820684005F7D42878000729D5686981
:1018D0000028D4F8940012D040F00100C4F894001D
:1018E000FFF78EFA074604E0FFF78AFAC01B0228CA
:1018F00071D8D4F894008007F6D512E017E120F0F3
:101900000100C4F89400FFF77BFA074605E000BF2A
:10191000FFF776FAC01B02285DD8D4F89400800740
:10192000F6D42878400766D5A06D0027C00008D4FB
:10193000A06D40F08050A065A06D012700F08050A0
:1019400000904D480168C90512D40168814641F4F0
:1019500080710160FFF754FA804605E0FFF750FA06
:10196000A0EB0800022836D8D9F80000C005F5D54C
:10197000A868012816D00528D4F8900017D020F0C8
:101980000100C4F89000D4F8900020F0040000BFDB
:10199000C4F89000A86841F28839C0B1FFF730FA66
:1019A00080460FE0D4F8900040F00100F0E740F0EE
:1019B0000400C4F89000F5E7FFF722FAA0EB080155
:1019C000494508D8D4F890008007F5D50EE0FFF718
:1019D00017FA804606E07CE0FFF712FAA0EB080158
:1019E000494576D8D4F890008007F5D41FB1A06D92
:1019F00020F08050A0652878800628D5686A0028E5
:101A0000D4F8980012D040F00100C4F89800FFF715
:101A1000F7F9074605E000BFFFF7F2F9C01B0228FF
:101A20007DD8D4F898008007F6D510E020F00100AA
:101A3000C4F89800FFF7E4F9074604E0FFF7E0F97F
:101A4000C01B02286BD8D4F898008007F6D4A86A87
:101A5000F0B30C2E6BD00228206820F0807020603C
:101A60000CD0206810F0205F47D04AE00010024000
:101A7000146000084800002000700040FFF7C0F923
:101A8000064604E0FFF7BCF9801B022847D820680F
:101A90008001F7D4286B55F82C1F0001103808433B
:101AA000298A244A490802EB4151AA6841EA0221E5
:101AB0000843297D4FF07E42490802EB416108430B
:101AC000297B40EAC160E060206840F0807001E05E
:101AD0002BE024E02060E06840F08070E060FFF7D9
:101AE0008FF9054605E000BFFFF78AF9401B022881
:101AF00015D820688001F7D517E0E06820F00300D2
:101B0000E060E0680C490840E060FFF779F90546BD
:101B100008E000BFFFF774F9401B022802D9032038
:101B2000BDE8F88320688001F4D40020F8E70120A4
:101B3000F6E700000000E0FFFFFFEEFE2DE9F041B8
:101B40001D4616460F46040003D094F8710018B1E4
:101B500008E00120BDE8F081002084F870002046F4
:101B600000F03CFC242084F871002068016821F01A
:101B700001010160204601F007FC0128EAD0606AFB
:101B800010B1204601F054FB2068816841F4804187
:101B900081602068816821F40041394381607005CB
:101BA00040EA054120680268064B1A400A43026079
:101BB0002068016841F0010101602046BDE8F04164
:101BC00001F09ABBFFFF00FC2DE9F041040005D0B5
:101BD0000025A56294F85D0018B107E00120BDE87A
:101BE000F08184F85C50204600F044F8022384F829
:101BF0005D302068016821F040010160E0684FF429
:101C0000E066B04201D9002101E04FF48051B0F507
:101C1000706F02D0B04200D0A562276B012227B9B5
:101C2000B04201D9236300E02263D4E901031843E1
:101C3000D4E9043633431843238B03F40073184369
:101C4000E3691843236A1843A36A1843236818609A
:101C5000636B606AA66918430427E36807EA1646BF
:101C600033431843084321684860256684F85D20A3
:101C70000020B4E7F0B50068104987B088421BD156
:101C80000F48816D41F400418165806D022400F4AC
:101C9000004005904FF480600025032606278DE85C
:101CA000F10069460748FEF7C9FF20208DE8F100E2
:101CB00069460548FEF7C2FF07B0F0BD003C004092
:101CC0000010024000080048000400482DE9F84FC9
:101CD000044690F85C0000271D46164689460128F8
:101CE0000DD04FF0010B84F85CB0FFF789F8804607
:101CF00094F85D00BA46012804D002279FE0022034
:101D0000BDE8F88FB9F1000F6FD0002E6DD0032021
:101D100084F85D00C4F860A0C4F83890A687E68710
:101D2000C4F840A0A4F844A0A4F846A0C4F850A069
:101D3000C4F84CA0A068B0F5004F04D12068016839
:101D400041F48041016020680168490603D40168BC
:101D500041F040010160E068B0F5E06F606823D9B0
:101D600008B1012E1CD1A06B21680088C86006E074
:101D700020688168890709D5A16B0988C160A06BBB
:101D8000801CA063E08F401EE08709E0FFF738F871
:101D9000A0EB0800A84202D3681C01D046E0ADB316
:101DA000E08F0028E4D136E008B1012E30D1E08F79
:101DB0000128A06B03D921680088C8600FE0216862
:101DC0000078087314E0E08722E0206881688907C2
:101DD00014D5E18F0129A16B08D90988C160A06BD6
:101DE000801CA063E08F801EEDE727E00978017377
:101DF000A06B401CA063E08F401EE4E7FFF700F8F3
:101E0000A0EB0800A84202D3681C01D00EE06DB11F
:101E1000E08F0028D9D142462946204600F0F6FF3F
:101E200008B120202066A06810B105E0032706E075
:101E30002068C16880680090206E00B1012784F896
:101E40005DB084F85CA038465AE74FF0E0210428E2
:101E5000086903D020F004000861704740F00400D6
:101E6000FAE710B5401EB0F1807F01D3012010BD0C
:101E70004FF0E02460610F21601700F05FFE00204A
:101E8000A06107202061002010BD70477047704797
:101E900070B590F83C20012A24D0012480F83C4001
:101EA000022280F83D200268536895680E4EB242C7
:101EB00002D00E4EB24203D123F470064B68334376
:101EC00023F070060B688968334325F080052943A9
:101ED00053600268916080F83D40002180F83C101A
:101EE000084670BD022070BD002C01400034014046
:101EF00010B5040003D094F83D0010B107E00120B4
:101F000010BD002084F83C00204600F00DF80220AF
:101F100084F83D00211D206801F0C0F8012084F8FC
:101F20003D00002010BD000008B501681948B1F15E
:101F3000804F11D0184A914217D1816D41F01001A4
:101F40008165806D002200F0100000900521362090
:101F5000FEF7FAFF362019E0816D41F0010181653D
:101F6000806D00F00100009008BD0C4A9142FBD149
:101F7000816D41F020018165806D002200F020001C
:101F8000009005213720FEF7DFFF3720BDE808402D
:101F9000FEF7CEBF001002400010004000140040C9
:101FA000022180F83D1001688B68094A1340062B16
:101FB00008D08B681340B3F5803F03D00A6842F025
:101FC00001020A60012180F83D10002070470000E6
:101FD000070001000168CA6842F00102CA60006897
:101FE000826807490A40062A08D082680A40B2F58A
:101FF000803F03D0016841F001010160002070477B
:102000000700010070B5044690F83C00012817D085
:10201000012584F83C50022084F83D002068826845
:10202000324E324022F47F4282600868502839D014
:102030000DDC202855D005DC98B3102843D150E0A2
:10204000022070BD30284CD040283CD141E06028AF
:1020500030D070280CD0B0F5805F03D0B0F5005FB1
:1020600031D112E020688168204A7032114016E0B8
:10207000CB68D1E90121206801F070F821688868F7
:10208000304040F0770088601DE0CB68D1E9012145
:10209000206801F063F82068816841F48041816024
:1020A00011E01EE0CA684968206801F069F8502113
:1020B000206806E0CA684968206801F072F860216B
:1020C000206801F055F884F83D50002084F83C0069
:1020D00070BDCA684968206801F052F84021206844
:1020E000EFE7226801461046EBE7000088FFFEFF9D
:1020F000704770B50446006801694FF00005C94398
:10210000890715D4C168C943890711D4E91E016143
:1021100001202077206880698007204602D0FFF7E1
:10212000E7FF04E000F0A7F8204600F0A5F82577C7
:1021300020680169C943490717D4C168C9434907E1
:1021400013D46FF0040101610220207720688069B8
:1021500010F4407F204602D0FFF7CAFF04E000F0F1
:102160008AF8204600F088F8257720680169C9437D
:10217000090716D4C168C943090712D46FF00801D2
:102180000161042020772068C0698007204602D0C2
:10219000FFF7AEFF04E000F06EF8204600F06CF8A8
:1021A000257720680169C943C90617D4C168C943A6
:1021B000C90613D46FF01001016108202077206850
:1021C000C06910F4407F204602D0FFF791FF04E081
:1021D00000F051F8204600F04FF82577206801699B
:1021E000C943C90708D1C168C943C90704D1891EB9
:1021F0000161204600F042F820680169C9430906E0
:1022000009D4C168C943090605D46FF08001016192
:102210002046FFF73BFE20680169C943C90509D480
:10222000C168C943090605D46FF480710161204675
:10223000FFF72BFE20680169C943490609D4C1682C
:10224000C943490605D46FF040010161204600F002
:102250001FF820680169C94389060BD4C168C943C6
:10226000890607D46FF0200101612046BDE8704067
:10227000FFF70DBE70BD704770470000006803494E
:10228000884201D1FEF7C2BD70470000002C01401A
:1022900070477047704700002DE9F041026804461E
:1022A000D0691168936810F00F0F4FF000055BD0F4
:1022B00003F0010601F49077374369D0C70707D0D0
:1022C000CF0505D501271762626F42F001026267F0
:1022D000820708D5DA0706D0276802223A62626FC1
:1022E00042F004026267420708D5DA0706D0236885
:1022F00004221A62626F42F00202626702070AD584
:1023000001F02002324306D0236808221A62626F6D
:1023100042F008026267626F002A32D0800605D55B
:10232000880603D5216E09B120468847606F0007F3
:1023300003D420688068400625D5204601F014F8B3
:1023400020688168490619D5816821F040018160C3
:10235000E06E98B120498163E06EFEF77CFB0028B7
:102360000FD0E06E816B06E0860611D58E060FD584
:10237000216E1EE02046BDE8F04108472046FFF7E9
:1023800089FFBDE8F0812046FFF784FF6567F8E725
:10239000C60209D55B0207D54FF4801010622046B3
:1023A000BDE8F041FFF775BF030605D50B0603D561
:1023B000616E0029DED1E4E74006E2D54806E0D5AB
:1023C0001168204621F040011160202184F871102D
:1023D000656600F045F9D4E7553300082DE9F0476C
:1023E0000546DFF84882D0F800C0914B0320072152
:1023F00000240226802786B04FF090424FF010094B
:10240000C44553D1D3F860C04CF4804CC3F860C0CD
:102410001B6E029403F480430593CDE903014FF44E
:10242000B053CDE90036A04669461046FEF706FCDB
:10243000DFF804A27F495046CAF80010C0E90164E1
:10244000C0E90347CAF81440CAF81840CAF81C404B
:10245000CAF82040FEF784FB18B1AE2177A001F046
:1024600028F9754C7348C5F86CA048341438CAF87C
:10247000285084E84102C4E90387C4F81480C4F8F2
:102480001880C4F81C802046C4F82080FEF768FB42
:1024900018B1BF2169A001F00CF9AC66002205213A
:1024A0002520A562FEF750FD252054E0DFF89C8131
:1024B000C44555D1D3F858C04CF4003CC3F858C0BB
:1024C0009B6D029403F400330593CDE903010E23C1
:1024D000CDE90036B04669461046FEF7AFFBDFF89F
:1024E00058A154490AF1900A14315046CAF8001014
:1024F000C0E90164C0E90347CAF81440CAF81840AB
:10250000CAF81C40CAF82040FEF72AFB18B1EC219B
:102510004AA001F0CEF8484EC5F86CA0D836CAF8EB
:102520002850C6E9034774614248B461F461283019
:10253000346286E801033046FEF712FB18B1FD2134
:102540003EA001F0B6F8AE66002205212620B56255
:10255000FEF7FAFC2620FEF7EBFC06B0BDE8F0879C
:102560003B4A9445F9D19A6D42F480229A659A6D5E
:10257000804602F4802205923022CDE900268A4668
:1025800002AA694682E810053248FEF757FB02AA04
:102590000096019682E8100569462F48FEF74EFB2B
:1025A0002449DFF8B88028394046C8F80010C0E94F
:1025B0000164C0E90347C8F81440C8F81840C8F8D7
:1025C0001C40C8F82040FEF7CBFA20B140F2311190
:1025D0001AA001F06EF8C5F86C80C8F82850DFF832
:1025E0007C80144908F1480840463C39C0E903475B
:1025F000C8F81440C8F81840C8F81C4088E84202DF
:10260000C8F82040FEF7ACFA20B14FF4A1710BA03E
:1026100001F04FF8C5F86880002205212720C8F88E
:102620002850FEF791FC272095E700000038014074
:102630000010024058000240C00400202E2E2F53EC
:1026400072632F75736172742E6300000044004042
:10265000004800400008004800040048E005002051
:102660007047FEE74FF47A74204601F0E7FCFBE781
:102670001D4808B5816C41F001018164806C002225
:1026800000F00100009005210C20FEF75DFC0C20FD
:10269000FEF74EFC002205210D20FEF755FC0D2013
:1026A000FEF746FC002205210E20FEF74DFC0E2011
:1026B000FEF73EFC002205210F20FEF745FC0F200F
:1026C000FEF736FC002205211020FEF73DFC10200D
:1026D000FEF72EFC002205211120FEF735FCBDE897
:1026E00008401120FEF724BC0010024010B59EB037
:1026F000142221496846FDF706FE0021684601F0D4
:10270000B3FC1E4C1C4914226060143105A8FDF76F
:10271000FAFD002105A801F0A7FC1749A0601422CA
:1027200028310AA8FDF7EFFD00210AA801F09CFC62
:102730001149E06014223C310FA8FDF7E4FD0021AF
:102740000FA801F091FC0C4920611422503114A80B
:10275000FDF7D9FD002114A801F086FC064960614F
:102760001422643119A8FDF7CEFD002119A801F04B
:102770007BFCA0611EB010BD9C5F0008180000200B
:102780002DE9F0473D4886B0C16C41F00401C164B9
:10279000C16C01F004010591C16C41F08001C1647C
:1027A000C16C01F080010591C16C41F00101C1646F
:1027B000C16C01F001010591C16C41F00201C164DD
:1027C000C06CDFF8BC8000F002004FF43466059066
:1027D000002231464046FEF70DFB4FF400474FF014
:1027E0009049002239464846FEF704FBDFF894A0E2
:1027F0000022C0215046FEF7FDFA4FF4025000249B
:1028000001258DE8310069464046FEF717FA00962B
:10281000CDE90154694640460394FEF70FFA2802B9
:1028200000900220CDE901040394694648460494CF
:10283000FEF704FAE8028DE8310069464846FEF7E3
:10284000FDF90097CDE90154694648460394FEF727
:10285000F5F94FF442708DE8310069465046FEF7B5
:10286000EDF9C0200090CDE901546946504603942B
:10287000FEF7E4F906B0BDE8F08700000010024062
:102880000008004800040048134810B511490160D1
:102890004FF48271416000214FF4E062C0E90212FE
:1028A0000222026101224261520282613822C0E9A1
:1028B000072107224162C0E90A1201634163FFF761
:1028C00083F9002805D0BDE81040512103A000F095
:1028D000F0BE10BD003C0040340200202E2E2F53CD
:1028E00072632F7370692E630000000010B51748E3
:1028F00088B04FF0804101604FF4FA510024C0E9E4
:102900000114611EC0E903148461FFF7F1FA18B1E4
:102910004B210FA000F0CDFE4FF48050039003A98F
:102920000A48FFF76FFB18B1512109A000F0C1FE62
:102930000094694605480294FFF7AAFA002803D0DC
:10294000582103A000F0B5FE08B010BD9802002089
:102950002E2E2F5372632F74696D2E6300000000BA
:102960003EB510480E490024C0E9001440F6344139
:10297000C0E902418461FFF7BBFA18B168210AA0DF
:1029800000F097FE20200090694602940548FFF76A
:102990007FFA002803D06F2103A000F08AFE3EBD1D
:1029A00000100040D80200202E2E2F5372632F7487
:1029B000696D2E63000000003EB511480F490024E8
:1029C000016041F63F71C0E90114C9108461C16022
:1029D000FFF78EFA18B17F210AA000F06AFE2020CE
:1029E0000090694602940648FFF752FA002803D087
:1029F000862104A000F05DFE3EBD000000140040F2
:102A0000180300202E2E2F5372632F74696D2E63CE
:102A100000000000114810B50F4901604FF4E1318A
:102A20004160002181600C22C160C0E90412816113
:102A3000C1610162102141620902012381631A46CA
:102A40000021FFF77BF8002805D0BDE81040582191
:102A500003A000F02EBE10BD003801405803002036
:102A60002E2E2F5372632F75736172742E630000C4
:102A7000114810B50F4901604FF4E1314160002168
:102A800081600C22C160C0E904128161C1610162F0
:102A9000102141620902012381631A460021FFF7D8
:102AA0004DF8002805D0BDE810406E2103A000F0CD
:102AB00000BE10BD00440040D00300202E2E2F5336
:102AC00072632F75736172742E630000114810B524
:102AD0000F4901604FF4E1314160002181600C2217
:102AE000C160C0E904128161C161016210214162CB
:102AF0000902012381631A460021FFF71FF800280D
:102B000005D0BDE81040842103A000F0D2BD10BD67
:102B100000480040480400202E2E2F5372632F756A
:102B2000736172742E630000FEE7012001F086FAE3
:102B3000FBE7012001F082FAFBE770470907090E65
:102B4000002806DA00F00F0000F1E02080F8141DE4
:102B5000704700F1E02080F8001470472DE9F04143
:102B6000444C05468846E0680026810728680DD059
:102B7000E16801F00301814216D1A8B1E0686968FB
:102B8000C0F30210401C88420ED120E0012804D07E
:102B9000022805D0032807D108E02168890701E051
:102BA00021684905002907DB01265FE021688903C8
:102BB00002D421684903F5E7E1686A686FF00F0302
:102BC00021F0730103EB021211430143E16020681D
:102BD00020F080602060FEF713F9074605E000BF93
:102BE000FEF70EF9C01B022837D820680001F7D481
:102BF000B8F1000F18D0B8F1010F1DD0287D4FF0AB
:102C00007E41400801EB4060A96840EA012021694B
:102C1000194A114008432061206840F0806020601C
:102C2000FEF7EEF807461AE0A868297B000240EAA2
:102C3000C1602169114AECE7288A1149400801EB7B
:102C40004050A96840EA012021690E4AE1E700BF2F
:102C5000FEF7D6F8C01B022801D9032606E020683B
:102C60000001F5D52069A969084320613046BDE817
:102C7000F081000000100240FF80FFF9FF80FF0795
:102C80000000E0FFFF809FFF2DE9F0413D4C06462C
:102C90008846E0680025810730680DD0E16801F0C2
:102CA0000301814216D1A8B1E0687168C0F3021037
:102CB000401C88420ED120E0012804D0022805D013
:102CC000032807D108E02168890701E02168490548
:102CD000002907DB012551E02168890302D421681E
:102CE0004903F5E7E16872686FF00F0321F07301A3
:102CF00003EB021211430143E160206820F0805091
:102D00002060FEF77DF8074605E000BFFEF778F883
:102D1000C01B022829D820688000F7D4B8F1000F22
:102D200015D0307C4FF07E41400801EB4060B16827
:102D300040EA01206169144A11400843606120683B
:102D400040F080502060FEF75BF807460FE0B06867
:102D5000317B000240EAC16061690C4AECE700BFC8
:102D6000FEF74EF8C01B022801D9032506E02068B3
:102D70008000F5D560697169084360612846BDE847
:102D8000F081000000100240FF80FFF9FF80FF0784
:102D9000F8B51C4D06460024A86DC00002D5FEF70C
:102DA00039F90DE0A86D40F08050A865A86D00F0DD
:102DB00080500090FEF72EF9A96D21F08051A96591
:102DC000B0F5007F04D0802E07D94FF003040AE04D
:102DD000802E08D9A02E01D804E001D1022402E0FF
:102DE000702E00D101240848016821F00701214319
:102DF0000160006800F00700A04201D00120F8BD8A
:102E00000020F8BD0010024000200240F8B5154631
:102E10000E460B460092044600224FF4C05100F0CB
:102E200019F888B93346002280212046009500F029
:102E30005CF848B9334600224FF4C0612046009543
:102E400000F008F8002804D0206E40F02000206632
:102E50000320F8BD2DE9F0471D4617460E460446EF
:102E60004FF4C068DDF820900CE0464501D107B969
:102E7000007B681C06D0FDF7C3FFA0EB0900A84249
:102E800008D23DB1206881683140B942EDD10020BF
:102E9000BDE8F0872068416821F0E001416060688A
:102EA000B0F5827F0BD1A068B0F5004F02D0B0F52D
:102EB000806F04D12068016821F040010160A06AA0
:102EC000B0F5005F09D12068016821F4005101606C
:102ED0002068016841F400510160012084F85D0020
:102EE000002084F85C000320D2E72DE9F0411D4664
:102EF00017460E460446DDF8188008E0681C06D028
:102F0000FDF77EFFA0EB0800A8420BD255B1206868
:102F1000806836EA000030D00020B842EED10020B0
:102F2000BDE8F0812068416821F0E00141606068FF
:102F3000B0F5827F0BD1A068B0F5004F02D0B0F59C
:102F4000806F04D12068016821F040010160A06A0F
:102F5000B0F5005F09D12068016821F400510160DB
:102F60002068016841F400510160012084F85D008F
:102F7000002084F85C000320D2E70120CDE700F0B8
:102F800023F94FF47A7400F025F9204601F056F841
:102F9000F9E701F05FB810B5BAB003244FF4803000
:102FA000CDE92340001226904020279002200421E2
:102FB000CDE92E012821CDE930102D9032903390AB
:102FC00023A8FEF75DFB00B1FEE70F20CDE9340436
:102FD000002436943794042134A83894FEF704FA78
:102FE00000B1FEE707200F9400900E9410946846FD
:102FF000FEF718F800B1FEE74FF00052D1100020A4
:10300000FEF71AFB4FF40070FDF7D0FF00B1FEE7AA
:10301000FEF796FA4FF47A71B0FBF1F0FEF721FF5C
:103020000420FEF712FF00220F21501EFDF78CFF37
:103030003AB010BD0D48016841F4700101600C48C0
:10304000016841F001010160002181600268094BC3
:103050001A4002608214C260026822F48022026078
:1030600081610249C00380390860704788ED00E043
:1030700000100240FFFFF6EA0148FFF73AB80000EF
:10308000700600200148FFF734B80000D802002085
:103090000148FFF72EB80000180300202DE9F04783
:1030A0000268264B264D274E274F284C4FF0804A6A
:1030B000984209D0504507D0A84205D0B04203D06D
:1030C000B84201D0A04204D122F0700C4A6842EA12
:1030D0000C02DFF87CC0DFF87C80DFF87C9098423F
:1030E0000FD050450DD0A8420BD0B04209D0B84205
:1030F00007D0A04205D0604503D0404501D04845E7
:1031000003D122F44075CA682A434D6922F0800237
:103110002A4302608A68C2620A688262984207D0C3
:10312000A04205D0604503D0404501D0484501D1BB
:103130000969016301214161BDE8F087002C01406C
:103140000004004000080040000C00400034014032
:1031500000400140004401400048014010B584682F
:1031600042EA032224F47F440A432243826010BDD2
:10317000826822F070020A4342F0070181607047C2
:1031800010B5036A046A24F001040462846924F01F
:10319000F00444EA021423F00A020A438461026242
:1031A00010BD10B5036A23F0100303628369046A3B
:1031B00023F4704343EA023224F0A00343EA0111EE
:1031C0008261016210BD00000148FEF7E9BE000007
:1031D000980200201FB500200290009002A8FDF781
:1031E0002FFC01460190114842F210730268891ABF
:1031F0004FF47A7251430091029A4168511A9942F0
:1032000012D94260009AF2EE040AB2FBF1F1C1F564
:103210007A7100EE101A8160B8EE400A80EE201A32
:1032200080ED031A019901601FBD000034000020E9
:1032300090F82410C90706D001684A68836A22F40E
:1032400000321A434A6090F82410890706D50168B5
:103250004A68C36A22F480321A434A6090F8241004
:10326000490706D501684A68036B22F480221A4395
:103270004A6090F82410090706D501684A68436B34
:1032800022F400421A434A6090F82410C90606D579
:1032900001688A68836B22F480521A438A6090F82E
:1032A0002410890606D501688A68C36B22F400528F
:1032B0001A438A6090F82410490611D501684A68BB
:1032C000036C22F480121A434A60016CB1F5801F2E
:1032D00006D101684A68436C22F4C0021A434A606E
:1032E00090F82410090606D501684A68806C22F41B
:1032F000002202434A607047F8B50026044646673C
:10330000FDF77EFD0546206800686FF07E470007E8
:1033100008D52B4600224FF400112046009700F0FC
:1033200083F960B92068006840070AD52B4600225F
:103330004FF480012046009700F076F908B1032091
:10334000F8BD202084F8710084F8720084F8706061
:103350000020F8BD10B5806A0021A0F85A10A0F82E
:103360005210FEF797FF10BD01680A6822F49072B0
:103370000A6001688A6822F001028A60202180F8D0
:1033800072100021016670472DE9F0410446016882
:1033900080682369E6691843636910250027334371
:1033A0001843954A0B68954E334003430B602068E1
:1033B0004168E36821F44051194341602168A069E4
:1033C000914201D0236A18438B6823F4306303438E
:1033D0008B608B4B21688B4899420DD1D0F88800C7
:1033E00010F0030006D001285AD0022856D0032836
:1033F00059D157E0012556E0834B99420BD1D0F8C3
:10340000880010F00C0047D0042849D0082845D087
:103410000C2848D146E07D4B99420BD1D0F888006A
:1034200010F0300038D010283AD0202836D030287C
:1034300039D137E0764B99420BD1D0F8880010F0A3
:10344000C00029D040282BD0802827D0C0282AD1DE
:1034500028E0704B99420ED1D0F8880010F44070EB
:103460001AD0B0F5807F1BD0B0F5007F16D0B0F534
:10347000407F18D116E0914215D1D0F8880010F4A1
:10348000406009D0B0F5806F0AD0B0F5006F05D06C
:10349000B0F5406F07D105E0002504E0022502E009
:1034A000042500E008255C4B00264FF400409142C3
:1034B0003DD135B1022D07D0042D07D0082D10D1F4
:1034C00007E0FEF743F803E0184602E0FEF762F873
:1034D000A8B3626802EB4201814202D8B0EB023F1E
:1034E00001D9012775E0DFF834815DB1022D0CD0E0
:1034F000042D13D0082DF4D150082905401846F1A9
:10350000000105E0FEF722F80AE050084449F5E71B
:103510000023FCF7C7FEA0F5407156E0FEF73AF82D
:103520006268010E0302500818187141F0E7E16962
:103530004FF6EF7881422FD1092DD2D200E048E03A
:10354000DFE805F006092005230505052600C8E784
:10355000FDF7FCFF01E0FEF70BF84100D4F8040092
:1035600001EB5001B1FBF0F080B2A0F11001414538
:10357000B7D84FF6F0710140C0F342000143206814
:10358000C16026E027496068EAE7FEF703F8E4E750
:103590004FF480316068E3E7092DA2D2DFE805F03F
:1035A00006091E052205050525009AE7FDF7CEFF51
:1035B00001E0FDF7DDFF0146606801EB500100BF4F
:1035C000B1FBF0F080B2A0F11001414589D821682B
:1035D000C860266638466666BDE8F081606803EB21
:1035E0005001EDE7FDF7D6FFE5E7616800EB51001C
:1035F000B0FBF1F0E6E7000000800040F369FFEF68
:1036000000380140001002400044004000480040E3
:10361000004C0040005000400024F400FFFC0F006C
:10362000000024F40048E8012DE9F04198461746CF
:103630000E460446069D1DE0681C1BD02DB1FDF70B
:10364000DFFBA0EB0800A84214D92068016821F430
:10365000D07101602068816821F001018160202023
:1036600084F8710084F87200002084F87000032050
:10367000BDE8F0812068C06936EA000004D000206F
:10368000B842D9D00020F3E70120F9E70148FEF75E
:1036900003BE0000580300200148FEF7FDBD0000F6
:1036A000D00300200148FEF7F7BD000048040020C9
:1036B000FEE7FEE70FB41CB50A46521ECDE9000234
:1036C00007A9054B6A46069800F0CAF8009A00213F
:1036D00011701CBC5DF814FB8F3F000802E008C8A5
:1036E000121F08C1002AFAD170477047002001E07C
:1036F00001C1121F002AFBD1704700002DE9FF5FB6
:10370000DDE90220010DDDF838B0024318D044F69F
:103710001050A1F2FF3141430D140F98012820D021
:10372000A5EB0B00401C5FEA000A4FF00004474E77
:10373000DFF81C91A046504616D5CAF1000728E0D4
:103740000F98012443A2012808D0002100980F9B64
:10375000C0E90021C0E90243BDE8FF9F6FEA0B0109
:10376000F4E7CBF10000DEE7074612E0F80707D0E8
:103770002246334640464946FCF7B3FE804689461A
:103780002246334610461946FCF7ABFE04460E4669
:103790007F10002FEAD1DDE90201BAF1000F4246A5
:1037A0004B4602DAFCF79DFE01E0FCF70CFF0446F5
:1037B0000E460022284BFCF78DFF03D84FF0FF3058
:1037C000014607E00022254B20463146FCF7E2FD8A
:1037D000FCF768FF102409E0002C0ADB0A22002312
:1037E000FCF760FD019B30321A55641E50EA01025D
:1037F000F2D1641C019AC4F1110314440F9A012AF6
:1038000003D0012208430DD10AE0084304D0002070
:103810004FF0110B0F9080E7A3EB0B056D1E0DE031
:103820005B4504DD4FF0000205F1010504E003DA19
:103830004FF00002A5F10105002AECD000980F9985
:10384000C0E90231C0E9004586E7000000002440DD
:103850000000F03F300000000000F0430000E03FB7
:103860002DE9FF4F95B09B468946064600250FE29D
:10387000252877D100242746F84A0121059400E045
:10388000044316F8013F203B01FA03F01042F7D140
:1038900030782A2811D06FF02F033078A0F1300251
:1038A000092A16D8059A44F0020402EB820203EBBF
:1038B00042021044761C0590EFE759F8042B05925C
:1038C000002A03DA504244F40054059044F0020404
:1038D000761C30782E2816D116F8010F44F0040417
:1038E0002A280DD06FF02F023078A0F13003092B79
:1038F00009D807EB870302EB4303C718761CF3E7ED
:1039000059F8047B761C30786C280FD006DC4C28E4
:1039100017D068280DD06A2814D104E0742810D07C
:103920007A280FD10DE044F400140AE044F4801426
:1039300001E044F440147278824202D104F580140C
:10394000761C761C307866280BD013DC582877D08C
:1039500009DC002875D04528F6D04628F4D0472841
:103960001AD19DE118E0632835D0642879D0652804
:1039700012D195E1702873D008DC6728F1D069284E
:103980006FD06E280DD06F2806D1B5E073282CD0EB
:10399000752875D0782874D05A46179990476D1CB1
:1039A00075E1C4F30250022809D003280DD0D9F8DC
:1039B000001004280DD00D6009F1040967E1D9F861
:1039C0000010EA17C1E90052F6E7D9F800100D809F
:1039D000F2E70D70F0E719F8041B8DF800100020D5
:1039E0008DF80100EA46012003E059F804AB4FF0DE
:1039F000FF3061074FF0000102D40DE008F1010132
:103A00008846B9420FDA8045F8DB1AF80810002919
:103A1000F4D108E008F1010188468142FADB1AF886
:103A200008100029F6D105985B46A0EB080721464F
:103A30003846179A00F094FA284400EB080507E08E
:103A40004DE029E10DE01AF8010B5A46179990470D
:103A5000B8F10108F7D25B4621463846179A13E1C0
:103A600042E00A220092C4F302524FF0000A022AF6
:103A700008D059F804CB032A4FEAEC710AD00DE0C4
:103A800029E02AE009F1070121F00702F2E802C16A
:103A9000914609E00FFA8CFC4FEAEC71042A03D13D
:103AA0004FFA8CFC4FEAEC71002907DA0A46002134
:103AB000DCF1000C61EB02012D2202E0220504D5AD
:103AC0002B228DF80420012203E0E20701D02022FE
:103AD000F7E7904659E00A2102E010220DE010219C
:103AE0004FF0000A00910BE010224FF0000A44F062
:103AF00004040827009203E008224FF0000A009215
:103B0000C4F30252022A05D059F804CB0021032A3B
:103B100008D009E009F1070121F00702F2E802C12B
:103B2000914605E01FFA8CFC042A01D10CF0FF0C31
:103B30004FF00008220728D5702806D0009B83F09C
:103B4000100353EA0A0305D00EE040228DF804204A
:103B5000012208E05CEA010206D030228DF8042040
:103B60008DF8050002229046009B83F0080353EA7B
:103B70000A030AD15CEA010201D1620705D53022AD
:103B80008DF804204FF001087F1E582804D034A07F
:103B900003900EA802900DE036A0F9E75346604668
:103BA000009AFCF77FFB84460398825C0298401ED3
:103BB000029002705CEA0100F0D1029806A9081A8E
:103BC00000F1200A600702D524F4803400E00127C8
:103BD000574502DDA7EB0A0000E0002000EB0A01D8
:103BE000009005984144401A0590E00306D45B46D6
:103BF0002146179A059800F0B3F90544002706E01E
:103C000001A85A46C05D179990476D1C7F1C474517
:103C1000F6DBE0030CD55B462146179A059800F0C9
:103C20009FF9054404E030205A46179990476D1CCF
:103C30000099481E00900029F5DC08E002980299DE
:103C40005A460078491C0291179990476D1CBAF1A9
:103C50000001AAF1010AF1DC65E100000928010078
:103C600030313233343536373839616263646566F2
:103C700000000000303132333435363738394142B4
:103C8000434445460000000000F058F90544761C06
:103C9000307800287FF4ECAD19B02846BDE8F08FED
:103CA000620700D4062709F1070222F0070CFCE89E
:103CB0000223E14603F000485FEA080C02D00FF24D
:103CC000702C0DE05FEA045C02D50FF2682C07E06F
:103CD0005FEAC47C02D00FF2602C01E0AFF2700CFE
:103CE0004FF0FF3823F00043CDF850C065280CD0CA
:103CF00006DC452809D046281DD047283DD13DE0A7
:103D0000662818D067287ED138E00021112F01DB0A
:103D1000112000E0781CCDE9000106A90EA8FFF7EC
:103D2000EDFCDDE90F010E9A03910021009207F1ED
:103D3000010A04914DE04FF000400097CDE90110D9
:103D400006A90EA8FFF7DAFCDDE90F0203920E9B2D
:103D500011990022DDF80CA00093049211B9791C8E
:103D600000EB010AB7EB0A0004D4C0F1FF3007F101
:103D7000010A0490AAEB0700019044E0012F00DA49
:103D800001270021112F01DD112000E03846CDE987
:103D9000000106A90EA8FFF7B1FCDDE90F010E9A9C
:103DA0000391002104910092BA4621070CD4039993
:103DB000514500DA8A46BAF1010F05DD009AAAF1F1
:103DC0000101515C302908D0B84202DA10F1040F29
:103DD00006DA0121CDE9011015E0AAF10101E9E7B8
:103DE000002805DC049901440491AAEB000102E0DB
:103DF000411C514500DD8A460499401A401C01903F
:103E00004FF000400290200704D40198504501DB98
:103E1000CDF8048000208DF84F0002980DF14F0777
:103E2000B0F1004F25D02B200E9002984FF00208E1
:103E300000280CDA404202902D200E9007E00A2163
:103E40000298FCF772FA3031029007F8011DB8F1C0
:103E50000001A8F10108F2DC02980028EFD1791ED8
:103E60000E980870307800F0200040F0450007F808
:103E7000020D12A8C01B00F107081498007800B1C9
:103E8000012000EB0A01019801EBE0710598414423
:103E9000401A401E0590E00306D45B462146179A5F
:103EA000059800F05DF805441498007818B15A465A
:103EB000179990476D1CE00324D55B462146179A5D
:103EC000059800F04DF805441CE00498002807DB35
:103ED000DDE90301884203DD0098405C179901E0A9
:103EE000179930205A469047049805F10105401C67
:103EF00004900198401E019004D12E205A46179933
:103F000090476D1CBAF10001AAF1010ADDDC05E061
:103F100017F8010B5A46179990476D1CB8F100012C
:103F2000A8F10108F4DC5B462146179A0598ABE638
:103F30002D0000002B000000200000002DE9F041C2
:103F4000044600251E461746880404D405E0394679
:103F50002020B0476D1C641EF9D52846BDE8F081CD
:103F60002DE9F041044600251E469046C80301D5C0
:103F7000302700E02027880404D505E04146384674
:103F8000B0476D1C641EF9D52846BDE8F0814A682B
:103F9000002A06D00A68531C0B6010704868401E47
:103FA000486070477047000001480068406A7047E9
:103FB00098020020FCF732FFFEF7EDFFFEF7E0FB72
:103FC000FEF756FBFEF760FCFEF724FDFEF750FD02
:103FD000FEF77CFDFEF7C4FCFEF7EEFCFEF786FC68
:103FE0000E48FDF7F7FF0E48FDF7F4FF0D48006897
:103FF000016841F0200101600B480068016841F050
:104000002001016009480068016841F02001016059
:10401000FEF76CFB00F019F8FEE70000D802002064
:104020001803002058030020D0030020480400207B
:1040300001460020842900D0C81C704710B500B983
:10404000012000F051FC002010BD10B500F072FC02
:10405000002010BD10B500F0BDFD012803D0BDE863
:10406000104000F065BD10BD3EB504460D46B0F9E8
:104070000800FFF7DDFF02A9CDE90001208A2B46E9
:1040800082B2D4E9001000F069FD012801D00020BF
:104090003EBD02983EBD00002DE9F041184C0F4690
:1040A000054666692068001D00F062FB38B920688B
:1040B00090F82C1001208840A1698143A161681CFF
:1040C00007D137B12168BDE8F0410E48091D00F065
:1040D0008ABB20683544B5424560216805D2A06896
:1040E000BDE8F041091D00F066BB6068091D00F0E5
:1040F00062FB206B854200D22563BDE8F0810000A1
:10410000700000208C2F00202DE9F041054600F0C2
:1041100077FB2E4C2069401C206120682C4F10B189
:10412000E06940B32DE025602069012829D10026EF
:1041300006EB860007EB800000F02FFB761C072EB5
:10414000F6D323488C3000F028FB2148A03000F043
:1041500024FB1F48B43000F020FB1D48C83000F09D
:104160001CFB1B48DC3000F018FB19488C306060E9
:104170001430A06005E02068E96AC06A884200D86F
:104180002560E06A401CE062E96A0120A26988407B
:104190001043A06101EB810007EB8000291D00F0B6
:1041A00022FB00F04DFBE06900280CD02068E96A92
:1041B000C06A884207D207494FF080500860BFF3B9
:1041C0004F8FBFF36F8FBDE8F081000070000020BB
:1041D000B02E002004ED00E010B50446006B00F0A6
:1041E00043FB2046BDE8104000F03EBB10484FF4B2
:1041F0002051420706D0C01D0D4920F00700411A8A
:10420000C1F520510B4A00230144C2E900030839DB
:10421000103A21F0070111604B600B600B1AC0E9E6
:10422000001393604FF000405360D060704700006F
:10423000B00600205C000020154E164CA6F1C80701
:104240004FF08058DFF8509012E000BF00F0D8FA2D
:10425000F068C568281D00F08BFA2069401E2061B7
:10426000E068401EE06000F0EBFA2846FFF7B4FF7C
:10427000E0680028EAD13868012805D9C9F800802B
:10428000BFF34F8FBFF36F8F00F085FAF0E70000A8
:10429000782F00207000002004ED00E02DE9F047A9
:1042A0009A46DDE9098481466FF00303206B03EB36
:1042B00082021044089D20F00706700707D05020A6
:1042C00080F31188BFF34F8FBFF36F8FFEE7231882
:1042D0000A5C83F834200A5C12B1401C1028F6D323
:1042E000002784F84370072D00D30625E562C4E952
:1042F0001157201D00F05CFA04F1180000F058FA84
:104300002461C5F107006462A061E764276584F851
:10431000547052464946304600F0BEF82060B8F16D
:10432000000F01D0C8F80040BDE8F08730B5114952
:1043300000E011460A688242FBD34B685C18844255
:1043400003D1406818444860084643681C189442EA
:1043500009D1084C103C2468A24209D052681A4482
:1043600042600A6812680260814200D0086030BD75
:104370000460F9E75C00002006484168096829B13B
:104380004168C968C9684968016370474FF0FF31E7
:10439000FAE700007000002008484068401C4FF019
:1043A000500080F3118804D0BFF34F8FBFF36F8F9D
:1043B000FEE7BFF34F8FBFF36F8FFEE7640000206F
:1043C0002DE9F0410546002700F0EAFA314E306849
:1043D00008B9FFF70BFFF06805424BD1C5B30835AC
:1043E00068070ED005F00700C0F108000544680713
:1043F00007D0502080F31188BFF34F8FBFF36F8F2A
:10440000FEE72DB37068854234D82248103001464B
:104410000C6801E020460C466168A94202D221687E
:104420000029F7D131688C4224D0076821680160E7
:1044300060680837411B10290FD96019420708D05E
:10444000502080F31188BFF34F8FBFF36F8FFEE7CB
:1044500010E041606560FFF769FF61687068401AAD
:104460007060B268904200D2B060F06801430020F2
:10447000C4E9000100F020FC780707D0502080F349
:104480001188BFF34F8FBFF36F8FFEE73846BDE84B
:10449000F08100004C00002010B5031F4FF0807425
:1044A0001C601B1F21F001011960191F044B0B60D8
:1044B00014390A60091F6FF0020244380A6010BD07
:1044C0009943000870B5402813D2302911D20B4B04
:1044D000012401F007051E79AC40094BC90800EB27
:1044E00081100EB132B101E0012A03D0195CA14361
:1044F000195470BD195C2143FAE700001000002038
:10450000B400002010B5064A00214FF4C07328B152
:10451000FF245454491C9942F9D310BD0024F8E7F4
:10452000B400002070B50122324DD4022146284645
:10453000FCF760FC0A20FCF773FB002221462846AA
:10454000FCF758FC0A20FCF76BFB012221462846A9
:10455000FCF750FC0A20FCF763FBAE2000F0CCF81F
:10456000A82000F0C9F83F2000F0C6F8D32000F0E2
:10457000C3F8002000F0C0F8402000F0BDF8A020F3
:1045800000F0BAF8C02000F0B7F8DA2000F0B4F874
:10459000122000F0B1F8802000F0AEF88D2000F07D
:1045A000ABF8142000F0A8F8FF2000F0A5F82120B7
:1045B00000F0A2F8202000F09FF85F2000F09CF8A7
:1045C000202000F099F8002000F096F8002000F07C
:1045D00093F8AF2000F090F80020FFF793FF00F071
:1045E00013F80548002101804180012141710846EE
:1045F00070BD00000008004810000020014A108033
:1046000051807047100000202DE9F047154E01221F
:1046100040213046FCF7EEFB4FF400484FF0904944
:10462000002241464846FCF7E5FB0F4D00244FF4BD
:104630007A7700BF05EB84113B4640220B48FDF71B
:1046400045FB641CE4B2082CF4D300224021304620
:10465000FCF7D0FB41464846BDE8F0470122FCF795
:10466000C9BB000000080048B4000020340200204C
:104670002DE9FF4F82461F489346CFB202883A4445
:10468000402A06D281464088C1F3072630443028AC
:1046900003D3002004B0BDE8F08F002421E000BF68
:1046A000BAF1C00F02D3AAF1BF0001E0AAF12000C5
:1046B00010FB06403BF8108000250FE008FA05F0DB
:1046C00000040AD599F8021099F800002144284402
:1046D000C9B2C0B2039AFFF7F5FE6D1CAF42EDD828
:1046E000641CA642DCD8B9F8001050463944A9F839
:1046F0000010CFE710000020F1B5104C002240213F
:104700002046FCF777FB4FF400454FF0904600221F
:1047100029463046FCF76EFB4FF47A730122694656
:104720000748FDF7D3FA012240212046FCF762FB3F
:10473000012229463046FCF75DFBF8BD0008004821
:1047400034020020F0B51D460E46174604460AE026
:104750002B463A463146FFF78BFF2178884201D03D
:10476000C8B2F0BD641C20780028F1D1C0B2F0BD01
:10477000D0E9013201699A60D0E901235A604A68A0
:10478000824201D182684A60002202610868401EAC
:104790000860086870477047704700F108014FF0E3
:1047A000FF32C0E90112C160016100210160704760
:1047B00000210161704730B50B685A1C02D000F12E
:1047C000080202E0026904E02246546825689D421E
:1047D000FAD953684B6099608A605160086101683A
:1047E000491C016030BD42684A6093688B609368E1
:1047F0005960916008610168491C016070470000C0
:10480000502080F31188BFF34F8FBFF36F8F0A4999
:104810004868401C486001280CD10848006810F026
:10482000FF0F07D0502080F31188BFF34F8FBFF3E5
:104830006F8FFEE7704700006400002004ED00E089
:104840000849486828B1401E486001D180F31188AA
:104850007047502080F31188BFF34F8FBFF36F8FE5
:10486000FEE700006400002070B5002827D0144D3A
:10487000A0F108046168E868014207D1502080F384
:104880001188BFF34F8FBFF36F8FFEE722683AB1F5
:10489000502080F31188BFF34F8FBFF36F8FFEE777
:1048A0008143616000F07CF8606869680844686072
:1048B0002046FFF73BFDBDE8704000F0FDB970BD3C
:1048C0004C0000204FF0E02000210161816105498A
:1048D0004FF47A720968B1FBF2F1491E4161072178
:1048E000016170474800002010B5020014D00F4845
:1048F000806B38B1502080F31188BFF34F8FBFF326
:104900006F8FFEE700F04CF800211046FFF7C4FB64
:1049100000F0D2F9002807D105494FF08050086017
:10492000BFF34F8FBFF36F8F10BD000070000020EA
:1049300004ED00E01CB516480024CDE900402346F4
:10494000802214A1154800F009F9012809D0401C63
:104950001CD1502080F31188BFF34F8FBFF36F8FAE
:10496000FEE7502080F31188BFF34F8FBFF36F8FA6
:1049700007484FF0FF31343801630121C1614461C0
:10498000FFF710FBBDE81C4000F058B81CBD00004C
:10499000A400002049444C450000000039420008B2
:1049A0000248816B491C8163704700007000002041
:1049B00010B5204CA06B10B10120606210BD00202A
:1049C0006062FFF7F1FA2064E26B904204D921683B
:1049D000821ACB6C1A44CA64E063206821680068BC
:1049E000096B884204D8216820683431FFF7D4FE6F
:1049F000A0691149B0FA80F0C0F11F0000EB8000FF
:104A000051F820206AB101EB800000F108024168F2
:104A100049684160914201D149684160C86820609D
:104A200010BD502080F31188BFF34F8FBFF36F8FFD
:104A3000FEE7000070000020B02E00201CB53748B3
:104A40000168374A914207D1502080F31188BFF3A3
:104A50004F8FBFF36F8FFEE700683149491E8842D0
:104A600007D1502080F31188BFF34F8FBFF36F8FB2
:104A7000FEE72C4908780190FF20087008788DF82F
:104A800000009DF800009DF8002000F0F00090422A
:104A900007D0502080F31188BFF34F8FBFF36F8F83
:104AA000FEE79DF80000204B00F050001870072032
:104AB000986005E09DF8002052008DF80020401E0F
:104AC0009DF800201206F5D49860032807D05020E6
:104AD00080F31188BFF34F8FBFF36F8FFEE74FF462
:104AE00040709860019808700C482030016841F4CB
:104AF00070010160016841F070410160FFF7E2FE62
:104B000000205860FBF780FB0848016841F04041F5
:104B10000160FBF765FB00201CBD000000ED00E01C
:104B200071C20F4100E400E06400002034EF00E0B7
:104B300010B5502080F31188BFF34F8FBFF36F8FF4
:104B400000F056F818B104494FF08050086000207A
:104B500080F3118810BD000004ED00E02DE9FF5F37
:104B60008346DDE90E87994616468A469000FFF790
:104B700027FC05001AD05820FFF722FC040012D0B1
:104B800025630021CDE90241CDE900874B4632463D
:104B900051465846FFF782FB2046FFF7B5FA012041
:104BA00004B0BDE8F09F2846FFF75EFE4FF0FF30EF
:104BB000F6E700000648406B002807D1502080F33C
:104BC0001188BFF34F8FBFF36F8FFEE77047000070
:104BD000700000200548C16919B1806B18B1002030
:104BE00070470120704702207047000070000020CD
:104BF0002DE9F0412E4C0027A06B40B1206A401CEB
:104C00002062606A00B101273846BDE8F08166691C
:104C1000761C666113D16068006838B1502080F35B
:104C20001188BFF34F8FBFF36F8FFEE76068A168F5
:104C30006160A060A06A401CA062FFF79DFB206B32
:104C4000DFF87080864209D36068006880B16068D0
:104C5000C068C568686886420DD220632068C06A53
:104C600000EB800158F821000128CAD90127C8E7C4
:104C70004FF0FF30F1E7281DFFF77AFDA86A18B161
:104C800005F11800FFF774FDE86A0121A26981406F
:104C90001143A16100EB800108EB8100291DFFF7A2
:104CA000A2FDE86A2168C96A8842CDD30127CBE713
:104CB00070000020B02E00202DE9F0472C4D00247C
:104CC0002746A86B38B1FFF79BFDA86B401EA86371
:104CD000A86B40B146E0502080F31188BFF34F8F9E
:104CE000BFF36F8FFEE72969224E0120D1B3A6F1F1
:104CF000B40980463068E8B1F068C46804F118006F
:104D0000FFF736FD201DFFF733FDE06AAA6908FAB8
:104D100000F11143A96100EB800109EB8100211D25
:104D2000FFF761FDE06A2968C96A8842E2D3C5F8E5
:104D30002480DFE70CB1FFF71FFB2C6A44B1464625
:104D4000FFF756FF00B16E62641EF9D100202862A1
:104D5000686A38B10849012738070860BFF34F8FE8
:104D6000BFF36F8FFFF76CFD3846BDE8F08700009A
:104D700070000020642F002004ED00E0000000001F
:104D80000000000000000000000000000000000023
:104D900000000000000000000000000000100010F3
:104DA00000100010001000100000001000100000A3
:104DB0000000000000000000002800280028002853
:104DC00000000000000000000000000000000000E3
:104DD0000000001200120016007F0024002400FED4
:104DE000002800480048000000000000000000000B
:104DF0000008003E004900480038000E0009004944
:104E0000003E000800080000000000000060009064
:104E100000900062001C0066000900090006000006
:104E20000000000000000000001C002000200030F6
:104E30000049004D00450062003D000000000000F8
:104E40000000000000100010001000100000000022
:104E5000000000000000000000000000000C00083E
:104E600000080010001000100010001000100008D2
:104E700000080004000000000030001000100008CE
:104E800000080008000800080008001000100030AA
:104E9000000000000000000000080049003E001C67
:104EA000006B00080000000000000000000000008F
:104EB00000000000000000100010001000FE0010B4
:104EC00000100010000000000000000000000000C2
:104ED00000000000000000000000000000000018BA
:104EE000001800100020000000000000000000007A
:104EF000000000000000003800000000000000007A
:104F000000000000000000000000000000000000A1
:104F10000000000000000018001800000000000061
:104F2000000000000002000400040008000800184F
:104F300000100010002000200040000000000000D1
:104F4000001C0022004100410049004100410022B4
:104F5000001C0000000000000000000000380008F5
:104F6000000800080008000800080008003E0000D3
:104F70000000000000000000003E004300010001AE
:104F80000002000C00180020007F0000000000005C
:104F900000000000003E004100010003001C00036F
:104FA00000010043003E000000000000000000007F
:104FB0000006000A001A001200220042007F0002D0
:104FC000000200000000000000000000007E004021
:104FD0000040007C0003000100010043003C000091
:104FE0000000000000000000001E00210040005EE4
:104FF0000063004100410023001E0000000000008B
:1050000000000000007F000200020004000400080D
:105010000018001000200000000000000000000048
:10502000003E004100410041003E0041004100615E
:10503000003E00000000000000000000003C006294
:10504000004100410063003D00010042003C0000BF
:105050000000000000000000000000000018001820
:105060000000000000000018001800000000000010
:105070000000000000000000001800180000000000
:1050800000000018001800100020000000000000C0
:10509000000000000001000E00700070000E000112
:1050A0000000000000000000000000000000000000
:1050B0000000007F00000000007F000000000000F2
:1050C0000000000000000000000000000040003868
:1050D000000700070038004000000000000000004A
:1050E0000000000000380044000400080010001018
:1050F0000000001000100000000000000000000090
:10510000001E0033002100470049004900490047C4
:1051100000200030001E0000000000000008001405
:105120000014001400220022003E00630041000031
:105130000000000000000000007E0041004100412E
:10514000007E004100410041007E000000000000A0
:1051500000000000001E0021004000400040004010
:1051600000400021001E00000000000000000000C0
:10517000007C0042004100410041004100410042EA
:10518000007C00000000000000000000007F0040E4
:1051900000400040007F004000400040007F0000D1
:1051A0000000000000000000007F004000400040C0
:1051B000007F004000400040004000000000000070
:1051C00000000000001E002100400040004300419C
:1051D00000410021001E000000000000000000004F
:1051E0000041004100410041007F00410041004179
:1051F000004100000000000000000000007C0010E2
:10520000001000100010001000100010007C0000C2
:105210000000000000000000001C00040004000466
:1052200000040004000400440038000000000000F6
:105230000000000000420044004800500070004898
:105240000044004400420000000000000000000094
:10525000004000400040004000400040004000404E
:10526000007F0000000000000000000000630063F9
:105270000055005500550049004100410041000023
:1052800000000000000000000061006100510051BA
:1052900000490045004500430043000000000000B5
:1052A00000000000001C00220041004100410041BC
:1052B00000410022001C000000000000000000006F
:1052C000007E0043004100410043007E004000405A
:1052D000004000000000000000000000001C002250
:1052E000004100410041004100410022001E000633
:1052F0000002000000000000007E00430041004169
:10530000007E00420041004100400000000000001B
:1053100000000000003E006100400060003E00030D
:1053200000010043003E00000000000000000000FB
:1053300000FE0010001000100010001000100010FF
:1053400000100000000000000000000000410041CB
:10535000004100410041004100410041003E000089
:105360000000000000000000004100630022002255
:1053700000220014001400140008000000000000C7
:1053800000000000008100810081005A005A005A8C
:1053900000660066006600000000000000000000DB
:1053A000006300220014001C0008001400360022D4
:1053B00000410000000000000000000000820044E6
:1053C000002800280010001000100010001000003D
:1053D0000000000000000000007F00030006000441
:1053E0000008001000300060007F00000000000096
:1053F000001C001000100010001000100010001021
:10540000001000100010001C000000000000000050
:1054100000400020002000100010001800080008C4
:105420000004000400020000003800080008000822
:1054300000080008000800080008000800080038FC
:10544000000000000000000000100028004400C61A
:10545000000000000000000000000000000000004C
:10546000000000000000000000000000000000003C
:105470000000000000000000000000FF000000101D
:105480000008000000000000000000000000000014
:10549000000000000000000000000000000000000C
:1054A000001C00220002003E00420046003A0000BC
:1054B000000000000040004000400040007C00660A
:1054C0000042004200420066007C00000000000034
:1054D0000000000000000000001C0022004000400E
:1054E00000400022001C000000000000000200023A
:1054F00000020002003E00660042004200420066D8
:10550000003E00000000000000000000000000005D
:10551000003C00660042007E00400062003C00004B
:1055200000000000000C001000100010007C0010B3
:10553000001000100010001000100000000000001B
:105540000000000000000000003E00660042004233
:1055500000420066003A00020022001C00400040A9
:1055600000400040005C00620042004200420042F5
:1055700000420000000000000010000000000000D9
:10558000007000100010001000100010007C0000DF
:1055900000000000000800000000000000380008C3
:1055A0000008000800080008000800080008007053
:1055B000004000400040004000440048005000709F
:1055C000004800440042000000000000007000108D
:1055D000001000100010001000100010001000104B
:1055E000000E0000000000000000000000000000AD
:1055F000007F004900490049004900490049000076
:10560000000000000000000000000000005C0062DC
:105610000042004200420042004200000000000040
:105620000000000000000000003C00660042004254
:1056300000420066003C0000000000000000000086
:1056400000000000007C006600420042004200664C
:10565000007C00400040004000000000000000000E
:10566000003E00660042004200420066003A00022E
:10567000000200020000000000000000003C0032B8
:10568000002000200020002000200000000000007A
:105690000000000000000000003C00420040003C10
:1056A00000020042003C000000000000000000007A
:1056B00000100010007E00100010001000100010FC
:1056C000000E0000000000000000000000000000CC
:1056D000004200420042004200420046003A000000
:1056E0000000000000000000000000000042006612
:1056F00000240024003C00180018000000000000F6
:10570000000000000000000000810081005A005AE3
:10571000005A0024002400000000000000000000E7
:105720000000000000660024001800180018002483
:105730000066000000000000000000000000000003
:105740000042002200240024001400180008000871
:10575000001000300000000000000000007E000289
:105760000004001800200040007E0000000000003F
:10577000001C00100010001000100060001000104D
:10578000001000100010000C0000000000100010BD
:105790000010001000100010001000100010001089
:1057A0000010001000100000007000100010001029
:1057B0000010000C0010001000100010001000601D
:1057C00000000000000000000000000000000000D9
:1057D000003900460000000000000000000000004A
:1057E00000000000000000C000C000C000C000C0F9
:1057F00000C000C000000000000000000000000029
:105800000000000000000000000000000000000098
:105810000000000000000000000000000000000088
:10582000000800140014001400220022003E00634F
:105830000041000000000000000000000000007FA8
:1058400000400040007E0043004100410043007ED4
:10585000000000000000000000000000007E004189
:1058600000410041007E004100410041007E0000F7
:1058700000000000000000000000007F0040004029
:105880000040004000400040004000400000000098
:105890000000000000000000007C004400440044C0
:1058A000004400440044004400FE008200820000E6
:1058B000000000000000007F004000400040007F2A
:1058C000004000400040007F000000000000000099
:1058D000000000000092005400540038007C005486
:1058E0000054009200920000000000000000000040
:1058F0000000003E004100010003001C0003000105
:105900000043003E00000000000000000000000016
:10591000004300430045004D00490059005100611B
:1059200000610000000000000018000000000043BB
:1059300000430045004D00490059005100610061DD
:1059400000000000000000000000000000420044D1
:10595000004800500070004800440044004200002D
:1059600000000000000000000000003E00220022B5
:105970000022002200220022006200C2000000007B
:1059800000000000000000000063006300550055A7
:1059900000550049004100410041000000000000A6
:1059A0000000000000000041004100410041007F74
:1059B00000410041004100410000000000000000E3
:1059C00000000000001C0022004100410041004195
:1059D00000410022001C0000000000000000000048
:1059E0000000007F004100410041004100410041B2
:1059F0000041004100000000000000000000000025
:105A0000007E0043004100410043007E0040004012
:105A10000040000000000000000000000000001E28
:105A20000021004000400040004000400021001ED6
:105A300000000000000000000000000000FE001058
:105A400000100010001000100010001000100000E6
:105A500000000000000000000000004100220022C1
:105A600000120014000C00080008003000000000C4
:105A700000000000000000000010007C00D2009236
:105A80000092009200D6007C001000000000000090
:105A9000000000000000006300220014001C000849
:105AA0000014003600220041000000000000000049
:105AB000000000000042004200420042004200425A
:105AC00000420042007F00010001000000000000D1
:105AD00000000042004200420042003E000200027C
