:020000040800F2
:10000000A8340020810200088D2D00081F28000858
:10001000152D000807080008A93900080000000095
:10002000000000000000000000000000C101000806
:1000300087080008000000001D020008E7310008E2
:100040009B0200089B0200089B0200089B0200081C
:100050009B0200089B0200089B0200089B0200080C
:100060009B0200089B0200089B0200089B020008FC
:100070000908000815080008210800082D080008D4
:1000800039080008450800089B0200089B02000888
:100090009B0200089B0200089B0200089B020008CC
:1000A0009B020008CD3200089B0200089B0200085A
:1000B0009B0200089B0200089B0200089B020008AC
:1000C0009B0200089B0200089B0200089B0200089C
:1000D0009B02000885390008913900089D39000805
:1000E0009B0200089B0200089B0200089B0200087C
:1000F0009B0200089B0200089B0200089B0200086C
:100100009B0200089B0200089B0200089B0200085B
:100110009B0200089B020008D9320008E532000863
:100120009B0200089B0200089B0200089B0200083B
:100130009B0200089B0200089B0200089B0200082B
:100140009B0200089B0200089B0200089B0200081B
:100150009B0200089B0200089B0200089B0200080B
:100160009B0200089B0200089B0200089B020008FB
:100170009B0200089B0200089B0200080000000090
:100180009B0200089B0200089B0200089B020008DB
:100190009B0200089B0200089B0200089B020008CB
:1001A0009B0200089B0200089B020008DFF80CD0AD
:1001B00000F0A8FA00480047AD420008A83400202B
:1001C0002C4B19680868B0E8F04F80F30988BFF33A
:1001D0006F8F4FF0000080F311887047000000001F
:1001E00008480068006880F308884FF0000080F33A
:1001F000148862B661B6BFF34F8FBFF36F8F00DF15
:1002000000BF00BF08ED00E0DFF80C00016841F41A
:1002100070010160704700BF88ED00E0EFF30980D6
:10022000BFF36F8F134B1A681EF0100F08BF20ED3D
:10023000108A20E9F04F106009B44FF0500080F3AD
:100240001188BFF34F8FBFF36F8F04F02DFE4FF077
:10025000000080F3118809BC19680868B0E8F04F05
:100260001EF0100F08BFB0EC108A80F30988BFF3AE
:100270006F8F704778000020EFF305807047000013
:100280000648804706480047FEE7FEE7FEE7FEE730
:10029000FEE7FEE7FEE7FEE7FEE7FEE7893200083D
:1002A000AD0100082DE9F05F0546002092469B460F
:1002B00088460646814640241BE02846414647467C
:1002C000224600F057F853465A46C01A914110D3BF
:1002D00011461846224600F03EF82D1A67EB010839
:1002E0004F4622460120002100F035F817EB0009A7
:1002F0004E41201EA4F10104DFDC484631462A4667
:100300004346BDE8F09F40EA01039B0703D009E0A4
:1003100008C9121F08C0042AFAD203E011F8013BF1
:1003200000F8013B521EF9D2704730B50B4601462A
:1003300000202022012409E021FA02F59D4205D384
:1003400003FA02F5491B04FA02F52844151EA2F12E
:100350000102F1DC30BD202A04DB203A00FA02F170
:10036000002070479140C2F1200320FA03F31943A3
:1003700090407047202A04DB203A21FA02F0002145
:10038000704721FA02F3D040C2F1200291400843A5
:10039000194670472DE9FE4F804681EA0300C00FE1
:1003A0000C46009021F0004123F00045B8EB02001C
:1003B000A94105D24046214690461C460B460246BE
:1003C00023F00040104347D0270DC7F30A00C3F3C2
:1003D0000A510290401A019040286BDAC3F31300CF
:1003E00040F4801B0098924620B10023D2EB030A10
:1003F00063EB0B0B01985946C0F140025046FFF7E2
:10040000AAFF06460D4650465946019A00F08CF95F
:1004100010EB08006141002487EA115284EAE77377
:100420001A4340D0009A62B3019A012A4FEA075258
:1004300015DC001B61EB02014FF0004202EA07529B
:10044000CDE90042001C41F5801132462B4600F0F8
:100450008CF903B0BDE8F08F40462146F9E7001B58
:1004600061EB0201001C41F5801300185B4120186C
:10047000A2F5001747EB030140EAD570B6196D41AC
:1004800011E06D084FEA360645EAC0754FEA07529B
:10049000001B61EB0201001C41F5801149084FEA85
:1004A00030000019514132462B4603B0BDE8F04FF1
:1004B00000F04CB90098012240000023D0EB02026A
:1004C00063EBE073009821464FEAE074B8EB00005C
:1004D00061EB0401E9E783F000435BE781F0004151
:1004E00058E72DE9FE4F81EA030404F0004421F0AF
:1004F000004100944FF0000B23F0004350EA010448
:100500005ED052EA03045BD0C3F30A54C1F30A5528
:100510002C44A4F2F3340194A0FB0254C1F3130160
:1005200041F48011C3F3130343F4801301FB02442D
:1005300000FB034E840A970A44EA815447EA835732
:10054000A4FB076802958D0A05FB07854FEA932CEB
:1005500004FB0C542705029D4FEA065847EA16375C
:10056000B5EB08056EEB070C870E920E47EA811774
:1005700042EA8312A7FB0201B6EB0B0164EB000415
:100580002B0D43EA0C335E1844EB1C50DA465146FF
:10059000E7FB0201C5F313044FEA0B3343EA14539C
:1005A0004FEA0432019C43EA0603A4F10C040294CE
:1005B000009CCDE900B400F0D8F803B0BDE8F08F9E
:1005C00000200146F9E72DE9F04D81EA030404F02B
:1005D000004B21F0004514464FF0000A23F0004183
:1005E00050EA050220D054EA01021DD0C5F30A5793
:1005F0000246C5F31303C1F31300C1F30A5640F4D6
:10060000801543F48013A7EB0608101BD64608F2AA
:10061000FD3873EB050002D308F1010801E09218E0
:100620005B41B8F1000F03DA00200146BDE8F08D10
:1006300000204FF48011064684460EE0171B73EB32
:10064000050705D3121B63EB050306434CEA010CB7
:1006500049084FEA300092185B4150EA0107EDD19A
:1006600052EA030012D082EA040083EA050108433B
:1006700005D0101BAB4106D20122002306E0002268
:100680004FF0004302E06FF0010253101AEB060036
:100690004CEB085110EB0A0041EB0B01BDE8F04DAB
:1006A00000F054B8C1F30A52C1F3130140F2FF3312
:1006B00041F480119A4202DA00200146704740F26C
:1006C00033439A42A2F2334202DC5242FFF752BE57
:1006D000FFF741BE30B5041E71F1000404DB4FF09A
:1006E0000044404264EB0101141E73F1000405DB79
:1006F0001C464FF00043524263EB0403994208BF8B
:10070000904230BD064C074D06E0E06840F0010322
:1007100094E8070098471034AC42F6D3FFF74AFD3F
:10072000586B0008786B0008202A06DBCB17203AAC
:1007300041FA02F043EAE07306E041FA02F3D040E6
:10074000C2F12002914008431946704710B5141EAB
:1007500073F1000408DA401C41F1000192185B417A
:100760001A4301D120F0010010BD2DE9F04D924651
:100770009B4611B1B1FA81F202E0B0FA80F2203268
:100780009046FFF7E8FD04460F4640EA0A0041EABA
:100790000B0153465A46084313D0114653EA010051
:1007A00019D0C8F140025046FFF7E4FD05460E4659
:1007B000504659464246FFF7CEFD084305D001207A
:1007C00004E020463946BDE8F08D0020054346EAA6
:1007D000E0762C4337430A986305E40AA0EB08004F
:1007E0000022FD0A44EA47540A3002D5002001469F
:1007F000E9E7010510196941DDE90845001969417A
:10080000BDE8F04DA2E7FEE7014800F07EB9000028
:1008100030070020014800F078B90000E806002009
:10082000014800F072B9000010060020014800F0F5
:100830006CB90000C8050020014800F066B900004E
:1008400058060020014800F060B90000A006002012
:1008500030B590F8444004F01C050124AC40056C10
:100860006C60046863608368102B036803D0996030
:100870000068C26030BD9A600068C16030BD012070
:1008800003F058FDFBE7704792B0012211035C486A
:1008900000F01AFB04F048F85A4E5B4C5B4D207890
:1008A000012818D1002004F02FF80021084604F098
:1008B000A7F8D5E90012012355A004F045F90F214E
:1008C000002004F09DF8D6E90012012352A004F0A4
:1008D0003BF904F09BF82078617808432CD104F0B0
:1008E00013F80021084604F08BF8D5E90012012323
:1008F0004AA004F029F9D6E90012012349A004F026
:1009000023F90F21002004F07BF8D5E90012012320
:1009100045A004F019F99FED450B46A28DED000BA3
:10092000402102A803F042F8D6E90012012302A8F0
:1009300004F00AF904F06AF86078012818D1002060
:1009400003F0E2FF0021084604F05AF8D6E900124D
:1009500001233AA004F0F8F80F21002004F050F829
:10096000D5E90012012337A004F0EEF804F04EF8A8
:10097000607802282ED1002003F0C6FF002108462F
:1009800004F03EF8D5E90012012330A004F0DCF8B1
:10099000D6E90012012323A004F0D6F80F2100208D
:1009A00004F02EF8D5E9001201232AA004F0CCF8B7
:1009B0001E21002004F024F8D5E90012012327A00D
:1009C00004F0C2F8D6E90012012325A004F0BCF817
:1009D00004F01CF8607803280ED1002003F094FF87
:1009E0000F21002004F00CF8D5E9001201231DA00E
:1009F00004F0AAF804F00AF8642003F09BFC4EE728
:100A0000000400480800002018000020000000201A
:100A1000CEF8E8E1EAE0000043524300C7E0E3F02B
:100A2000F3E700002D000000F7E8EA00666666665E
:100A30006666104020252E3031660000464C41533A
:100A400048000000EEF7E8F9E5EDE000CEE1EDEE5C
:100A5000E2000000EBE5EDE8E5000000CFCE00008D
:100A60002E2E2E00D3D1CFC5D8CDCE0010B5044642
:100A700004F02AFD014614B103F012FC2060C86C9A
:100A800010BDC8B101680A6822F00E020A60016850
:100A90000A6822F001020A6090F84410036C01F029
:100AA0001C02012101FA02F25A6080F8251000218F
:100AB00080F82410084670470120704710B590F860
:100AC00025100024022903D00421C16301241AE067
:100AD00001680A6822F00E020A6001680A6822F0C2
:100AE00001020A6090F84410036C01F01C0201211D
:100AF00001FA02F25A6080F82510002180F82410D3
:100B0000816B01B18847204610BDF0B4016C0C68C0
:100B100001680D6890F8442002F01C06042202FAD5
:100B200006F3234211D06B070FD50B689B0603D445
:100B30000B6823F004030B6090F8441001F01C01D3
:100B40008A40016C4A60016B1DE0022303FA06F73C
:100B500027424FF0000C4FF0010218D0AF0716D516
:100B60000C68A40605D40C6824F00A040C6080F814
:100B7000252090F8441001F01C018B40016C4B6063
:100B800080F824C0C16A00291AD0F0BC08470823A5
:100B9000B340234214D02B0712D50B6823F00E0369
:100BA0000B6090F84410036C01F01C0102FA01F193
:100BB0005960C26380F8252080F824C0416BE2E7C9
:100BC000F0BC704770B568B12B4C036814212B4AF8
:100BD000A34209D22A4C1C44B4FBF1F18900C0E9BC
:100BE00010210BE0012070BD234C64421C44B4FB77
:100BF000F1F189004164204908390164022180F83B
:100C000025101C6847F6F0718C43D0E90215294382
:100C1000D0E904563543294385692943C5692943E9
:100C2000056A2943214319608168B1F5804F19D0C5
:100C3000036C0F21934202D152F8A83F02E00E4A02
:100C4000A032136890F8444004F01C04A1408B4388
:100C5000136090F84430416803F01C039940136816
:100C6000194311600021C163012280F8252080F81A
:100C70002410084670BD0000080402400000024035
:100C8000F8FFFDBF70B5044690F824000025012848
:100C90000CD0012084F8240094F825600020012E57
:100CA00006D084F824000225284670BD022070BDBD
:100CB000022684F82560E0632068066826F00106B5
:100CC00006602046FFF7C4FD206B002820680168FD
:100CD00002D041F00E0106E021F00401016020681D
:100CE000016841F00A0101602068016841F00101DA
:100CF0000160D9E770B5044600F0ECF80546601CC9
:100D000000D0641C00F0E6F8401BA042FAD370BD8E
:100D10002DE9F84FDFF888B100234FF0010C4FF0B8
:100D2000030A4FF00F090BF1040EB1E00CFA03F6C1
:100D300032406FD04C68022C01D0122C11D1DC084B
:100D400000EB84073C6A5D07ED0E09FA05F824EA1A
:100D50000804D1F8108008FA05F848EA0408C7F832
:100D6000208007685D0091F804800AFA05F408F015
:100D70000308A74308FA05F848EA0708C0F8008006
:100D80004F68012F05D0022F03D0112F01D0122F51
:100D900010D1D0F80880CF6828EA0408AF4047EAAD
:100DA000080787604768B7430E79C6F300169E4070
:100DB0003E434660C668A6438C68AC403443C4607A
:100DC0004C68E40063D5374C256E45F00105256677
:100DD000246E23F0030504F001040094324C2F1913
:100DE000BD689C07260F09FA06F4A543B0F1904FA1
:100DF00004D02E4CA04203D1012421E000241FE0A6
:100E00002B4CA04201D102241AE02A4CA04202D16C
:100E1000032415E03BE0284CA04201D104240FE05C
:100E2000264CA04201D105240AE0254CA04201D164
:100E3000062405E0234CA04201D1072400E0082449
:100E4000B4402C43BC60DBF800405D464E689443E0
:100E5000F60300D514432C60DEF8004075464E685A
:100E60009443B60300D514432C600D4D08352C680F
:100E70004E689443F60200D514432C60084D0C359F
:100E80002C684E689443B60200D514432C605B1C5A
:100E90000A6832FA03F47FF449AFBDE8F88F000026
:100EA000000401400010024000000140000400481E
:100EB00000080048000C00480010004800140048DA
:100EC00000180048001C00480AB181617047816227
:100ED0007047000001480068704700004C00002087
:100EE00002480168491C0160704700004C00002066
:100EF00010B50024032000F0B1F8002000F008F83D
:100F000008B1012401E000F03DF8204610BD0000CA
:100F100000B5014687B00022192000F07FF81920A3
:100F200000F070F81348016E41F400610166006E34
:100F300005A900F400600690684600F04BFB00F045
:100F400081FB0D490D4AB0FBF1F10D48491E0260CD
:100F5000416040F2E7320021C0E90321816001F0E5
:100F600031F810B1012007B000BD054801F09CF830
:100F7000F9E700000010024040420F00002C014041
:100F8000780700201E4808B5016E41F00101016696
:100F9000016E01F001010091816D41F08051816588
:100FA000806D00F080500090032000F057F8002280
:100FB00011466FF00B0000F031F8002211466FF07F
:100FC0000A0000F02BF8002211466FF0090000F033
:100FD00025F800221146501F00F020F8002211468B
:100FE000101F00F01BF800220F21901E00F016F8D1
:100FF00000220F21BDE80840501E00F00FB800008D
:101000000010024000F01F020121914040098000C1
:1010100000F1E020C0F8001170470000F0B40E4B62
:101020001B680C46C3F30223C3F10705042D00D946
:101030000425191D072901D2002300E0DB1E01262B
:1010400006FA05F1491E214099409E40761E164041
:101050003143F0BC01F09BBE0CED00E0064900F00E
:10106000070208684FF6FF03184040EA0220034ACF
:1010700010430860704700000CED00E00000FA0526
:101080001649B0F5007F0868C0F3412009D0022856
:1010900005D0086820F4C06040F48060086000203B
:1010A00070470128FBD0086820F4C06040F400704D
:1010B00008600B483222006850430A4AB0FBF2F045
:1010C000401C00E0401E4A69520501D50028F9D1B4
:1010D00048694005E3D503207047000000700040D8
:1010E0005000002040420F000248006800F4C06039
:1010F00070470000007000402DE9F84F04460027BB
:101100000088EC4D3E46010504F1200B1DD5A06E74
:1011100078B1B0F5800F11D0B0F5000F04D0B0F564
:10112000400F22D001270FE0E86840F48030E860EB
:101130001BE00021201D01F03BFE03E0002158468A
:1011400001F0CCFE070010D03E462088C00426D512
:10115000E06EC0B1B0F1807F1AD0B0F1007F0DD049
:10116000B0F1407F19D0012718E0D5F88800A16EB2
:1011700020F440000843C5F88800E6E7E86840F43A
:101180008030E86009E00021201D01F011FE03E03D
:101190000021584601F0A2FE0746F7B13E462068FE
:1011A00080033AD5A86D4FF00008C00009D4A86D9F
:1011B00040F08050A865A86D4FF0010800F0805005
:1011C0000090DFF8F4A2DAF8001041F48071CAF858
:1011D0000010FFF77FFE814610E0D5F88800E16E31
:1011E00020F040700843C5F88800D8E7FFF772FE8A
:1011F000A0EB0900022801D9032705E0DAF8000076
:10120000C005F3D5002F7CD04FEA0706B8F1000FD8
:1012100003D0A86D20F08050A8652078C00707D0C3
:10122000D5F88800A16B20F003000843C5F88800BA
:101230002078800707D5D5F88800E16B20F00C00F6
:101240000843C5F888002078400707D5D5F88800FE
:10125000216C20F030000843C5F888002078000792
:1012600007D5D5F88800616C20F0C0000843C5F8A8
:1012700088002078C00607D5D5F88800A16C20F436
:1012800040700843C5F888002078800607D5D5F857
:101290008800E16C20F440600843C5F8880020888D
:1012A000800507D5D5F88800216E20F4402008433A
:1012B000C5F888002088400507D5D5F88800616EFC
:1012C00020F440100843C5F888002078400607D570
:1012D000D5F88800216D20F440500843C5F88800F7
:1012E0002078000607D5D5F88800616D20F44040CD
:1012F0000843C5F888002088C00509D5D5F88800BE
:1013000000E027E0A16D20F440300843C5F88800D4
:101310002068C00207D5D5F89C00E16D20F00300DD
:101320000843C5F89C0020884FF0006780044FF008
:10133000806850D5D5F88800216F20F040600843C0
:10134000C5F88800206FB8423DD1E86840F48010AD
:10135000E86040E0D5F8900010F4407015D0D4F863
:101360008810814211D0D5F89000D5F8901020F463
:10137000407041F48031C5F89010D5F8901021F4F8
:101380008031C5F89010C5F89000C00711D0FFF764
:10139000A1FD074641F2883907E000BFFFF79AFD3B
:1013A000C11B494501D9032630E7D5F890008007D5
:1013B000F4D5D5F89000D4F8881020F44070084394
:1013C000C5F8900022E7404505D10121201D01F01C
:1013D000EFFC00B106462068000317D5D5F8880059
:1013E000616F20F040600843C5F88800606FB84224
:1013F00004D1E86840F48010E86007E0404505D17A
:101400000121201D01F0D4FC00B1064620684003F4
:1014100017D5D5F88800A16F20F040600843C5F8C3
:101420008800A06FB84204D1E86840F48010E860FA
:1014300007E0404505D10121201D01F0B9FC00B1B4
:101440000646208840041AD5D5F88800E16F20F0C0
:1014500040500843C5F88800E06FB0F1805F03D0CA
:10146000B0F1005F05D00AE00221201D01F0A0FCD0
:1014700003E00221584601F031FD00B10646208804
:10148000000408D5D5F88800D4F8801020F08040FA
:101490000843C5F888002068C00307D555F8880FB1
:1014A000D4F8841020F00040084328603046BDE89E
:1014B000F88F000000100240007000402DE9F04756
:1014C0000F46050058D03F4E306800F00700B84284
:1014D00009D2306820F0070038433060306800F0EF
:1014E0000700B84248D12878374CC0072CD068682C
:1014F000032811D0022812D0216898B1490500298B
:101500003ADAA16821F003010143A160FFF7E2FC90
:10151000804641F2883910E021688901EFE72168AF
:101520008903ECE78907EAE7FFF7D4FCA0EB0801A1
:10153000494502D90320BDE8F087A068696800F03A
:101540000C00B0EB810FEFD12878800705D5A0689B
:10155000A96820F0F0000843A060306800F00700A0
:10156000B8420BD9306820F007003843306030684B
:1015700000F00700B84201D00120DCE728784007DE
:1015800005D5A068E96820F4E0600843A0602878E9
:10159000000706D5A068296920F4605040EAC10020
:1015A000A06000F061F8A168084AC1F30311515C22
:1015B00001F01F01C84006490860BDE8F04700205F
:1015C000FFF7A6BC0020024000100240C86A0008D5
:1015D000500000200F2202600C4A936803F00303BE
:1015E0004360936803F0F0038360936803F4E0635F
:1015F000C36092684FF4E06303EAD20202610448D8
:10160000006800F00700086070470000001002400A
:101610000020024001480068704700005000002090
:101620000548064900688968054AC1F30221515CF2
:1016300001F01F01C8407047500000200010024018
:10164000086B00080548064900688968054AC1F327
:10165000C221515C01F01F01C840704750000020BA
:1016600000100240086B000870B525490023184699
:101670008A68CC6812F00C0204F00306214C4FF487
:10168000610509D00C2A05D0042A26D0082A00D1E9
:10169000284670BD012E10D10B681B0704D4D1F869
:1016A0009430C3F3032302E00B68C3F30313164E15
:1016B00056F823307AB10C2AEBD1C86800F0030247
:1016C000C868C0F30210401C022A08D0032A09D0BF
:1016D000B3FBF0F008E0184670BD204670BDB4FBC7
:1016E000F0F001E0B5FBF0F0CA68C968C2F3062269
:1016F0005043C1F34161491C4900B0FBF1F070BD9A
:10170000001002400024F400D86A000870B5104CA4
:1017100086B01646E06C0D4640F00100E064E06CD7
:10172000694600F001000590A0150090022001908C
:1017300003900020029004904FF09040FFF7E8FAE9
:10174000A068354320F0FE402843A06006B070BD7D
:10175000001002402DE9F84305007CD0F84CA06849
:1017600000F00C06E06800F003072878C00662D598
:1017700076B10C2E01D1012F0AD0A869002820686B
:1017800078D040F001002060FFF7A4FB804659E0CC
:101790002068800702D5A8690028DED0296A206861
:1017A000000703D5206800F0F00004E0D4F89400AE
:1017B000F02202EA1010814216D9084601F012FC0C
:1017C000002848D1206840F0080020602068296A7D
:1017D00020F0F000084320606068E96920F47F4051
:1017E00040EA0120606015E0206840F008002060B9
:1017F0002068296A20F0F000084320606068E969E9
:1018000020F47F4040EA01206060286A01F0EAFB92
:101810000028D6D1FFF728FFA168CA4AC1F30311F7
:10182000515C01F01F01C840C74908600020FFF764
:101830006FFB00287ED12EE0FFF74CFBA0EB0800E9
:10184000022878D820688007F6D5206840F0080084
:101850002060206801E0BBE00CE0296A20F0F00085
:10186000084320606068E96920F47F4040EA012075
:10187000606010E020F001002060FFF72BFB804645
:1018800006E000BFFFF726FBA0EB08000228D8D82F
:1018900020688007F6D42878C00740D0082E18D0DA
:1018A0000C2E01D1032F14D06868B0F5803F17D0FB
:1018B000B0F5A02F206817D020F480302060206879
:1018C00020F4802020606868E0B1FFF703FB8046C9
:1018D00014E02068800322D56868002878D01EE0D4
:1018E000206840F48030EDE740F480202060F7E786
:1018F000FFF7F0FAA0EB08006428A2D82068800364
:10190000F6D50CE0FFF7E6FA804605E0FFF7E2FACD
:10191000A0EB0800642894D820688003F6D42878C7
:1019200080073BD5042E11D00C2E01D1022F0DD0F3
:10193000E86801E05EE1B8E0002820681ED040F4CD
:1019400080702060FFF7C6FA07460CE0206840056B
:101950000CD5E8680028C1D008E000BFFFF7BAFA4C
:10196000C01B022893D820684005F7D56068297C01
:1019700020F0FE4040EA016060600FE020F48070DB
:101980002060FFF7A7FA074605E000BFFFF7A2FABD
:10199000C01B0228B1D820684005F7D4287800077A
:1019A00029D568690028D4F8940012D040F00100CD
:1019B000C4F89400FFF78EFA074604E0FFF78AFAAE
:1019C000C01B022871D8D4F894008007F6D512E025
:1019D00017E120F00100C4F89400FFF77BFA0746F6
:1019E00005E000BFFFF776FAC01B02285DD8D4F8E7
:1019F00094008007F6D42878400766D5A06D0027AC
:101A0000C00008D4A06D40F08050A065A06D0127F3
:101A100000F0805000904D480168C90512D401685B
:101A2000814641F480710160FFF754FA804605E079
:101A3000FFF750FAA0EB0800022836D8D9F80000CA
:101A4000C005F5D5A868012816D00528D4F890005F
:101A500017D020F00100C4F89000D4F8900020F0D6
:101A6000040000BFC4F89000A86841F28839C0B1F2
:101A7000FFF730FA80460FE0D4F8900040F0010004
:101A8000F0E740F00400C4F89000F5E7FFF722FA11
:101A9000A0EB0801494508D8D4F890008007F5D597
:101AA0000EE0FFF717FA804606E07CE0FFF712FA37
:101AB000A0EB0801494576D8D4F890008007F5D40A
:101AC0001FB1A06D20F08050A0652878800628D531
:101AD000686A0028D4F8980012D040F00100C4F8D9
:101AE0009800FFF7F7F9074605E000BFFFF7F2F9A6
:101AF000C01B02287DD8D4F898008007F6D510E0E6
:101B000020F00100C4F89800FFF7E4F9074604E06C
:101B1000FFF7E0F9C01B02286BD8D4F898008007C3
:101B2000F6D4A86AF0B30C2E6BD00228206820F0FF
:101B3000807020600CD0206810F0205F47D04AE011
:101B400000100240C86A00085000002000700040E9
:101B5000FFF7C0F9064604E0FFF7BCF9801B022836
:101B600047D820688001F7D4286B55F82C1F000156
:101B700010380843298A244A490802EB4151AA68CF
:101B800041EA02210843297D4FF07E42490802EBD9
:101B900041610843297B40EAC160E060206840F071
:101BA000807001E02BE024E02060E06840F080706D
:101BB000E060FFF78FF9054605E000BFFFF78AF9FF
:101BC000401B022815D820688001F7D517E0E0688F
:101BD00020F00300E060E0680C490840E060FFF797
:101BE00079F9054608E000BFFFF774F9401B0228A9
:101BF00002D90320BDE8F88320688001F4D40020D6
:101C0000F8E70120F6E700000000E0FFFFFFEEFE2E
:101C10002DE9F0411D4616460F46040003D094F806
:101C2000710018B108E00120BDE8F081002084F8BF
:101C30007000204600F066FC242084F871002068C3
:101C4000016821F001010160204601F019FD012821
:101C5000EAD0606A10B1204601F014FC2068816867
:101C600041F4804181602068816821F4004139435A
:101C70008160700540EA054120680268064B1A4001
:101C80000A4302602068016841F0010101602046BA
:101C9000BDE8F04101F05ABCFFFF00FC2DE9F04126
:101CA000040005D00025A56294F85D0018B107E096
:101CB0000120BDE8F08184F85C50204600F044F833
:101CC000022384F85D302068016821F04001016042
:101CD000E0684FF4E066B04201D9002101E04FF422
:101CE0008051B0F5706F02D0B04200D0A562276B72
:101CF000012227B9B04201D9236300E02263D4E96D
:101D000001031843D4E9043633431843238B03F407
:101D100000731843E3691843236A1843A36A1843FE
:101D200023681860636B606AA66918430427E36838
:101D300007EA16463343184308432168486025667E
:101D400084F85D200020B4E7F0B50068104987B042
:101D500088421BD10F48816D41F400418165806D3F
:101D6000022400F4004005904FF480600025032613
:101D700006278DE8F10069460748FEF7C9FF2020D5
:101D80008DE8F10069460548FEF7C2FF07B0F0BDD7
:101D9000003C0040001002400008004800040048D9
:101DA0002DE9F84F044690F85C0000271D461646C2
:101DB000894601280DD04FF0010B84F85CB0FFF785
:101DC00089F8804694F85D00BA46012804D00227BD
:101DD0009FE00220BDE8F88FB9F1000F6FD0002E10
:101DE0006DD0032084F85D00C4F860A0C4F838907A
:101DF000A687E687C4F840A0A4F844A0A4F846A0AB
:101E0000C4F850A0C4F84CA0A068B0F5004F04D1AD
:101E10002068016841F4804101602068016849063A
:101E200003D4016841F040010160E068B0F5E06F63
:101E3000606823D908B1012E1CD1A06B21680088ED
:101E4000C86006E020688168890709D5A16B098808
:101E5000C160A06B801CA063E08F401EE08709E09A
:101E6000FFF738F8A0EB0800A84202D3681C01D0A5
:101E700046E0ADB3E08F0028E4D136E008B1012E92
:101E800030D1E08F0128A06B03D921680088C86099
:101E90000FE021680078087314E0E08722E02068F2
:101EA0008168890714D5E18F0129A16B08D90988B8
:101EB000C160A06B801CA063E08F801EEDE727E06F
:101EC00009780173A06B401CA063E08F401EE4E71B
:101ED000FFF700F8A0EB0800A84202D3681C01D06D
:101EE0000EE06DB1E08F0028D9D142462946204648
:101EF00001F0B6F808B120202066A06810B105E016
:101F0000032706E02068C16880680090206E00B159
:101F1000012784F85DB084F85CA038465AE74FF09A
:101F2000E0210428086903D020F00400086170470C
:101F300040F00400FAE710B5401EB0F1807F01D3F5
:101F4000012010BD4FF0E02460610F21601700F008
:101F50001EFF0020A06107202061002010BD7047F7
:101F60007047704770B590F83C20012A24D00124B6
:101F700080F83C40022280F83D2002685368956852
:101F80000E4EB24202D00E4EB24203D123F470067E
:101F90004B68334323F070060B688968334325F0A0
:101FA0008005294353600268916080F83D4000211C
:101FB00080F83C10084670BD022070BD002C014026
:101FC0000034014010B5040003D094F83D0010B176
:101FD00007E0012010BD002084F83C00204600F0FE
:101FE0000DF8022084F83D00211D206801F080F9E1
:101FF000012084F83D00002010BD000008B50168F4
:102000001948B1F1804F11D0184A914217D1816D12
:1020100041F010018165806D002200F010000090F9
:1020200005213620FEF7FAFF362019E0816D41F0D8
:1020300001018165806D00F00100009008BD0C4A2F
:102040009142FBD1816D41F020018165806D0022BC
:1020500000F02000009005213720FEF7DFFF372039
:10206000BDE80840FEF7CEBF00100240001000405F
:1020700000140040022180F83D1001688B68094A75
:102080001340062B08D08B681340B3F5803F03D074
:102090000A6842F001020A60012180F83D10002028
:1020A00070470000070001000168CA6842F00102A1
:1020B000CA600068826807490A40062A08D0826818
:1020C0000A40B2F5803F03D0016841F00101016090
:1020D000002070470700010070B5044690F83C00EE
:1020E000012817D0012584F83C50022084F83D00D7
:1020F00020688268324E324022F47F428260086853
:10210000502839D00DDC202855D005DC98B3102894
:1021100043D150E0022070BD30284CD040283CD143
:1021200041E0602830D070280CD0B0F5805F03D03B
:10213000B0F5005F31D112E020688168204A70322A
:10214000114016E0CB68D1E90121206801F030F997
:1021500021688868304040F0770088601DE0CB68D7
:10216000D1E90121206801F023F92068816841F458
:102170008041816011E01EE0CA684968206801F072
:1021800029F95021206806E0CA684968206801F0F2
:1021900032F96021206801F015F984F83D500020E3
:1021A00084F83C0070BDCA684968206801F012F9E3
:1021B00040212068EFE7226801461046EBE7000067
:1021C00088FFFEFF704770B50446006801694FF054
:1021D0000005C943890715D4C168C943890711D4CB
:1021E000E91E016101202077206880698007204670
:1021F00002D0FFF7E7FF04E000F0A7F8204600F068
:10220000A5F8257720680169C943490717D4C16833
:10221000C943490713D46FF00401016102202077FC
:102220002068806910F4407F204602D0FFF7CAFF83
:1022300004E000F08AF8204600F088F8257720684E
:102240000169C943090716D4C168C943090712D4F3
:102250006FF008010161042020772068C0698007C1
:10226000204602D0FFF7AEFF04E000F06EF82046F3
:1022700000F06CF8257720680169C943C90617D4B6
:10228000C168C943C90613D46FF010010161082069
:1022900020772068C06910F4407F204602D0FFF705
:1022A00091FF04E000F051F8204600F04FF8257748
:1022B00020680169C943C90708D1C168C943C90772
:1022C00004D1891E0161204600F042F820680169AE
:1022D000C943090609D4C168C943090605D46FF08A
:1022E000800101612046FFF73BFE20680169C94378
:1022F000C90509D4C168C943090605D46FF48071C2
:1023000001612046FFF72BFE20680169C943490699
:1023100009D4C168C943490605D46FF04001016181
:10232000204600F01FF820680169C94389060BD4D4
:10233000C168C943890607D46FF0200101612046B6
:10234000BDE87040FFF70DBE70BD704770470000DC
:1023500000680349884201D1FEF7C2BD7047000002
:10236000002C01407047704710B5044690F871008A
:1023700021280ED12068816809060AD5816821F0DC
:1023800080018160A06E08B1FEF77BFB204601F062
:102390006EF994F8720022280ED1206881684906EF
:1023A0000AD5816821F040018160E06E08B1FEF736
:1023B00068FB204601F04BF9002010BD704700007B
:1023C0002DE9F04102680446D0691168936810F065
:1023D0000F0F4FF000055BD003F0010601F490777A
:1023E000374369D0C70707D0CF0505D50127176246
:1023F000626F42F001026267820708D5DA0706D0F1
:10240000276802223A62626F42F004026267420762
:1024100008D5DA0706D0236804221A62626F42F0F8
:102420000202626702070AD501F02002324306D099
:10243000236808221A62626F42F008026267626FC4
:10244000002A32D0800605D5880603D5216E09B151
:1024500020468847606F000703D4206880684006E4
:1024600025D5204601F0F3F820688168490619D582
:10247000816821F040018160E06E98B1204981635C
:10248000E06EFEF71BFB00280FD0E06E816B06E0CC
:10249000860611D58E060FD5216E1EE02046BDE8BA
:1024A000F04108472046FFF789FFBDE8F08120464C
:1024B000FFF784FF6567F8E7C60209D55B0207D519
:1024C0004FF4801010622046BDE8F041FFF74BBF8B
:1024D000030605D50B0603D5616E0029DED1E4E7BE
:1024E0004006E2D54806E0D51168204621F04001BB
:1024F0001160202184F87110656600F08FF9D4E72F
:10250000A93500082DE9F0470546DFF84882D0F8E4
:1025100000C0914B0320072100240226802786B0AB
:102520004FF090424FF01009C44553D1D3F860C02A
:102530004CF4804CC3F860C01B6E029403F48043DB
:102540000593CDE903014FF4B053CDE90036A04621
:1025500069461046FEF7DCFBDFF804A27F495046CF
:10256000CAF80010C0E90164C0E90347CAF8144082
:10257000CAF81840CAF81C40CAF82040FEF722FBEF
:1025800018B1AE2177A001F010FA754C7348C5F868
:102590006CA048341438CAF8285084E84102C4E9D1
:1025A0000387C4F81480C4F81880C4F81C8020463F
:1025B000C4F82080FEF706FB18B1BF2169A001F026
:1025C000F4F9AC66002205212520A562FEF726FD60
:1025D000252054E0DFF89C81C44555D1D3F858C07C
:1025E0004CF4003CC3F858C09B6D029403F40033D4
:1025F0000593CDE903010E23CDE90036B0466946C7
:102600001046FEF785FBDFF858A154490AF1900AFD
:1026100014315046CAF80010C0E90164C0E903470C
:10262000CAF81440CAF81840CAF81C40CAF820403A
:10263000FEF7C8FA18B1EC214AA001F0B6F9484EED
:10264000C5F86CA0D836CAF82850C6E903477461AB
:102650004248B461F4612830346286E801033046B0
:10266000FEF7B0FA18B1FD213EA001F09EF9AE666A
:10267000002205212620B562FEF7D0FC2620FEF7B9
:10268000C1FC06B0BDE8F0873B4A9445F9D19A6D8C
:1026900042F480229A659A6D804602F48022059267
:1026A0003022CDE900268A4602AA694682E8100552
:1026B0003248FEF72DFB02AA0096019682E810052B
:1026C00069462F48FEF724FB2449DFF8B8802839F3
:1026D0004046C8F80010C0E90164C0E90347C8F8E3
:1026E0001440C8F81840C8F81C40C8F82040FEF74D
:1026F00069FA20B140F231111AA001F056F9C5F87B
:102700006C80C8F82850DFF87C80144908F148082C
:1027100040463C39C0E90347C8F81440C8F818409F
:10272000C8F81C4088E84202C8F82040FEF74AFA80
:1027300020B14FF4A1710BA001F037F9C5F8688002
:10274000002205212720C8F82850FEF767FC272023
:1027500095E7000000380140001002405800024098
:10276000C80500202E2E2F5372632F75736172746B
:102770002E6300000044004000480040000800486C
:1027800000040048E806002070B5044690F8720086
:10279000202839D1A9B3A2B394F87000012833D00E
:1027A000012084F870006165A4F858200025656751
:1027B000222084F87200E16E14481346C862E16E6C
:1027C00013480863E16E13484863E06E8563666DE5
:1027D000216832462431E06EFEF754FA84F87050D6
:1027E0002068016841F4807101602068816841F0CF
:1027F000010181602068816841F040018160002012
:1028000070BDFFE70120FBE70220F9E7073600086B
:1028100045360008BD350008704770477047FEE731
:102820004FF47A74204601F085FDFBE71D4808B59A
:10283000816C41F001018164806C002200F0010094
:10284000009005210C20FEF7E9FB0C20FEF7DAFBD7
:10285000002205210D20FEF7E1FB0D20FEF7D2FB43
:10286000002205210E20FEF7D9FB0E20FEF7CAFB41
:10287000002205210F20FEF7D1FB0F20FEF7C2FB3F
:10288000002205211020FEF7C9FB1020FEF7BAFB3D
:10289000002205211120FEF7C1FBBDE808401120F0
:1028A000FEF7B0BB0010024010B59EB0032200211D
:1028B000012002F0CFFB2B4C606020B100231A46B0
:1028C000194602F02FFC03220021012002F0C2FB76
:1028D000A06020B100231A46194602F023FC1422FE
:1028E00021496846FDF70FFD0021684601F038FDDB
:1028F0001D49E0601422143105A8FDF704FD0021F4
:1029000005A801F02DFD18492061142228310AA8DC
:10291000FDF7F9FC00210AA801F022FD12496061CF
:1029200014223C310FA8FDF7EEFC00210FA801F0A6
:1029300017FD0D49A0611422503114A8FDF7E3FCE6
:10294000002114A801F00CFD0749E0611422643154
:1029500019A8FDF7D8FC002119A801F001FD20629B
:102960001EB010BD18000020506A00082DE9F04785
:102970003D4886B0C16C41F00401C164C16C01F0F6
:1029800004010591C16C41F08001C164C16C01F08A
:1029900080010591C16C41F00101C164C16C01F07D
:1029A00001010591C16C41F00201C164C06CDFF806
:1029B000BC8000F002004FF43466059000223146DE
:1029C0004046FEF781FA4FF400474FF0904900224D
:1029D00039464846FEF778FADFF894A00022C02175
:1029E0005046FEF771FA4FF40250002401258DE89D
:1029F000310069464046FEF78BF90096CDE9015457
:102A0000694640460394FEF783F9280200900220AD
:102A1000CDE901040394694648460494FEF778F929
:102A2000E8028DE8310069464846FEF771F90097E3
:102A3000CDE90154694648460394FEF769F94FF41D
:102A400042708DE8310069465046FEF761F9C020BA
:102A50000090CDE90154694650460394FEF758F9B9
:102A600006B0BDE8F08700000010024000080048F2
:102A700000040048134810B5114901604FF48271F9
:102A8000416000214FF4E062C0E9021202220261BB
:102A900001224261520282613822C0E907210722E5
:102AA0004162C0E90A1201634163FFF7F7F80028A9
:102AB00005D0BDE81040512103A000F076BF10BD45
:102AC000003C00403C0300202E2E2F5372632F73D6
:102AD00070692E630000000010B5174888B04FF0F1
:102AE000804101604FF4FA510024C0E90114611ED5
:102AF000C0E903148461FFF765FA18B14B210FA0F8
:102B000000F053FF4FF48050039003A90A48FFF7E9
:102B1000E3FA18B1512109A000F047FF009469467B
:102B200005480294FFF71EFA002803D0582103A09D
:102B300000F03BFF08B010BDA00300202E2E2F5345
:102B400072632F74696D2E63000000003EB510485B
:102B50000E490024C0E9001440F63441C0E90241A6
:102B60008461FFF72FFA18B168210AA000F01DFF59
:102B700020200090694602940548FFF7F3F90028E9
:102B800003D06F2103A000F010FF3EBD00100040F5
:102B9000E00300202E2E2F5372632F74696D2E6375
:102BA000000000003EB511480F490024016041F6C5
:102BB0003F71C0E90114C9108461C160FFF702FAD6
:102BC00018B17F210AA000F0F0FE20200090694695
:102BD00002940648FFF7C6F9002803D0862104A016
:102BE00000F0E3FE3EBD0000001400402004002081
:102BF0002E2E2F5372632F74696D2E630000000018
:102C0000114810B50F4901604FF4E13141600021D6
:102C100081600C22C160C0E904128161C16101625E
:102C2000102141620902012381631A460021FEF747
:102C3000EFFF002805D0BDE81040582103A000F0A8
:102C4000B4BE10BD00380140600400202E2E2F536A
:102C500072632F75736172742E630000114810B592
:102C60000F4901604FF4E1314160002181600C2285
:102C7000C160C0E904128161C16101621021416239
:102C80000902012381631A460021FEF7C1FF0028D3
:102C900005D0BDE810406E2103A000F086BE10BD37
:102CA00000440040D80400202E2E2F5372632F754D
:102CB000736172742E630000114810B50F490160F2
:102CC0004FF4E1314160002181600C22C160C0E914
:102CD00004128161C1610162102141620902012374
:102CE00081631A460021FEF793FF002805D0BDE856
:102CF0001040842103A000F058BE10BD00480040E1
:102D0000500500202E2E2F5372632F75736172743D
:102D10002E630000FEE70000164C174D174E4FF0D3
:102D2000FF3810274146606802F0ACFA2868076255
:102D30002868016841F0100101600F48FFF714FB9B
:102D400008220F490C48FFF71FFD012210213046D1
:102D5000FEF7BAF8012001F0EDFA0022102130460A
:102D6000FEF7B2F800231A461946A06802F0DAF915
:102D7000D8E7000018000020D80400200004004814
:102D80003C020020012001F0D5FAFBE7704709075B
:102D9000090E002806DA00F00F0000F1E02080F8AC
:102DA000141D704700F1E02080F800147047000007
:102DB0002DE9F041444C05468846E068002681072D
:102DC00028680DD0E16801F00301814216D1A8B155
:102DD000E0686968C0F30210401C88420ED120E010
:102DE000012804D0022805D0032807D108E0216873
:102DF000890701E021684905002907DB01265FE01A
:102E00002168890302D421684903F5E7E1686A680B
:102E10006FF00F0321F0730103EB02121143014322
:102E2000E160206820F080602060FEF753F80746DC
:102E300005E000BFFEF74EF8C01B022837D8206817
:102E40000001F7D4B8F1000F18D0B8F1010F1DD070
:102E5000287D4FF07E41400801EB4060A96840EAC0
:102E600001202169194A114008432061206840F07F
:102E700080602060FEF72EF807461AE0A868297BDC
:102E8000000240EAC1602169114AECE7288A114931
:102E9000400801EB4050A96840EA012021690E4A30
:102EA000E1E700BFFEF716F8C01B022801D9032690
:102EB00006E020680001F5D52069A9690843206172
:102EC0003046BDE8F081000000100240FF80FFF9AD
:102ED000FF80FF070000E0FFFF809FFF2DE9F0412A
:102EE0003D4C06468846E0680025810730680DD0D5
:102EF000E16801F00301814216D1A8B1E068716870
:102F0000C0F30210401C88420ED120E0012804D0FA
:102F1000022805D0032807D108E02168890701E0CD
:102F200021684905002907DB012551E02168890353
:102F300002D421684903F5E7E16872686FF00F0376
:102F400021F0730103EB021211430143E160206899
:102F500020F080502060FDF7BDFF074605E000BF70
:102F6000FDF7B8FFC01B022829D820688000F7D4DD
:102F7000B8F1000F15D0307C4FF07E41400801EBD6
:102F80004060B16840EA01206169144A1140084379
:102F90006061206840F080502060FDF79BFF07468D
:102FA0000FE0B068317B000240EAC16061690C4A01
:102FB000ECE700BFFDF78EFFC01B022801D90325F7
:102FC00006E020688000F5D560697169084360619A
:102FD0002846BDE8F081000000100240FF80FFF9A4
:102FE000FF80FF07F8B51C4D06460024A86DC00001
:102FF00002D5FEF779F80DE0A86D40F08050A86585
:10300000A86D00F080500090FEF76EF8A96D21F0D9
:103010008051A965B0F5007F04D0802E07D94FF00C
:1030200003040AE0802E08D9A02E01D804E001D1C3
:10303000022402E0702E00D101240848016821F02A
:10304000070121430160006800F00700A04201D0A1
:103050000120F8BD0020F8BD001002400020024011
:10306000F8B515460E460B460092044600224FF472
:10307000C05100F019F888B933460022802120465B
:10308000009500F05CF848B9334600224FF4C06167
:103090002046009500F008F8002804D0206E40F08B
:1030A000200020660320F8BD2DE9F0471D46174695
:1030B0000E4604464FF4C068DDF820900CE046450B
:1030C00001D107B9007B681C06D0FDF703FFA0EB18
:1030D0000900A84208D23DB1206881683140B94258
:1030E000EDD10020BDE8F0872068416821F0E001C3
:1030F00041606068B0F5827F0BD1A068B0F5004FE9
:1031000002D0B0F5806F04D12068016821F0400141
:103110000160A06AB0F5005F09D12068016821F460
:10312000005101602068016841F4005101600120F4
:1031300084F85D00002084F85C000320D2E72DE9CC
:10314000F0411D4617460E460446DDF8188008E09B
:10315000681C06D0FDF7BEFEA0EB0800A8420BD20B
:1031600055B12068806836EA000030D00020B842AF
:10317000EED10020BDE8F0812068416821F0E00137
:1031800041606068B0F5827F0BD1A068B0F5004F58
:1031900002D0B0F5806F04D12068016821F04001B1
:1031A0000160A06AB0F5005F09D12068016821F4D0
:1031B000005101602068016841F400510160012064
:1031C00084F85D00002084F85C000320D2E7012031
:1031D000CDE700F023F94FF47A7400F025F920468A
:1031E00001F0A8F8F9E701F0B1B810B5BAB00324BE
:1031F0004FF48030CDE923400012269040202790E4
:1032000002200421CDE92E012821CDE930102D9096
:103210003290339023A8FEF79DFA00B1FEE70F200D
:10322000CDE93404002436943794042134A838942A
:10323000FEF744F900B1FEE707200F9400900E94CA
:1032400010946846FDF758FF00B1FEE74FF00052BA
:10325000D1100020FEF75AFA4FF40070FDF710FF6E
:1032600000B1FEE7FEF7D6F94FF47A71B0FBF1F04A
:10327000FEF761FE0420FEF752FE00220F21501ED1
:10328000FDF7CCFE3AB010BD0D48016841F4700165
:1032900001600C48016841F001010160002181607A
:1032A0000268094B1A4002608214C260026822F46C
:1032B0008022026081610249C00380390860704742
:1032C00088ED00E000100240FFFFF6EA0148FEF73B
:1032D0007ABF0000780700200148FEF774BF0000A5
:1032E000E00300200148FEF76EBF0000200400202C
:1032F0002DE9F0470268264B264D274E274F284CD4
:103300004FF0804A984209D0504507D0A84205D0D6
:10331000B04203D0B84201D0A04204D122F0700CD8
:103320004A6842EA0C02DFF87CC0DFF87C80DFF8F4
:103330007C9098420FD050450DD0A8420BD0B0429F
:1033400009D0B84207D0A04205D0604503D040451F
:1033500001D0484503D122F44075CA682A434D691B
:1033600022F080022A4302608A68C2620A6882628E
:10337000984207D0A04205D0604503D0404501D017
:10338000484501D10969016301214161BDE8F08728
:10339000002C01400004004000080040000C0040E8
:1033A0000034014000400140004401400048014019
:1033B00010B5846842EA032224F47F440A4322437E
:1033C000826010BD826822F070020A4342F0070159
:1033D0008160704710B5036A046A24F00104046236
:1033E000846924F0F00444EA021423F00A020A4338
:1033F0008461026210BD10B5036A23F010030362FA
:103400008369046A23F4704343EA023224F0A00380
:1034100043EA01118261016210BD00000148FEF71C
:1034200029BE0000A00300201FB5002002900090DC
:1034300002A8FDF71BFB01460190114842F21073F0
:103440000268891A4FF47A7251430091029A4168D6
:10345000511A994212D94260009AF2EE040AB2FB64
:10346000F1F1C1F57A7100EE101A8160B8EE400AF0
:1034700080EE201A80ED031A019901601FBD000043
:103480003C00002090F82410C90706D001684A6863
:10349000836A22F400321A434A6090F824108907A4
:1034A00006D501684A68C36A22F480321A434A602A
:1034B00090F82410490706D501684A68036B22F486
:1034C00080221A434A6090F82410090706D5016843
:1034D0004A68436B22F400421A434A6090F8241071
:1034E000C90606D501688A68836B22F480521A43A4
:1034F0008A6090F82410890606D501688A68C36B33
:1035000022F400521A438A6090F82410490611D51B
:1035100001684A68036C22F480121A434A60016C05
:10352000B1F5801F06D101684A68436C22F4C002DD
:103530001A434A6090F82410090606D501684A68C3
:10354000806C22F4002202434A607047F8B50026DE
:1035500004464667FDF7BEFC0546206800686FF02C
:103560007E47000708D52B4600224FF40011204665
:10357000009700F0D5F960B92068006840070AD5C7
:103580002B4600224FF480012046009700F0C8F936
:1035900008B10320F8BD202084F8710084F872007F
:1035A00084F870600020F8BD10B5806A0021A0F892
:1035B0005A10A0F85210FEF701FF10BD70B5846AD2
:1035C00094F871000025212808D120688068000641
:1035D00004D5A4F85250204600F049F894F872003F
:1035E000222808D120688068400604D5A4F85A50E3
:1035F000204600F02CF8606F40F010006067204615
:10360000FEF7DCFE70BD10B50146806A09680968E6
:10361000890614D40021A0F85A1001680A6822F41F
:1036200080720A6001688A6822F001028A6001687B
:103630008A6822F040028A60202180F87210FFF729
:10364000EBF810BD10B5806AFFF7E7F810BD016810
:103650000A6822F490720A6001688A6822F0010206
:103660008A60202180F8721000210166704701688D
:103670000A6822F0C0020A60202180F871107047A9
:103680002DE9F0410446016880682369E669184322
:1036900063691025002733431843954A0B68954EFC
:1036A000334003430B6020684168E36821F44051D4
:1036B000194341602168A069914201D0236A1843EF
:1036C0008B6823F4306303438B608B4B21688B48FA
:1036D00099420DD1D0F8880010F0030006D00128DF
:1036E0005AD0022856D0032859D157E0012556E078
:1036F000834B99420BD1D0F8880010F00C0047D0D2
:10370000042849D0082845D00C2848D146E07D4BF4
:1037100099420BD1D0F8880010F0300038D0102832
:103720003AD0202836D0302839D137E0764B99422C
:103730000BD1D0F8880010F0C00029D040282BD041
:10374000802827D0C0282AD128E0704B99420ED17A
:10375000D0F8880010F440701AD0B0F5807F1BD0EC
:10376000B0F5007F16D0B0F5407F18D116E0914239
:1037700015D1D0F8880010F4406009D0B0F5806F02
:103780000AD0B0F5006F05D0B0F5406F07D105E065
:10379000002504E0022502E0042500E008255C4B3A
:1037A00000264FF4004091423DD135B1022D07D0A3
:1037B000042D07D0082D10D107E0FDF731FF03E0FD
:1037C000184602E0FDF750FFA8B3626802EB420121
:1037D000814202D8B0EB023F01D9012775E0DFF842
:1037E00034815DB1022D0CD0042D13D0082DF4D1FD
:1037F00050082905401846F1000105E0FDF710FFCB
:103800000AE050084449F5E70023FCF74BFDA0F51A
:10381000407156E0FDF728FF6268010E0302500870
:1038200018187141F0E7E1694FF6EF7881422FD126
:10383000092DD2D200E048E0DFE805F006092005B6
:10384000230505052600C8E7FDF7EAFE01E0FDF7C0
:10385000F9FE4100D4F8040001EB5001B1FBF0F097
:1038600080B2A0F110014145B7D84FF6F071014088
:10387000C0F3420001432068C16026E02749606828
:10388000EAE7FDF7F1FEE4E74FF480316068E3E733
:10389000092DA2D2DFE805F006091E05220505055F
:1038A00025009AE7FDF7BCFE01E0FDF7CBFE0146DF
:1038B000606801EB500100BFB1FBF0F080B2A0F1F5
:1038C0001001414589D82168C86026663846666679
:1038D000BDE8F081606803EB5001EDE7FDF7C4FE41
:1038E000E5E7616800EB5100B0FBF1F0E6E70000AE
:1038F00000800040F369FFEF0038014000100240F3
:103900000044004000480040004C0040005000408F
:103910000024F400FFFC0F00000024F40048E8013C
:103920002DE9F041984617460E460446069D1DE0D7
:10393000681C1BD02DB1FDF7CDFAA0EB0800A84202
:1039400014D92068016821F4D07101602068816871
:1039500021F001018160202084F8710084F8720058
:10396000002084F870000320BDE8F0812068C06961
:1039700036EA000004D00020B842D9D00020F3E796
:103980000120F9E70148FEF71BBD0000600400209C
:103990000148FEF715BD0000D80400200148FEF7DD
:1039A0000FBD000050050020FEE7FEE70FB41CB578
:1039B0000A46521ECDE9000207A9054B6A46069841
:1039C00000F0CAF8009A002111701CBC5DF814FBCD
:1039D0008742000802E008C8121F08C1002AFAD175
:1039E00070477047002001E001C1121F002AFBD17F
:1039F000704700002DE9FF5FDDE90220010DDDF8D1
:103A000038B0024318D044F61050A1F2FF314143C0
:103A10000D140F98012820D0A5EB0B00401C5FEA85
:103A2000000A4FF00004474EDFF81C91A0465046B4
:103A300016D5CAF1000728E00F98012443A20128F7
:103A400008D0002100980F9BC0E90021C0E9024383
:103A5000BDE8FF9F6FEA0B01F4E7CBF10000DEE762
:103A6000074612E0F80707D022463346404649464B
:103A7000FCF737FD804689462246334610461946F4
:103A8000FCF72FFD04460E467F10002FEAD1DDE93A
:103A90000201BAF1000F42464B4602DAFCF721FD63
:103AA00001E0FCF790FD04460E460022284BFCF78F
:103AB00011FE03D84FF0FF30014607E00022254BEE
:103AC00020463146FCF766FCFCF7ECFD102409E0CB
:103AD000002C0ADB0A220023FCF7E4FB019B3032B6
:103AE0001A55641E50EA0102F2D1641C019AC4F115
:103AF000110314440F9A012A03D0012208430DD167
:103B00000AE0084304D000204FF0110B0F9080E72B
:103B1000A3EB0B056D1E0DE05B4504DD4FF00002CD
:103B200005F1010504E003DA4FF00002A5F10105FB
:103B3000002AECD000980F99C0E90231C0E9004595
:103B400086E70000000024400000F03F3000000045
:103B50000000F0430000E03F2DE9FF4F95B09B4689
:103B60008946064600250FE2252877D100242746FE
:103B7000F84A0121059400E0044316F8013F203B78
:103B800001FA03F01042F7D130782A2811D06FF0F3
:103B90002F033078A0F13002092A16D8059A44F094
:103BA000020402EB820203EB42021044761C0590F1
:103BB000EFE759F8042B0592002A03DA504244F447
:103BC0000054059044F00204761C30782E2816D15B
:103BD00016F8010F44F004042A280DD06FF02F02CC
:103BE0003078A0F13003092B09D807EB870302EBEB
:103BF0004303C718761CF3E759F8047B761C30782A
:103C00006C280FD006DC4C2817D068280DD06A2805
:103C100014D104E0742810D07A280FD10DE044F4B8
:103C200000140AE044F4801401E044F44014727873
:103C3000824202D104F58014761C761C3078662806
:103C40000BD013DC582877D009DC002875D0452824
:103C5000F6D04628F4D047281AD19DE118E0632811
:103C600035D0642879D0652812D195E1702873D0B9
:103C700008DC6728F1D069286FD06E280DD06F2836
:103C800006D1B5E073282CD0752875D0782874D06B
:103C90005A46179990476D1C75E1C4F302500228EB
:103CA00009D003280DD0D9F8001004280DD00D60DC
:103CB00009F1040967E1D9F80010EA17C1E90052D7
:103CC000F6E7D9F800100D80F2E70D70F0E719F86B
:103CD000041B8DF8001000208DF80100EA46012039
:103CE00003E059F804AB4FF0FF3061074FF00001DB
:103CF00002D40DE008F101018846B9420FDA80458F
:103D0000F8DB1AF808100029F4D108E008F10101E5
:103D100088468142FADB1AF808100029F6D1059886
:103D20005B46A0EB080721463846179A00F094FA44
:103D3000284400EB080507E04DE029E10DE01AF802
:103D4000010B5A4617999047B8F10108F7D25B4624
:103D500021463846179A13E142E00A220092C4F342
:103D600002524FF0000A022A08D059F804CB032A65
:103D70004FEAEC710AD00DE029E02AE009F10701D1
:103D800021F00702F2E802C1914609E00FFA8CFC2B
:103D90004FEAEC71042A03D14FFA8CFC4FEAEC7124
:103DA000002907DA0A460021DCF1000C61EB020170
:103DB0002D2202E0220504D52B228DF804200122B9
:103DC00003E0E20701D02022F7E7904659E00A21FC
:103DD00002E010220DE010214FF0000A00910BE0EC
:103DE00010224FF0000A44F004040827009203E078
:103DF00008224FF0000A0092C4F30252022A05D0B2
:103E000059F804CB0021032A08D009E009F1070181
:103E100021F00702F2E802C1914605E01FFA8CFC8E
:103E2000042A01D10CF0FF0C4FF00008220728D51E
:103E3000702806D0009B83F0100353EA0A0305D0D4
:103E40000EE040228DF80420012208E05CEA010225
:103E500006D030228DF804208DF80500022290460D
:103E6000009B83F0080353EA0A030AD15CEA0102CB
:103E700001D1620705D530228DF804204FF00108EA
:103E80007F1E582804D034A003900EA802900DE0A5
:103E900036A0F9E753466046009AFCF703FA8446D9
:103EA0000398825C0298401E029002705CEA010056
:103EB000F0D1029806A9081A00F1200A600702D57D
:103EC00024F4803400E00127574502DDA7EB0A0007
:103ED00000E0002000EB0A01009005984144401AE0
:103EE0000590E00306D45B462146179A059800F03A
:103EF000B3F90544002706E001A85A46C05D1799AA
:103F000090476D1C7F1C4745F6DBE0030CD55B46F4
:103F10002146179A059800F09FF9054404E03020E7
:103F20005A46179990476D1C0099481E0090002929
:103F3000F5DC08E0029802995A460078491C029183
:103F4000179990476D1CBAF10001AAF1010AF1DC42
:103F500065E100000928010030313233343536374D
:103F600038396162636465660000000030313233C5
:103F70003435363738394142434445460000000065
:103F800000F058F90544761C307800287FF4ECAD39
:103F900019B02846BDE8F08F620700D4062709F162
:103FA000070222F0070CFCE80223E14603F0004878
:103FB0005FEA080C02D00FF2702C0DE05FEA045C9F
:103FC00002D50FF2682C07E05FEAC47C02D00FF242
:103FD000602C01E0AFF2700C4FF0FF3823F000438B
:103FE000CDF850C065280CD006DC452809D04628FD
:103FF0001DD047283DD13DE0662818D067287ED1E6
:1040000038E00021112F01DB112000E0781CCDE900
:10401000000106A90EA8FFF7EDFCDDE90F010E9ADD
:1040200003910021009207F1010A04914DE04FF045
:1040300000400097CDE9011006A90EA8FFF7DAFCB1
:10404000DDE90F0203920E9B11990022DDF80CA00E
:104050000093049211B9791C00EB010AB7EB0A0036
:1040600004D4C0F1FF3007F1010A0490AAEB070065
:10407000019044E0012F00DA01270021112F01DD1A
:10408000112000E03846CDE9000106A90EA8FFF78F
:10409000B1FCDDE90F010E9A039100210491009219
:1040A000BA4621070CD40399514500DA8A46BAF181
:1040B000010F05DD009AAAF10101515C302908D0F9
:1040C000B84202DA10F1040F06DA0121CDE901103D
:1040D00015E0AAF10101E9E7002805DC0499014493
:1040E0000491AAEB000102E0411C514500DD8A4623
:1040F0000499401A401C01904FF0004002902007A4
:1041000004D40198504501DBCDF8048000208DF8DF
:104110004F0002980DF14F07B0F1004F25D02B2032
:104120000E9002984FF0020800280CDA40420290EC
:104130002D200E9007E00A210298FCF7F6F83031A6
:10414000029007F8011DB8F10001A8F10108F2DCA6
:1041500002980028EFD1791E0E980870307800F090
:10416000200040F0450007F8020D12A8C01B00F126
:1041700007081498007800B1012000EB0A010198AB
:1041800001EBE07105984144401A401E0590E003A0
:1041900006D45B462146179A059800F05DF8054461
:1041A0001498007818B15A46179990476D1CE0038F
:1041B00024D55B462146179A059800F04DF8054432
:1041C0001CE00498002807DBDDE90301884203DDD9
:1041D0000098405C179901E0179930205A469047A3
:1041E000049805F10105401C04900198401E0190BF
:1041F00004D12E205A46179990476D1CBAF1000140
:10420000AAF1010ADDDC05E017F8010B5A461799FF
:1042100090476D1CB8F10001A8F10108F4DC5B4681
:104220002146179A0598ABE62D0000002B000000F0
:10423000200000002DE9F041044600251E461746E7
:10424000880404D405E039462020B0476D1C641E64
:10425000F9D52846BDE8F0812DE9F0410446002556
:104260001E469046C80301D5302700E02027880469
:1042700004D505E041463846B0476D1C641EF9D5AB
:104280002846BDE8F0814A68002A06D00A68531C17
:104290000B6010704868401E48607047704700000F
:1042A00001480068406A7047A0030020FCF720FE28
:1042B000FEF79BFFFEF75AFBFEF7B8FAFEF7DAFBB4
:1042C000FEF79EFCFEF7CAFCFEF7F6FCFEF73EFC8E
:1042D000FEF768FCFEF700FC0E48FDF7E5FE0E4811
:1042E000FDF7E2FE0D480068016841F02001016021
:1042F0000B480068016841F020010160094800682E
:10430000016841F020010160FEF7CEFA00F019F8D3
:10431000FEE70000E00300202004002060040020ED
:10432000D80400205005002001460020842900D038
:10433000C81C704710B500B9012000F0D7FC002060
:1043400010BD10B500F072FD002010BD10B501F0D9
:10435000CBF8012803D0BDE8104000F065BE10BDC9
:104360003EB504460D46B0F90800FFF7DDFF02A98F
:10437000CDE90001208A2B4682B2D4E9001001F079
:1043800077F8012801D000203EBD02983EBD000014
:104390002DE9F041184C0F46054666692068001D5E
:1043A00000F0E8FB38B9206890F82C100120884014
:1043B000A1698143A161681C07D137B12168BDE8BB
:1043C000F0410E48091D00F010BC20683544B5428C
:1043D0004560216805D2A068BDE8F041091D00F0E4
:1043E000ECBB6068091D00F0E8FB206B854200D241
:1043F0002563BDE8F08100007800002094300020A3
:104400002DE9F041054600F0FDFB2E4C2069401CD3
:10441000206120682C4F10B1E06940B32DE0256089
:104420002069012829D1002606EB860007EB8000D1
:1044300000F0B5FB761C072EF6D323488C3000F035
:10444000AEFB2148A03000F0AAFB1F48B43000F0BA
:10445000A6FB1D48C83000F0A2FB1B48DC3000F072
:104460009EFB19488C3060601430A06005E0206825
:10447000E96AC06A884200D82560E06A401CE062B0
:10448000E96A0120A26988401043A06101EB810024
:1044900007EB8000291D00F0A8FB00F0D3FBE069CA
:1044A00000280CD02068E96AC06A884207D2074910
:1044B0004FF080500860BFF34F8FBFF36F8FBDE8A0
:1044C000F081000078000020B82F002004ED00E00B
:1044D0002DE9F041856B174604460026026C82B137
:1044E000C7B1E068FBF70FFFE168206C091AE160D3
:1044F0002268914202D26168081AE060022F16D049
:1045000017E02068A8B9606801F060F8064600204E
:1045100060600EE0A068FBF7F6FE216CA06808441E
:10452000A0606168884204D32068A06001E005B102
:104530006D1E6D1CA5633046BDE8F08110B50446C4
:10454000006B00F093FB2046BDE8104000F08EBBEE
:1045500010484FF42051420706D0C01D0D4920F0ED
:104560000700411AC1F520510B4A00230144C2E95A
:1045700000030839103A21F0070111604B600B600D
:104580000B1AC0E9001393604FF000405360D060F5
:1045900070470000B807002064000020154E164C3C
:1045A000A6F1C8074FF08058DFF8509012E000BF26
:1045B00000F028FBF068C568281D00F0DBFA2069D0
:1045C000401E2061E068401EE06000F03BFB284692
:1045D000FFF7B4FFE0680028EAD13868012805D960
:1045E000C9F80080BFF34F8FBFF36F8F00F0D5FA8B
:1045F000F0E70000803000207800002004ED00E0AB
:104600002DE9F0479A46DDE9098481466FF00303FE
:10461000206B03EB82021044089D20F00706700710
:1046200007D0502080F31188BFF34F8FBFF36F8FF7
:10463000FEE723180A5C83F834200A5C12B1401CA0
:104640001028F6D3002784F84370072D00D30625E1
:10465000E562C4E91157201D00F0ACFA04F118001E
:1046600000F0A8FA2461C5F107006462A061E76464
:10467000276584F8547052464946304600F00EF9DA
:104680002060B8F1000F01D0C8F80040BDE8F08705
:1046900030B5114900E011460A688242FBD34B68ED
:1046A0005C18844203D14068184448600846436857
:1046B0001C18944209D1084C103C2468A24209D02D
:1046C00052681A4442600A6812680260814200D04F
:1046D000086030BD0460F9E76400002010B50446AE
:1046E00000F090FAA06B28B15FF0000400F0AAFA85
:1046F000204610BD0124F9E706484168096829B140
:104700004168C968C9684968016370474FF0FF3163
:10471000FAE700007800002008484068401C4FF08D
:10472000500080F3118804D0BFF34F8FBFF36F8F19
:10473000FEE7BFF34F8FBFF36F8FFEE76C000020E3
:104740002DE9F041044600F05DFA94F9455004F17A
:10475000240609E0606A48B1304600F0CDFF08B198
:1047600000F0F2FA6D1E6DB2002DF3DC4FF0FF3653
:1047700084F8456000F066FA00F044FA94F9445079
:1047800004F1100709E0206948B1384600F0B4FF91
:1047900008B100F0D9FA6D1E6DB2002DF3DC84F87B
:1047A0004460BDE8F04100F04DBA00002DE9F04151
:1047B0000546002700F070FB314E306808B9FFF75E
:1047C000C7FEF06805424BD1C5B3083568070ED067
:1047D00005F00700C0F108000544680707D0502025
:1047E00080F31188BFF34F8FBFF36F8FFEE72DB3B8
:1047F0007068854234D82248103001460C6801E0C8
:1048000020460C466168A94202D221680029F7D1EE
:1048100031688C4224D007682168016060680837DD
:10482000411B10290FD96019420708D0502080F38E
:104830001188BFF34F8FBFF36F8FFEE710E0416029
:104840006560FFF725FF61687068401A7060B268A4
:10485000904200D2B060F06801430020C4E900013A
:1048600000F084FF780707D0502080F31188BFF351
:104870004F8FBFF36F8FFEE73846BDE8F081000031
:10488000540000200449086818B10868826C521C62
:1048900082640868704700007800002010B5031F8C
:1048A0004FF080741C601B1F21F001011960191F5B
:1048B000044B0B6014390A60091F6FF00202443880
:1048C0000A6010BD1947000870B5402813D230297E
:1048D00011D20B4B012401F007051E79AC40094BA6
:1048E000C90800EB81100EB132B101E0012A03D0FA
:1048F000195CA143195470BD195C2143FAE700000B
:1049000010000020BC00002010B5064A00214FF422
:10491000C07328B1FF245454491C9942F9D310BDE7
:104920000024F8E7BC00002070B50122324DD4020B
:1049300021462846FCF7C8FA0A20FCF7DBF90022DA
:1049400021462846FCF7C0FA0A20FCF7D3F90122D9
:1049500021462846FCF7B8FA0A20FCF7CBF9AE202E
:1049600000F0CCF8A82000F0C9F83F2000F0C6F80D
:10497000D32000F0C3F8002000F0C0F8402000F081
:10498000BDF8A02000F0BAF8C02000F0B7F8DA2097
:1049900000F0B4F8122000F0B1F8802000F0AEF87A
:1049A0008D2000F0ABF8142000F0A8F8FF2000F0F4
:1049B000A5F8212000F0A2F8202000F09FF85F2049
:1049C00000F09CF8202000F099F8002000F096F804
:1049D000002000F093F8AF2000F090F80020FFF7DF
:1049E00093FF00F013F80548002101804180012168
:1049F0004171084670BD000000080048100000200A
:104A0000014A108051807047100000202DE9F047C6
:104A1000154E012240213046FCF756FA4FF400486B
:104A20004FF09049002241464846FCF74DFA0F4DA1
:104A300000244FF47A7700BF05EB84113B464022F7
:104A40000B48FDF7ADF9641CE4B2082CF4D3002246
:104A500040213046FCF738FA41464846BDE8F04769
:104A60000122FCF731BA000000080048BC00002019
:104A70003C0300202DE9FF4F82461F489346CFB2EA
:104A800002883A44402A06D281464088C1F307266C
:104A90003044302803D3002004B0BDE8F08F002458
:104AA00021E000BFBAF1C00F02D3AAF1BF0001E0BC
:104AB000AAF1200010FB06403BF8108000250FE013
:104AC00008FA05F000040AD599F8021099F80000D8
:104AD00021442844C9B2C0B2039AFFF7F5FE6D1C09
:104AE000AF42EDD8641CA642DCD8B9F8001050469D
:104AF0003944A9F80010CFE710000020F1B5104CA0
:104B0000002240212046FCF7DFF94FF400454FF02A
:104B10009046002229463046FCF7D6F94FF47A73C6
:104B2000012269460748FDF73BF901224021204652
:104B3000FCF7CAF9012229463046FCF7C5F9F8BD51
:104B4000000800483C030020F0B51D460E461746FD
:104B500004460AE02B463A463146FFF78BFF2178A0
:104B6000884201D0C8B2F0BD641C20780028F1D181
:104B7000C0B2F0BDD0E9013201699A60D0E90123E9
:104B80005A604A68824201D182684A60002202610A
:104B90000868401E0860086870477047704700F159
:104BA00008014FF0FF32C0E90112C160016100212C
:104BB0000160704700210161704730B50B685A1CD5
:104BC00002D000F1080202E0026904E022465468C3
:104BD00025689D42FAD953684B6099608A6051609C
:104BE00008610168491C016030BD42684A609368F1
:104BF0008B6093685960916008610168491C01608D
:104C000070470000502080F31188BFF34F8FBFF32F
:104C10006F8F0A494868401C486001280CD1084839
:104C2000006810F0FF0F07D0502080F31188BFF309
:104C30004F8FBFF36F8FFEE7704700006C000020BE
:104C400004ED00E00849486828B1401E486001D1E1
:104C500080F311887047502080F31188BFF34F8F85
:104C6000BFF36F8FFEE700006C00002070B50028D6
:104C700027D0144DA0F108046168E868014207D10B
:104C8000502080F31188BFF34F8FBFF36F8FFEE783
:104C900022683AB1502080F31188BFF34F8FBFF3E1
:104CA0006F8FFEE78143616000F0F6F86068696825
:104CB000084468602046FFF7EBFCBDE8704000F058
:104CC00055BD70BD540000204FF0E020002101616F
:104CD000816105494FF47A720968B1FBF2F1491E0E
:104CE00041610721016170475000002010B50200AA
:104CF00014D00F48806B38B1502080F31188BFF377
:104D00004F8FBFF36F8FFEE700F0C6F8002110460B
:104D1000FFF73EFB00F02AFD002807D105494FF0C0
:104D200080500860BFF34F8FBFF36F8F10BD00003E
:104D30007800002004ED00E002498A6A02604969B7
:104D400041607047780000200149012048627047A7
:104D50007800002010B50C4650B109490968183197
:104D6000FFF72BFF2046BDE810400121FFF710BBE5
:104D7000502080F31188BFF34F8FBFF36F8FFEE792
:104D80007800002070B504004BD0A26CA2B1606C1A
:104D9000884200D30146E06A884242D0012A40D1CD
:104DA000204D2A6894420FD1502080F31188BFF320
:104DB0004F8FBFF36F8FFEE7502080F31188BFF352
:104DC0004F8FBFF36F8FFEE7E162A269002A02DB1B
:104DD000C1F10701A161144E00EB8000616906EB8F
:104DE000800081421DD1201DFFF7C4FE012150B972
:104DF000E06A00EB800256F8222022B9AA6901FA83
:104E000000F08243AA61E06AAA6981401143A96166
:104E100000EB800006EB8000211DBDE87040FFF72D
:104E2000E4BE70BD78000020B82F00201CB51648E5
:104E30000024CDE900402346802214A1154800F04B
:104E400017FB012809D0401C1CD1502080F3118889
:104E5000BFF34F8FBFF36F8FFEE7502080F31188B1
:104E6000BFF34F8FBFF36F8F07484FF0FF313438D8
:104E700001630121C1614461FFF710FABDE81C40E4
:104E800000F058B81CBD0000AC00002049444C455F
:104E9000000000009D4500080248816B491C8163A9
:104EA000704700007800002010B5204CA06B10B1B6
:104EB0000120606210BD00206062FFF7F1F92064FC
:104EC000E26B904204D92168821ACB6C1A44CA64FE
:104ED000E063206821680068096B884204D8216873
:104EE00020683431FFF75AFEA0691149B0FA80F00A
:104EF000C0F11F0000EB800051F820206AB101EBE7
:104F0000800000F10802416849684160914201D186
:104F100049684160C868206010BD502080F3118846
:104F2000BFF34F8FBFF36F8FFEE7000078000020C4
:104F3000B82F00201CB537480168374A914207D185
:104F4000502080F31188BFF34F8FBFF36F8FFEE7C0
:104F500000683149491E884207D1502080F31188EA
:104F6000BFF34F8FBFF36F8FFEE72C490878019096
:104F7000FF20087008788DF800009DF800009DF86B
:104F8000002000F0F000904207D0502080F31188FC
:104F9000BFF34F8FBFF36F8FFEE79DF80000204BEC
:104FA00000F0500018700720986005E09DF8002080
:104FB00052008DF80020401E9DF800201206F5D406
:104FC0009860032807D0502080F31188BFF34F8FDB
:104FD000BFF36F8FFEE74FF4407098600198087040
:104FE0000C482030016841F470010160016841F013
:104FF00070410160FFF768FE00205860FBF704F97C
:105000000848016841F040410160FBF7E9F80020E1
:105010001CBD000000ED00E071C20F4100E400E0A3
:105020006C00002034EF00E010B5502080F31188B0
:10503000BFF34F8FBFF36F8F00F064FA18B10449CC
:105040004FF080500860002080F3118810BD0000F0
:1050500004ED00E070B50E46050013D0D6B105FB97
:1050600006F04830FFF7A2FB040009D004F1480124
:1050700020468EB10160C0E90F56012100F00EF804
:10508000204670BD502080F31188BFF34F8FBFF3CF
:105090006F8FFEE70020E4E70060ECE770B50D4697
:1050A000040025D0FFF7AEFDD4E90F20216802FBF4
:1050B000001161600021A1632168A1600A46D4E962
:1050C0000F01401E00FB0121E16021464FF0FF303F
:1050D00001F8440F487004F110008DB1FFF75FFD37
:1050E00004F12400FFF75BFDFFF7ACFD012070BD6C
:1050F000502080F31188BFF34F8FBFF36F8FFEE70F
:1051000021690029F0D000F0F7FA0028ECD004491A
:105110004FF080500860BFF34F8FBFF36F8FE3E70E
:1051200004ED00E02DE9FF4782B01D468A464FF0AE
:105130000008040003D0BAF1000F08D011E050209D
:1051400080F31188BFF34F8FBFF36F8FFEE7206CA2
:1051500038B1502080F31188BFF34F8FBFF36F8FAA
:10516000FEE7022D0AD1E06B012807D0502080F322
:105170001188BFF34F8FBFF36F8FFEE700F0B4F9D4
:105180003F4F4FF000094FF0805648B9049838B1AE
:10519000502080F31188BFF34F8FBFF36F8FFEE76E
:1051A000FFF730FDA06BE16B884207D3022D05D0DD
:1051B0000498D0B1B8F1000F1AD01EE02A4651462B
:1051C0002046FFF785F9616A19B104F1240000F067
:1051D00093FA20B13E60BFF34F8FBFF36F8FFFF79D
:1051E00031FD012006B0BDE8F087FFF72BFD22E07E
:1051F0006846FFF7A1FD4FF00108FFF723FDFFF719
:105200004BFEFFF7FFFC94F94400401C01D184F8E9
:10521000449094F94500401C01D184F84590FFF773
:1052200011FD04A9684600F0E9F830B12046FFF707
:1052300087FA00F09BFA0020D4E7FFF7E3FCA06BAD
:10524000E16B884213D1FFF7FDFC04F110000499D3
:10525000FFF780FD2046FFF773FA00F087FA002879
:105260009ED13E60BFF34F8FBFF36F8F98E7FFF77C
:10527000E9FC2046FFF764FA00F078FA90E70000B6
:1052800004ED00E02DE9F343002683B00400354629
:1052900009D0206C78B1502080F31188BFF34F8F74
:1052A000BFF36F8FFEE7502080F31188BFF34F8F5D
:1052B000BFF36F8FFEE700F017F9DFF83C814FF086
:1052C00000094FF0805748B9049838B1502080F356
:1052D0001188BFF34F8FBFF36F8FFEE7FFF792FC8C
:1052E000A06BC8B1401EA063206810B9FFF7CAFACE
:1052F0006060206950B104F1100000F0FDF928B1A0
:10530000C8F80070BFF34F8FBFF36F8FFFF79AFCA1
:10531000012005B0BDE8F083049808B166B10FE044
:105320003DB1502080F31188BFF34F8FBFF36F8FD3
:10533000FEE7FFF787FC5DE06846FFF7FDFC01260E
:10534000FFF780FCFFF7A8FDFFF75CFC94F9440031
:10535000401C01D184F8449094F94500401C01D1CF
:1053600084F84590FFF76EFC04A9684600F046F803
:105370000028204612D0FFF7E3F900F0F7F92046A5
:10538000FFF7ACF90028A9D09DB3FFF73BFC606A9A
:1053900050B3206B0068C0F1070126E0FFF79EF9CB
:1053A000E0B1206838B9FFF72DFC606800F05AF9C9
:1053B0000546FFF747FC04F124000499FFF7CAFCF7
:1053C0002046FFF7BDF900F0D1F9002886D1C8F8D2
:1053D0000070BFF34F8FBFF36F8F7FE72046FFF75B
:1053E000AFF900F0C3F979E700216068FFF7CAFC64
:1053F0009FE7FFE700208CE704ED00E02DE9F04196
:105400000C46050011D0C4B1FFF7FCFB174B5A69DD
:105410006E682068911B471C17D02F689B6A9F42BB
:1054200019D0964217D8012410E0502080F311883B
:10543000BFF34F8FBFF36F8FFEE7502080F31188CB
:10544000BFF34F8FBFF36F8FFEE70024FFF7FAFB28
:105450002046BDE8F081884205D9401A20602846E0
:10546000FFF76AFCF1E700202060DCE7780000200D
:105470002DE9FF5F8346DDE90E87994616468A4689
:105480009000FFF793F905001AD05820FFF78EF926
:10549000040012D025630021CDE90241CDE9008747
:1054A0004B46324651465846FFF7AAF82046FEF7CB
:1054B000A7FF012004B0BDE8F09F2846FFF7D6FB08
:1054C0004FF0FF30F6E700000648406B002807D198
:1054D000502080F31188BFF34F8FBFF36F8FFEE72B
:1054E00070470000780000200548C16919B1806B41
:1054F00018B100207047012070470220704700005B
:10550000780000202DE9F0412E4C0027A06B40B11F
:10551000206A401C2062606A00B101273846BDE85D
:10552000F0816669761C666113D16068006838B1E5
:10553000502080F31188BFF34F8FBFF36F8FFEE7CA
:105540006068A1686160A060A06A401CA062FFF76B
:10555000D3F8206BDFF87080864209D3606800685A
:1055600080B16068C068C568686886420DD22063F3
:105570002068C06A00EB800158F821000128CAD9D0
:105580000127C8E74FF0FF30F1E7281DFFF7F2FAD7
:10559000A86A18B105F11800FFF7ECFAE86A0121D2
:1055A000A26981401143A16100EB800108EB8100F9
:1055B000291DFFF71AFBE86A2168C96A8842CDD322
:1055C0000127CBE778000020B82F002070B5040039
:1055D0004FF0000140D0214D2868844207D0502070
:1055E00080F31188BFF34F8FBFF36F8FFEE7A06C7E
:1055F00038B1401EA064636CE26A9A422CD040B17C
:105600002AE0502080F31188BFF34F8FBFF36F8FD4
:10561000FEE7201DFFF7AEFA114A012150B9E06AFA
:1056200000EB800352F8233023B9AB6901FA00F094
:105630008343AB61606CE062C0F10700A061E06A87
:10564000AB6981401943A96100EB800002EB800047
:10565000211DFFF7CAFA0121084670BD780000201D
:10566000B82F002070B504004FF0000038D0204D56
:10567000E16A2A68D26A914233D2A069002804DB29
:105680002868C06AC0F10700A0611A4E01EB8101D1
:10569000606906EB810188421ED1201DFFF76AFA7E
:1056A000012150B9E06A00EB800256F8222022B9AD
:1056B000AA6901FA00F08243AA612868C06AE06220
:1056C000AA6981401143A96100EB800006EB8000CC
:1056D000211DFFF78AFA02E02868C06AE062012013
:1056E00070BD616C2A68D26A9142F8D370BD000027
:1056F00078000020B82F00202DE9F041C068C46870
:10570000ACB104F118000746FFF734FA154DA86B49
:105710000126A0B139461448FFF767FAE06A296804
:10572000C96A88421CD901206E62BDE8F081502010
:1057300080F31188BFF34F8FBFF36F8FFEE7201DFB
:10574000FFF718FAE16AAA6906FA01F01043A861A6
:1057500001EB81000449B43901EB8000211DDBE736
:105760000020E2E7780000206C3000202DE9F047AF
:105770002C4D00242746A86B38B1FFF743FAA86BDD
:10578000401EA863A86B40B146E0502080F311880A
:10579000BFF34F8FBFF36F8FFEE72969224E0120C1
:1057A000D1B3A6F1B40980463068E8B1F068C468A6
:1057B00004F11800FFF7DEF9201DFFF7DBF9E06ABE
:1057C000AA6908FA00F11143A96100EB800109EB15
:1057D0008100211DFFF709FAE06A2968C96A884239
:1057E000E2D3C5F82480DFE70CB1FEF785FF2C6A11
:1057F00044B14646FFF786FE00B16E62641EF9D1E1
:1058000000202862686A38B1084901273807086013
:10581000BFF34F8FBFF36F8FFFF714FA3846BDE821
:10582000F0870000780000206C30002004ED00E0DC
:105830000000000000000000000000000000000068
:105840000000000000000000000000000000000058
:1058500000100010001000100010001000000010D8
:1058600000100000000000000000000000280028D8
:1058700000280028000000000000000000000000D8
:10588000000000000000001200120016007F00243B
:10589000002400FE0028004800480000000000002E
:1058A000000000000008003E004900480038000EDB
:1058B00000090049003E0008000800000000000048
:1058C0000060009000900062001C00660009000962
:1058D000000600000000000000000000001C002086
:1058E000002000300049004D00450062003D0000EE
:1058F0000000000000000000001000100010001068
:105900000000000000000000000000000000000097
:10591000000C00080008001000100010001000101B
:105920000010000800080004000000000030001013
:105930000010000800080008000800080008001017
:1059400000100030000000000000000000080049C6
:10595000003E001C006B000800000000000000007A
:105960000000000000000000000000100010001007
:1059700000FE0010001000100000000000000000F9
:105980000000000000000000000000000000000017
:1059900000000018001800100020000000000000A7
:1059A00000000000000000000000003800000000BF
:1059B00000000000000000000000000000000000E7
:1059C00000000000000000000000001800180000A7
:1059D00000000000000000000002000400040008B5
:1059E00000080018001000100020002000400000F7
:1059F00000000000001C002200410041004900415D
:105A000000410022001C0000000000000000000017
:105A10000038000800080008000800080008000816
:105A2000003E00000000000000000000003E0043B7
:105A3000000100010002000C00180020007F00009F
:105A40000000000000000000003E004100010003D3
:105A5000001C000300010043003E000000000000A5
:105A6000000000000006000A001A00120022004296
:105A7000007F0002000200000000000000000000A3
:105A8000007E00400040007C000300010001004354
:105A9000003C00000000000000000000001E00218B
:105AA0000040005E0063004100410023001E000032
:105AB0000000000000000000007F0002000200045F
:105AC0000004000800180010002000000000000082
:105AD00000000000003E004100410041003E004146
