:020000040800F2
:10000000F831002081020008FF2200082B1E0008A2
:10001000ED2200088D030008912C0008000000006C
:10002000000000000000000000000000C101000806
:10003000E1030008000000001D020008D9250008A7
:100040009B0200089B0200089B0200089B0200081C
:100050009B0200089B0200089B0200089B0200080C
:100060009B0200089B0200089B0200089B020008FC
:10007000910300089D030008A9030008B5030008C8
:10008000C1030008CD0300089B0200089B02000882
:100090009B0200089B0200089B0200089B020008CC
:1000A0009B020008C12600089B0200089B02000872
:1000B0009B0200089B0200089B0200089B020008AC
:1000C0009B0200089B0200089B0200089B0200089C
:1000D0009B0200086D2C0008792C0008852C000874
:1000E0009B0200089B0200089B0200089B0200087C
:1000F0009B0200089B0200089B0200089B0200086C
:100100009B0200089B0200089B0200089B0200085B
:100110009B0200089B020008CD260008D926000893
:100120009B0200089B0200089B0200089B0200083B
:100130009B0200089B0200089B0200089B0200082B
:100140009B0200089B0200089B0200089B0200081B
:100150009B0200089B0200089B0200089B0200080B
:100160009B0200089B0200089B0200089B020008FB
:100170009B0200089B0200089B0200080000000090
:100180009B0200089B0200089B0200089B020008DB
:100190009B0200089B0200089B0200089B020008CB
:1001A0009B0200089B0200089B020008DFF80CD0AD
:1001B00000F0DAF800480047B92C0008F8310020B8
:1001C0002C4B19680868B0E8F04F80F30988BFF33A
:1001D0006F8F4FF0000080F311887047000000001F
:1001E00008480068006880F308884FF0000080F33A
:1001F000148862B661B6BFF34F8FBFF36F8F00DF15
:1002000000BF00BF08ED00E0DFF80C00016841F41A
:1002100070010160704700BF88ED00E0EFF30980D6
:10022000BFF36F8F134B1A681EF0100F08BF20ED3D
:10023000108A20E9F04F106009B44FF0500080F3AD
:100240001188BFF34F8FBFF36F8F03F0B9F84FF0F2
:10025000000080F3118809BC19680868B0E8F04F05
:100260001EF0100F08BFB0EC108A80F30988BFF3AE
:100270006F8F704744000020EFF305807047000047
:100280000648804706480047FEE7FEE7FEE7FEE730
:10029000FEE7FEE7FEE7FEE7FEE7FEE77D26000855
:1002A000AD0100082DE9F05F0546002092469B460F
:1002B00088460646814640241BE02846414647467C
:1002C000224600F041F853465A46C01A914110D3D5
:1002D00011461846224600F028F82D1A67EB01084F
:1002E0004F4622460120002100F01FF817EB0009BD
:1002F0004E41201EA4F10104DFDC484631462A4667
:100300004346BDE8F09F40EA01039B0703D009E0A4
:1003100008C9121F08C0042AFAD203E011F8013BF1
:1003200000F8013B521EF9D27047202A04DB203A24
:1003300000FA02F1002070479140C2F1200320FA38
:1003400003F3194390407047202A04DB203A21FA36
:1003500002F00021704721FA02F3D040C2F12002DE
:100360009140084319467047064C074D06E0E06887
:1003700040F0010394E8070098471034AC42F6D3EC
:10038000FFF718FF7438000894380008FEE70000F3
:10039000014800F051B800007C040020014800F042
:1003A0004BB8000034040020014800F045B80000BC
:1003B0005C030020014800F03FB800001403002057
:1003C000014800F039B80000A4030020014800F003
:1003D00033B80000EC030020012002F08EFCFBE7A4
:1003E0007047012002F089FCFBE710B590F825105A
:1003F0000024022903D00421C16301241AE001680A
:100400000A6822F00E020A6001680A6822F00102FE
:100410000A6090F84410036C01F01C02012101FAFB
:1004200002F25A6080F82510002180F82410816BB8
:1004300001B18847204610BDF0B4016C0C6801681A
:100440000D6890F8442002F01C06042202FA06F31C
:10045000234211D06B070FD50B689B0603D40B68A2
:1004600023F004030B6090F8441001F01C018A4053
:10047000016C4A60016B1DE0022303FA06F7274274
:100480004FF0000C4FF0010218D0AF0716D50C68E2
:10049000A40605D40C6824F00A040C6080F825201A
:1004A00090F8441001F01C018B40016C4B6080F807
:1004B00024C0C16A00291AD0F0BC08470823B34001
:1004C000234214D02B0712D50B6823F00E030B60C8
:1004D00090F84410036C01F01C0102FA01F159601C
:1004E000C26380F8252080F824C0416BE2E7F0BCAD
:1004F0007047000070B568B12B4C036814212B4A7B
:10050000A34209D22A4C1C44B4FBF1F18900C0E992
:1005100010210BE0012070BD234C64421C44B4FB4D
:10052000F1F189004164204908390164022180F811
:1005300025101C6847F6F0718C43D0E90215294359
:10054000D0E904563543294385692943C5692943C0
:10055000056A2943214319608168B1F5804F19D09C
:10056000036C0F21934202D152F8A83F02E00E4AD9
:10057000A032136890F8444004F01C04A1408B435F
:10058000136090F84430416803F01C0399401368ED
:10059000194311600021C163012280F8252080F8F1
:1005A0002410084670BD000008040240000002400C
:1005B000F8FFFDBF2DE9F84FDFF888B100234FF0B9
:1005C000010C4FF0030A4FF00F090BF1040EB1E0DC
:1005D0000CFA03F632406FD04C68022C01D0122C7A
:1005E00011D1DC0800EB84073C6A5D07ED0E09FAC7
:1005F00005F824EA0804D1F8108008FA05F848EA5A
:100600000408C7F8208007685D0091F804800AFAA2
:1006100005F408F00308A74308FA05F848EA0708B4
:10062000C0F800804F68012F05D0022F03D0112F92
:1006300001D0122F10D1D0F80880CF6828EA040822
:10064000AF4047EA080787604768B7430E79C6F3AB
:1006500000169E403E434660C668A6438C68AC4088
:100660003443C4604C68E40063D5374C256E45F0D4
:1006700001052566246E23F0030504F001040094AF
:10068000324C2F19BD689C07260F09FA06F4A543C2
:10069000B0F1904F04D02E4CA04203D1012421E0B0
:1006A00000241FE02B4CA04201D102241AE02A4C66
:1006B000A04202D1032415E03BE0284CA04201D126
:1006C00004240FE0264CA04201D105240AE0254C69
:1006D000A04201D1062405E0234CA04201D1072409
:1006E00000E00824B4402C43BC60DBF800405D46C9
:1006F0004E689443F60300D514432C60DEF80040A6
:1007000075464E689443B60300D514432C600D4DD6
:1007100008352C684E689443F60200D514432C60CB
:10072000084D0C352C684E689443B60200D514432E
:100730002C605B1C0A6832FA03F47FF449AFBDE811
:10074000F88F00000004014000100240000001404A
:100750000004004800080048000C00480010004851
:100760000014004800180048001C00480AB18161CC
:1007700070478162704700000148006870470000C0
:100780001800002002480168491C01607047000001
:100790001800002010B50024032000F0B1F800205C
:1007A00000F008F808B1012401E000F03DF820460F
:1007B00010BD000000B5014687B00022192000F0EE
:1007C0007FF8192000F070F81348016E41F40061C1
:1007D0000166006E05A900F400600690684600F00E
:1007E0004BFB00F081FB0D490D4AB0FBF1F10D48C8
:1007F000491E0260416040F2E7320021C0E9032156
:10080000816000F073FF10B1012007B000BD054802
:1008100000F0C4FFF9E700000010024040420F0062
:10082000002C0140C40400201E4808B5016E41F0B0
:1008300001010166016E01F001010091816D41F03D
:1008400080518165806D00F080500090032000F0A1
:1008500057F8002211466FF00B0000F031F800222B
:1008600011466FF00A0000F02BF8002211466FF0DD
:10087000090000F025F800221146501F00F020F872
:1008800000221146101F00F01BF800220F21901EBD
:1008900000F016F800220F21BDE80840501E00F0BD
:1008A0000FB800000010024000F01F02012191402B
:1008B0004009800000F1E020C0F8001170470000FE
:1008C000F0B40E4B1B680C46C3F30223C3F10705BB
:1008D000042D00D90425191D072901D2002300E0A9
:1008E000DB1E012606FA05F1491E214099409E4073
:1008F000761E16403143F0BC01F002BD0CED00E065
:10090000064900F0070208684FF6FF03184040EA66
:100910000220034A10430860704700000CED00E01D
:100920000000FA051649B0F5007F0868C0F34120C1
:1009300009D0022805D0086820F4C06040F4806027
:100940000860002070470128FBD0086820F4C060D0
:1009500040F4007008600B483222006850430A4A95
:10096000B0FBF2F0401C00E0401E4A69520501D580
:100970000028F9D148694005E3D5032070470000FD
:10098000007000401C00002040420F000248006838
:1009900000F4C06070470000007000402DE9F84F7F
:1009A000044600270088EC4D3E46010504F1200B6B
:1009B0001DD5A06E78B1B0F5800F11D0B0F5000F45
:1009C00004D0B0F5400F22D001270FE0E86840F4D2
:1009D0008030E8601BE00021201D01F0A1FC03E055
:1009E0000021584601F032FD070010D03E46208815
:1009F000C00426D5E06EC0B1B0F1807F1AD0B0F14E
:100A0000007F0DD0B0F1407F19D0012718E0D5F854
:100A10008800A16E20F440000843C5F88800E6E78E
:100A2000E86840F48030E86009E00021201D01F012
:100A300077FC03E00021584601F008FD0746F7B1B6
:100A40003E46206880033AD5A86D4FF00008C000EC
:100A500009D4A86D40F08050A865A86D4FF001083A
:100A600000F080500090DFF8F4A2DAF8001041F4B2
:100A70008071CAF80010FFF77FFE814610E0D5F8BC
:100A80008800E16E20F040700843C5F88800D8E780
:100A9000FFF772FEA0EB0900022801D9032705E049
:100AA000DAF80000C005F3D5002F7CD04FEA070626
:100AB000B8F1000F03D0A86D20F08050A865207811
:100AC000C00707D0D5F88800A16B20F003000843C9
:100AD000C5F888002078800707D5D5F88800E16B35
:100AE00020F00C000843C5F888002078400707D59F
:100AF000D5F88800216C20F030000843C5F8880044
:100B00002078000707D5D5F88800616C20F0C00078
:100B10000843C5F888002078C00607D5D5F88800B6
:100B2000A16C20F440700843C5F888002078800646
:100B300007D5D5F88800E16C20F440600843C5F87B
:100B400088002088800507D5D5F88800216E20F41C
:100B500040200843C5F888002088400507D5D5F80F
:100B60008800616E20F440100843C5F888002078A2
:100B7000400607D5D5F88800216D20F44050084381
:100B8000C5F888002078000607D5D5F88800616D83
:100B900020F440400843C5F888002088C00509D5E6
:100BA000D5F8880000E027E0A16D20F4403008432C
:100BB000C5F888002068C00207D5D5F89C00E16D13
:100BC00020F003000843C5F89C0020884FF0006720
:100BD00080044FF0806850D5D5F88800216F20F050
:100BE00040600843C5F88800206FB8423DD1E868EE
:100BF00040F48010E86040E0D5F8900010F44070B8
:100C000015D0D4F88810814211D0D5F89000D5F8CD
:100C1000901020F4407041F48031C5F89010D5F860
:100C2000901021F48031C5F89010C5F89000C007ED
:100C300011D0FFF7A1FD074641F2883907E000BF58
:100C4000FFF79AFDC11B494501D9032630E7D5F8C6
:100C500090008007F4D5D5F89000D4F8881020F4DF
:100C600040700843C5F8900022E7404505D10121B6
:100C7000201D01F055FB00B106462068000317D582
:100C8000D5F88800616F20F040600843C5F88800FF
:100C9000606FB84204D1E86840F48010E86007E073
:100CA000404505D10121201D01F03AFB00B1064667
:100CB0002068400317D5D5F88800A16F20F0406068
:100CC0000843C5F88800A06FB84204D1E86840F432
:100CD0008010E86007E0404505D10121201D01F0AA
:100CE0001FFB00B10646208840041AD5D5F88800BD
:100CF000E16F20F040500843C5F88800E06FB0F184
:100D0000805F03D0B0F1005F05D00AE00221201D12
:100D100001F006FB03E00221584601F097FB00B109
:100D200006462088000408D5D5F88800D4F880103D
:100D300020F080400843C5F888002068C00307D52C
:100D400055F8880FD4F8841020F00040084328603C
:100D50003046BDE8F88F00000010024000700040EF
:100D60002DE9F0470F46050058D03F4E306800F09F
:100D70000700B84209D2306820F0070038433060DD
:100D8000306800F00700B84248D12878374CC007D7
:100D90002CD06868032811D0022812D0216898B19D
:100DA000490500293ADAA16821F003010143A16055
:100DB000FFF7E2FC804641F2883910E021688901A2
:100DC000EFE721688903ECE78907EAE7FFF7D4FC3E
:100DD000A0EB0801494502D90320BDE8F087A068CF
:100DE000696800F00C00B0EB810FEFD12878800724
:100DF00005D5A068A96820F0F0000843A06030681D
:100E000000F00700B8420BD9306820F007003843E3
:100E10003060306800F00700B84201D00120DCE704
:100E20002878400705D5A068E96820F4E060084309
:100E3000A0602878000706D5A068296920F46050D2
:100E400040EAC100A06000F061F8A168084AC1F35F
:100E50000311515C01F01F01C84006490860BDE85C
:100E6000F0470020FFF7A6BC00200240001002401F
:100E7000E43700081C0000200F2202600C4A93682F
:100E800003F003034360936803F0F0038360936807
:100E900003F4E063C36092684FF4E06303EAD202B4
:100EA00002610448006800F0070008607047000015
:100EB0000010024000200240014800687047000016
:100EC0001C0000200548064900688968054AC1F3EE
:100ED0000221515C01F01F01C84070471C00002036
:100EE0000010024024380008054806490068896857
:100EF000054AC1F3C221515C01F01F01C84070478F
:100F00001C000020001002402438000870B525495C
:100F1000002318468A68CC6812F00C0204F003061D
:100F2000214C4FF4610509D00C2A05D0042A26D0A3
:100F3000082A00D1284670BD012E10D10B681B076E
:100F400004D4D1F89430C3F3032302E00B68C3F355
:100F50000313164E56F823307AB10C2AEBD1C86829
:100F600000F00302C868C0F30210401C022A08D037
:100F7000032A09D0B3FBF0F008E0184670BD204604
:100F800070BDB4FBF0F001E0B5FBF0F0CA68C968D1
:100F9000C2F306225043C1F34161491C4900B0FB32
:100FA000F1F070BD001002400024F400F437000896
:100FB00070B5104C86B01646E06C0D4640F001004E
:100FC000E064E06C694600F001000590A015009017
:100FD0000220019003900020029004904FF0904076
:100FE000FFF7E8FAA068354320F0FE402843A060F0
:100FF00006B070BD001002402DE9F84305007CD01A
:10100000F84CA06800F00C06E06800F003072878B0
:10101000C00662D576B10C2E01D1012F0AD0A86985
:101020000028206878D040F001002060FFF7A4FB82
:10103000804659E02068800702D5A8690028DED0E4
:10104000296A2068000703D5206800F0F00004E05A
:10105000D4F89400F02202EA1010814216D9084612
:1010600001F078FA002848D1206840F0080020609C
:101070002068296A20F0F000084320606068E96970
:1010800020F47F4040EA0120606015E0206840F0D5
:10109000080020602068296A20F0F00008432060E2
:1010A0006068E96920F47F4040EA01206060286AB6
:1010B00001F050FA0028D6D1FFF728FFA168CA4AEC
:1010C000C1F30311515C01F01F01C840C74908601A
:1010D0000020FFF76FFB00287ED12EE0FFF74CFBCE
:1010E000A0EB0800022878D820688007F6D5206891
:1010F00040F008002060206801E0BBE00CE0296AB5
:1011000020F0F000084320606068E96920F47F4027
:1011100040EA0120606010E020F001002060FFF74D
:101120002BFB804606E000BFFFF726FBA0EB080084
:101130000228D8D820688007F6D42878C00740D085
:10114000082E18D00C2E01D1032F14D06868B0F5EA
:10115000803F17D0B0F5A02F206817D020F4803042
:101160002060206820F4802020606868E0B1FFF7EC
:1011700003FB804614E02068800322D568680028BD
:1011800078D01EE0206840F48030EDE740F4802005
:101190002060F7E7FFF7F0FAA0EB08006428A2D878
:1011A00020688003F6D50CE0FFF7E6FA804605E0FC
:1011B000FFF7E2FAA0EB0800642894D820688003C7
:1011C000F6D4287880073BD5042E11D00C2E01D1FF
:1011D000022F0DD0E86801E05EE1B8E00028206849
:1011E0001ED040F480702060FFF7C6FA07460CE07E
:1011F000206840050CD5E8680028C1D008E000BF91
:10120000FFF7BAFAC01B022893D820684005F7D52B
:101210006068297C20F0FE4040EA016060600FE0D9
:1012200020F480702060FFF7A7FA074605E000BFB2
:10123000FFF7A2FAC01B0228B1D820684005F7D4F6
:101240002878000729D568690028D4F8940012D0BE
:1012500040F00100C4F89400FFF78EFA074604E05E
:10126000FFF78AFAC01B022871D8D4F894008007CF
:10127000F6D512E017E120F00100C4F89400FFF762
:101280007BFA074605E000BFFFF776FAC01B02288D
:101290005DD8D4F894008007F6D42878400766D546
:1012A000A06D0027C00008D4A06D40F08050A0655C
:1012B000A06D012700F0805000904D480168C905DD
:1012C00012D40168814641F480710160FFF754FA3D
:1012D000804605E0FFF750FAA0EB0800022836D858
:1012E000D9F80000C005F5D5A868012816D0052852
:1012F000D4F8900017D020F00100C4F89000D4F882
:10130000900020F0040000BFC4F89000A86841F2EB
:101310008839C0B1FFF730FA80460FE0D4F890006A
:1013200040F00100F0E740F00400C4F89000F5E759
:10133000FFF722FAA0EB0801494508D8D4F890003D
:101340008007F5D50EE0FFF717FA804606E07CE04F
:10135000FFF712FAA0EB0801494576D8D4F89000BF
:101360008007F5D41FB1A06D20F08050A0652878CB
:10137000800628D5686A0028D4F8980012D040F07A
:101380000100C4F89800FFF7F7F9074605E000BF31
:10139000FFF7F2F9C01B02287DD8D4F89800800727
:1013A000F6D510E020F00100C4F89800FFF7E4F94A
:1013B000074604E0FFF7E0F9C01B02286BD8D4F819
:1013C00098008007F6D4A86AF0B30C2E6BD00228E0
:1013D000206820F0807020600CD0206810F0205F22
:1013E00047D04AE000100240E43700081C0000200B
:1013F00000700040FFF7C0F9064604E0FFF7BCF9B3
:10140000801B022847D820688001F7D4286B55F844
:101410002C1F000110380843298A244A490802EB8E
:101420004151AA6841EA02210843297D4FF07E42DA
:10143000490802EB41610843297B40EAC160E06052
:10144000206840F0807001E02BE024E02060E0683C
:1014500040F08070E060FFF78FF9054605E000BFBF
:10146000FFF78AF9401B022815D820688001F7D5BC
:1014700017E0E06820F00300E060E0680C490840F5
:10148000E060FFF779F9054608E000BFFFF774F95F
:10149000401B022802D90320BDE8F88320688001A0
:1014A000F4D40020F8E70120F6E700000000E0FF98
:1014B000FFFFEEFE2DE9F0411D4616460F460400E3
:1014C00003D094F8710018B108E00120BDE8F08164
:1014D000002084F87000204600F064FB242084F88B
:1014E00071002068016821F001010160204601F0CF
:1014F0003BFA0128EAD0606A10B1204601F087F972
:101500002068816841F4804181602068816821F40D
:10151000004139438160700540EA05412068026856
:10152000064B1A400A4302602068016841F001013D
:1015300001602046BDE8F04101F0CDB9FFFF00FC9D
:101540002DE9F041040005D00025A56294F85D0066
:1015500018B107E00120BDE8F08184F85C50204616
:1015600000F044F8022384F85D302068016821F01F
:1015700040010160E0684FF4E066B04201D900210B
:1015800001E04FF48051B0F5706F02D0B04200D04E
:10159000A562276B012227B9B04201D9236300E07D
:1015A0002263D4E901031843D4E9043633431843D2
:1015B000238B03F400731843E3691843236A184329
:1015C000A36A184323681860636B606AA6691843AE
:1015D0000427E36807EA16463343184308432168A3
:1015E0004860256684F85D200020B4E7F0B5006807
:1015F000104987B088421BD10F48816D41F40041EA
:101600008165806D022400F4004005904FF48060F5
:101610000025032606278DE8F10069460748FEF7F6
:10162000C9FF20208DE8F10069460548FEF7C2FF9A
:1016300007B0F0BD003C0040001002400008004828
:10164000000400484FF0E0210428086903D020F08E
:1016500004000861704740F00400FAE710B5401E2E
:10166000B0F1807F01D3012010BD4FF0E024606114
:101670000F21601700F044FE0020A06107202061C8
:10168000002010BD704770477047000070B590F89B
:101690003C20012A24D0012480F83C40022280F81A
:1016A0003D200268536895680E4EB24202D00E4E3D
:1016B000B24203D123F470064B68334323F0700623
:1016C0000B688968334325F080052943536002681D
:1016D000916080F83D40002180F83C10084670BDC4
:1016E000022070BD002C01400034014010B5040000
:1016F00003D094F83D0010B107E0012010BD002098
:1017000084F83C00204600F00DF8022084F83D00EB
:10171000211D206800F0E6FF012084F83D00002034
:1017200010BD000008B501681948B1F1804F11D013
:10173000184A914217D1816D41F010018165806D89
:10174000002200F01000009005213620FFF7B8F8C5
:10175000362019E0816D41F001018165806D00F056
:101760000100009008BD0C4A9142FBD1816D41F00F
:1017700020018165806D002200F02000009005218D
:101780003720FFF79DF83720BDE80840FFF78CB8F9
:101790000010024000100040001400400168CA68B8
:1017A00042F00102CA600068826807490A40062ABE
:1017B00008D082680A40B2F5803F03D0016841F04A
:1017C00001010160002070470700010070B5044668
:1017D00090F83C00012817D0012584F83C500220E5
:1017E00084F83D0020688268324E324022F47F4205
:1017F00082600868502839D00DDC202855D005DCDF
:1018000098B3102843D150E0022070BD30284CD04E
:1018100040283CD141E0602830D070280CD0B0F591
:10182000805F03D0B0F5005F31D112E0206881689D
:10183000204A7032114016E0CB68D1E901212068BE
:1018400000F0B0FF21688868304040F07700886081
:101850001DE0CB68D1E90121206800F0A3FF2068DA
:10186000816841F48041816011E01EE0CA684968E6
:10187000206800F0A9FF5021206806E0CA68496886
:10188000206800F0B2FF6021206800F095FF84F826
:101890003D50002084F83C0070BDCA68496820684B
:1018A00000F092FF40212068EFE7226801461046D1
:1018B000EBE7000088FFFEFF704770B50446006844
:1018C00001694FF00005C943890715D4C168C943B0
:1018D000890711D4E91E0161012020772068806901
:1018E0008007204602D0FFF7E7FF04E000F0A7F8EA
:1018F000204600F0A5F8257720680169C94349070B
:1019000017D4C168C943490713D46FF004010161BA
:10191000022020772068806910F4407F204602D0A2
:10192000FFF7CAFF04E000F08AF8204600F088F8CC
:10193000257720680169C943090716D4C168C943DE
:10194000090712D46FF00801016104202077206894
:10195000C0698007204602D0FFF7AEFF04E000F028
:101960006EF8204600F06CF8257720680169C943BD
:10197000C90617D4C168C943C90613D46FF0100152
:101980000161082020772068C06910F4407F20465C
:1019900002D0FFF791FF04E000F051F8204600F07C
:1019A0004FF8257720680169C943C90708D1C16884
:1019B000C943C90704D1891E0161204600F042F8DD
:1019C00020680169C943090609D4C168C9430906E9
:1019D00005D46FF0800101612046FFF754FE2068B6
:1019E0000169C943C90509D4C168C943090605D4B9
:1019F0006FF4807101612046FFF744FE20680169A1
:101A0000C943490609D4C168C943490605D46FF0E2
:101A100040010161204600F01FF820680169C943B8
:101A200089060BD4C168C943890607D46FF0200129
:101A300001612046BDE87040FFF726BE70BD7047CB
:101A40007047000000680349884201D1FEF79ABE42
:101A500070470000002C014070477047704700003D
:101A60002DE9F04102680446D0691168936810F0CE
:101A70000F0F4FF000055BD003F0010601F49077E3
:101A8000374369D0C70707D0CF0505D501271762AF
:101A9000626F42F001026267820708D5DA0706D05A
:101AA000276802223A62626F42F0040262674207CC
:101AB00008D5DA0706D0236804221A62626F42F062
:101AC0000202626702070AD501F02002324306D003
:101AD000236808221A62626F42F008026267626F2E
:101AE000002A32D0800605D5880603D5216E09B1BB
:101AF00020468847606F000703D42068806840064E
:101B000025D5204600F01FFF20688168490619D5B9
:101B1000816821F040018160E06E98B120498163C5
:101B2000E06EFEF762FC00280FD0E06E816B06E0ED
:101B3000860611D58E060FD5216E1EE02046BDE823
:101B4000F04108472046FFF789FFBDE8F0812046B5
:101B5000FFF784FF6567F8E7C60209D55B0207D582
:101B60004FF4801010622046BDE8F041FFF775BFCA
:101B7000030605D50B0603D5616E0029DED1E4E727
:101B80004006E2D54806E0D51168204621F0400124
:101B90001160202184F87110656600F045F9D4E7E2
:101BA000332900082DE9F0470546DFF84882D0F8D0
:101BB00000C0914B0320072100240226802786B015
:101BC0004FF090424FF01009C44553D1D3F860C094
:101BD0004CF4804CC3F860C01B6E029403F4804345
:101BE0000593CDE903014FF4B053CDE90036A0468B
:101BF00069461046FEF7DEFCDFF804A27F49504636
:101C0000CAF80010C0E90164C0E90347CAF81440EB
:101C1000CAF81840CAF81C40CAF82040FEF76AFC0F
:101C200018B1AE2177A001F034F8754C7348C5F8AF
:101C30006CA048341438CAF8285084E84102C4E93A
:101C40000387C4F81480C4F81880C4F81C802046A8
:101C5000C4F82080FEF74EFC18B1BF2169A001F046
:101C600018F8AC66002205212520A562FEF728FEA3
:101C7000252054E0DFF89C81C44555D1D3F858C0E5
:101C80004CF4003CC3F858C09B6D029403F400333D
:101C90000593CDE903010E23CDE90036B046694630
:101CA0001046FEF787FCDFF858A154490AF1900A64
:101CB00014315046CAF80010C0E90164C0E9034776
:101CC000CAF81440CAF81840CAF81C40CAF82040A4
:101CD000FEF710FC18B1EC214AA000F0DAFF484EE4
:101CE000C5F86CA0D836CAF82850C6E90347746115
:101CF0004248B461F4612830346286E8010330461A
:101D0000FEF7F8FB18B1FD213EA000F0C2FFAE6661
:101D1000002205212620B562FEF7D2FD2620FEF71F
:101D2000C3FD06B0BDE8F0873B4A9445F9D19A6DF2
:101D300042F480229A659A6D804602F480220592D0
:101D40003022CDE900268A4602AA694682E81005BB
:101D50003248FEF72FFC02AA0096019682E8100591
:101D600069462F48FEF726FC2449DFF8B880283959
:101D70004046C8F80010C0E90164C0E90347C8F84C
:101D80001440C8F81840C8F81C40C8F82040FEF7B6
:101D9000B1FB20B140F231111AA000F07AFFC5F872
:101DA0006C80C8F82850DFF87C80144908F1480896
:101DB00040463C39C0E90347C8F81440C8F8184009
:101DC000C8F81C4088E84202C8F82040FEF792FBA1
:101DD00020B14FF4A1710BA000F05BFFC5F8688043
:101DE000002205212720C8F82850FEF769FD27208A
:101DF00095E7000000380140001002405800024002
:101E0000140300202E2E2F5372632F75736172748A
:101E10002E630000004400400048004000080048D5
:101E200000040048340400207047FEE7012000F061
:101E300064FFFBE71D4808B5816C41F00101816436
:101E4000806C002200F00100009005210C20FEF7BC
:101E500037FD0C20FEF728FD002205210D20FEF79E
:101E60002FFD0D20FEF720FD002205210E20FEF79C
:101E700027FD0E20FEF718FD002205210F20FEF79A
:101E80001FFD0F20FEF710FD002205211020FEF798
:101E900017FD1020FEF708FD002205211120FEF796
:101EA0000FFDBDE808401120FEF7FEBC0010024007
:101EB00010B59EB0142221496846FEF724FA00218D
:101EC000684600F030FF1E4C1C491422206014317B
:101ED00005A8FEF718FA002105A800F024FF17490D
:101EE0006060142228310AA8FEF70DFA00210AA822
:101EF00000F019FF1149A06014223C310FA8FEF731
:101F000002FA00210FA800F00EFF0C49E060142235
:101F1000503114A8FEF7F7F9002114A800F003FFD0
:101F2000064920611422643119A8FEF7ECF900215A
:101F300019A800F0F8FE60611EB010BD6C370008F3
:101F4000000000202DE9F0473D4886B0C16C41F00B
:101F50000401C164C16C01F004010591C16C41F040
:101F60008001C164C16C01F080010591C16C41F038
:101F70000101C164C16C01F001010591C16C41F026
:101F80000201C164C06CDFF8BC8000F002004FF4B5
:101F900034660590002231464046FEF7E7FB4FF4D9
:101FA00000474FF09049002239464846FEF7DEFBD5
:101FB000DFF894A00022C0215046FEF7D7FB4FF473
:101FC0000250002401258DE8310069464046FEF7A5
:101FD000F1FA0096CDE90154694640460394FEF7B4
:101FE000E9FA280200900220CDE901040394694631
:101FF00048460494FEF7DEFAE8028DE831006946AF
:102000004846FEF7D7FA0097CDE90154694648469D
:102010000394FEF7CFFA4FF442708DE83100694621
:102020005046FEF7C7FAC0200090CDE9015469463A
:1020300050460394FEF7BEFA06B0BDE8F0870000F4
:10204000001002400008004800040048134810B582
:10205000114901604FF48271416000214FF4E06248
:10206000C0E902120222026101224261520282612F
:102070003822C0E9072107224162C0E90A12016340
:102080004163FFF75DFA002805D0BDE810405121FB
:1020900003A000F0FEBD10BD003C00408800002001
:1020A0002E2E2F5372632F7370692E630000000071
:1020B00010B5174888B04FF0804101604FF4FA51D5
:1020C0000024C0E90114611EC0E903148461FFF714
:1020D0000DFB18B14B210FA000F0DBFD4FF4805039
:1020E000039003A90A48FFF771FB18B1512109A019
:1020F00000F0CFFD0094694605480294FFF7C6FA48
:10210000002803D0582103A000F0C3FD08B010BD83
:10211000EC0000202E2E2F5372632F74696D2E63F6
:10212000000000003EB510480E490024C0E900142C
:1021300040F63441C0E902418461FFF7D7FA18B193
:1021400068210AA000F0A5FD2020009069460294B5
:102150000548FFF79BFA002803D06F2103A000F089
:1021600098FD3EBD001000402C0100202E2E2F5364
:1021700072632F74696D2E63000000003EB5114834
:102180000F490024016041F63F71C0E90114C910F4
:102190008461C160FFF7AAFA18B17F210AA000F09C
:1021A00078FD20200090694602940648FFF76EFAF9
:1021B000002803D0862104A000F06BFD3EBD000086
:1021C000001400406C0100202E2E2F5372632F74D8
:1021D000696D2E6300000000114810B50F490160C1
:1021E0004FF4E1314160002181600C22C160C0E9FF
:1021F00004128161C161016210214162090201235F
:1022000081631A460021FFF755F9002805D0BDE883
:102210001040582103A000F03CBD10BD0038014023
:10222000AC0100202E2E2F5372632F7573617274D0
:102230002E630000114810B50F4901604FF4E131E1
:102240004160002181600C22C160C0E904128161FB
:10225000C1610162102141620902012381631A46B2
:102260000021FFF727F9002805D0BDE810406E21B6
:1022700003A000F00EBD10BD004400402402002069
:102280002E2E2F5372632F75736172742E630000AC
:10229000114810B50F4901604FF4E1314160002150
:1022A00081600C22C160C0E904128161C1610162D8
:1022B000102141620902012381631A460021FFF7C0
:1022C000F9F8002805D0BDE81040842103A000F0F3
:1022D000E0BC10BD004800409C0200202E2E2F5371
:1022E00072632F75736172742E630000FEE7012024
:1022F00000F003FDFBE7012000F0FFFCFBE7704767
:102300000907090E002806DA00F00F0000F1E020AE
:1023100080F8141D704700F1E02080F80014704729
:102320002DE9F041444C05468846E06800268107C7
:1023300028680DD0E16801F00301814216D1A8B1EF
:10234000E0686968C0F30210401C88420ED120E0AA
:10235000012804D0022805D0032807D108E021680D
:10236000890701E021684905002907DB01265FE0B4
:102370002168890302D421684903F5E7E1686A68A6
:102380006FF00F0321F0730103EB021211430143BD
:10239000E160206820F080602060FEF7EDF90746DC
:1023A00005E000BFFEF7E8F9C01B022837D8206817
:1023B0000001F7D4B8F1000F18D0B8F1010F1DD00B
:1023C000287D4FF07E41400801EB4060A96840EA5B
:1023D00001202169194A114008432061206840F01A
:1023E00080602060FEF7C8F907461AE0A868297BDC
:1023F000000240EAC1602169114AECE7288A1149CC
:10240000400801EB4050A96840EA012021690E4ACA
:10241000E1E700BFFEF7B0F9C01B022801D903268F
:1024200006E020680001F5D52069A969084320610C
:102430003046BDE8F081000000100240FF80FFF947
:10244000FF80FF070000E0FFFF809FFF2DE9F041C4
:102450003D4C06468846E0680025810730680DD06F
:10246000E16801F00301814216D1A8B1E06871680A
:10247000C0F30210401C88420ED120E0012804D095
:10248000022805D0032807D108E02168890701E068
:1024900021684905002907DB012551E021688903EE
:1024A00002D421684903F5E7E16872686FF00F0311
:1024B00021F0730103EB021211430143E160206834
:1024C00020F080502060FEF757F9074605E000BF76
:1024D000FEF752F9C01B022829D820688000F7D4E3
:1024E000B8F1000F15D0307C4FF07E41400801EB71
:1024F0004060B16840EA01206169144A1140084314
:102500006061206840F080502060FEF735F9074692
:102510000FE0B068317B000240EAC16061690C4A9B
:10252000ECE700BFFEF728F9C01B022801D90325FC
:1025300006E020688000F5D5606971690843606134
:102540002846BDE8F081000000100240FF80FFF93E
:10255000FF80FF07F8B51C4D06460024A86DC0009B
:1025600002D5FEF713FA0DE0A86D40F08050A86583
:10257000A86D00F080500090FEF708FAA96D21F0D8
:102580008051A965B0F5007F04D0802E07D94FF0A7
:1025900003040AE0802E08D9A02E01D804E001D15E
:1025A000022402E0702E00D101240848016821F0C5
:1025B000070121430160006800F00700A04201D03C
:1025C0000120F8BD0020F8BD0010024000200240AC
:1025D000012000F092FBFBE700F09BBB10B5BAB006
:1025E00003244FF48030CDE9234000122690402090
:1025F000279002200421CDE92E012821CDE93010B9
:102600002D903290339023A8FEF7F6FC00B1FEE740
:102610000F20CDE93404002436943794042134A8E3
:102620003894FEF79DFB00B1FEE707200F94009061
:102630000E9410946846FEF7B1F900B1FEE74FF032
:102640000052D1100020FEF7B3FC4FF40070FEF7EB
:1026500069F900B1FEE7FEF72FFC4FF47A71B0FB89
:10266000F1F0FEF7FBFF0420FEF7ECFF00220F2144
:10267000501EFEF725F93AB010BD00000D48016864
:1026800041F4700101600C48016841F001010160F2
:10269000002181600268094B1A4002608214C26006
:1026A000026822F48022026081610249C0038039FD
:1026B0000860704788ED00E000100240FFFFF6EA76
:1026C0000148FFF7FAB80000C40400200148FFF7F2
:1026D000F4B800002C0100200148FFF7EEB800001C
:1026E0006C0100202DE9F0470268264B264D274E4D
:1026F000274F284C4FF0804A984209D0504507D0C8
:10270000A84205D0B04203D0B84201D0A04204D1C3
:1027100022F0700C4A6842EA0C02DFF87CC0DFF855
:102720007C80DFF87C9098420FD050450DD0A842B5
:102730000BD0B04209D0B84207D0A04205D06045C6
:1027400003D0404501D0484503D122F44075CA6802
:102750002A434D6922F080022A4302608A68C262DD
:102760000A688262984207D0A04205D0604503D033
:10277000404501D0484501D109690163012141610A
:10278000BDE8F087002C0140000400400008004034
:10279000000C004000340140004001400044014072
:1027A0000048014010B5846842EA032224F47F44C3
:1027B0000A432243826010BD826822F070020A43FD
:1027C00042F007018160704710B5036A046A24F083
:1027D00001040462846924F0F00444EA021423F042
:1027E0000A020A438461026210BD10B5036A23F035
:1027F000100303628369046A23F4704343EA0232DC
:1028000024F0A00343EA01118261016210BD90F837
:102810002410C90706D001684A68836A22F400328E
:102820001A434A6090F82410890706D501684A685F
:10283000C36A22F480321A434A6090F82410490790
:1028400006D501684A68036B22F480221A434A6065
:1028500090F82410090706D501684A68436B22F4F2
:1028600000421A434A6090F82410C90606D5016850
:102870008A68836B22F480521A438A6090F824108D
:10288000890606D501688A68C36B22F400521A4390
:102890008A6090F82410490611D501684A68036CD3
:1028A00022F480121A434A60016CB1F5801F06D1F0
:1028B00001684A68436C22F4C0021A434A6090F8E7
:1028C0002410090606D501684A68806C22F40022AB
:1028D00002434A607047F8B5002604464667FDF794
:1028E0004BFF0546206800686FF07E47000708D55B
:1028F0002B4600224FF400112046009700F084F987
:1029000060B92068006840070AD52B4600224FF4C2
:1029100080012046009700F077F908B10320F8BD48
:10292000202084F8710084F8720084F87060002020
:10293000F8BD10B5806A0021A0F85A10A0F8521016
:10294000FFF78CF810BD01680A6822F490720A60E3
:1029500001688A6822F001028A60202180F87210E2
:1029600000210166704700002DE9F041044601682E
:1029700080682369E669184363691025002733439B
:102980001843954A0B68954E334003430B6020680B
:102990004168E36821F44051194341602168A0690E
:1029A000914201D0236A18438B6823F430630343B8
:1029B0008B608B4B21688B4899420DD1D0F88800F1
:1029C00010F0030006D001285AD0022856D0032860
:1029D00059D157E0012556E0834B99420BD1D0F8ED
:1029E000880010F00C0047D0042849D0082845D0B2
:1029F0000C2848D146E07D4B99420BD1D0F8880095
:102A000010F0300038D010283AD0202836D03028A6
:102A100039D137E0764B99420BD1D0F8880010F0CD
:102A2000C00029D040282BD0802827D0C0282AD108
:102A300028E0704B99420ED1D0F8880010F4407015
:102A40001AD0B0F5807F1BD0B0F5007F16D0B0F55E
:102A5000407F18D116E0914215D1D0F8880010F4CB
:102A6000406009D0B0F5806F0AD0B0F5006F05D096
:102A7000B0F5406F07D105E0002504E0022502E033
:102A8000042500E008255C4B00264FF400409142ED
:102A90003DD135B1022D07D0042D07D0082D10D11E
:102AA00007E0FEF70FFA03E0184602E0FEF72EFA01
:102AB000A8B3626802EB4201814202D8B0EB023F48
:102AC00001D9012775E0DFF834815DB1022D0CD00A
:102AD000042D13D0082DF4D150082905401846F1D3
:102AE000000105E0FEF7EEF90AE050084449F5E779
:102AF0000023FDF7D7FBA0F5407156E0FEF706FA7C
:102B00006268010E0302500818187141F0E7E1698C
:102B10004FF6EF7881422FD1092DD2D200E048E064
:102B2000DFE805F006092005230505052600C8E7AE
:102B3000FEF7C8F901E0FEF7D7F94100D4F8040028
:102B400001EB5001B1FBF0F080B2A0F11001414562
:102B5000B7D84FF6F0710140C0F34200014320683E
:102B6000C16026E027496068EAE7FEF7CFF9E4E7AD
:102B70004FF480316068E3E7092DA2D2DFE805F069
:102B800006091E052205050525009AE7FEF79AF9B4
:102B900001E0FEF7A9F90146606801EB500100BFB2
:102BA000B1FBF0F080B2A0F11001414589D8216855
:102BB000C860266638466666BDE8F081606803EB4B
:102BC0005001EDE7FEF7A2F9E5E7616800EB51007F
:102BD000B0FBF1F0E6E7000000800040F369FFEF92
:102BE000003801400010024000440040004800400E
:102BF000004C0040005000400024F400FFFC0F0097
:102C0000000024F40048E8012DE9F04198461746F9
:102C10000E460446069D1DE0681C1BD02DB1FDF735
:102C2000ABFDA0EB0800A84214D92068016821F48C
:102C3000D07101602068816821F00101816020204D
:102C400084F8710084F87200002084F8700003207A
:102C5000BDE8F0812068C06936EA000004D0002099
:102C6000B842D9D00020F3E70120F9E70148FEF788
:102C7000F7BE0000AC0100200148FEF7F1BE0000E5
:102C8000240200200148FEF7EBBE00009C02002059
:102C9000FEE7FEE702E008C8121F08C1002AFAD1C9
:102CA00070477047002001E001C1121F002AFBD1CC
:102CB0007047704700207047FDF76CFDFFF78EFCF2
:102CC000FFF740F9FFF7B6F8FFF7C0F9FFF784FA0E
:102CD000FFF7B0FAFFF7DCFAFFF724FAFFF74EFA36
:102CE000FFF7E6F9FFF7E4F800F00EF8FEE701461B
:102CF0000020842900D0C81C704710B500B90120FD
:102D000000F0FAFA002010BD10B500F01BFB002007
:102D100010BD10B500F056FC012803D0BDE81040EE
:102D200000F00EBC10BD3EB504460D46B0F90800DB
:102D3000FFF7DDFF02A9CDE90001208A2B4682B210
:102D4000D4E9001000F012FC012801D000203EBDA3
:102D500002983EBD2DE9F041184C0F4605466669C4
:102D60002068001D00F00CFA38B9206890F82C108B
:102D700001208840A1698143A161681C07D137B156
:102D80002168BDE8F0410E48091D00F034BA206802
:102D90003544B5424560216805D2A068BDE8F041E0
:102DA000091D00F010BA6068091D00F00CFA206BD4
:102DB000854200D22563BDE8F08100004400002078
:102DC000E02D00202DE9F041054600F021FA2E4CBF
:102DD0002069401C206120682C4F10B1E06940B38D
:102DE0002DE025602069012829D1002606EB860008
:102DF00007EB800000F0D9F9761C072EF6D32348A4
:102E00008C3000F0D2F92148A03000F0CEF91F48F4
:102E1000B43000F0CAF91D48C83000F0C6F91B48AC
:102E2000DC3000F0C2F919488C3060601430A060CA
:102E300005E02068E96AC06A884200D82560E06A37
:102E4000401CE062E96A0120A26988401043A06149
:102E500001EB810007EB8000291D00F0CCF900F0A8
:102E6000F7F9E06900280CD02068E96AC06A884256
:102E700007D207494FF080500860BFF34F8FBFF370
:102E80006F8FBDE8F081000044000020042D002079
:102E900004ED00E010B50446006B00F0EDF92046AB
:102EA000BDE8104000F0E8B910484FF42051420747
:102EB00006D0C01D0D4920F00700411AC1F5205170
:102EC0000B4A00230144C2E900030839103A21F0FB
:102ED000070111604B600B600B1AC0E9001393608F
:102EE0004FF000405360D0607047000004050020A0
:102EF00030000020154E164CA6F1C8074FF0805840
:102F0000DFF8509012E000BF00F082F9F068C56869
:102F1000281D00F035F92069401E2061E068401E40
:102F2000E06000F095F92846FFF7B4FFE06800285C
:102F3000EAD13868012805D9C9F80080BFF34F8F5E
:102F4000BFF36F8F00F02FF9F0E70000CC2D0020C9
:102F50004400002004ED00E02DE9F0479A46DDE949
:102F6000098481466FF00303206B03EB8202104457
:102F7000089D20F00706700707D0502080F31188C5
:102F8000BFF34F8FBFF36F8FFEE723180A5C83F800
:102F900034200A5C12B1401C1028F6D3002784F8B4
:102FA0004370072D00D30625E562C4E91157201DA3
:102FB00000F006F904F1180000F002F92461C5F1EF
:102FC00007006462A061E764276584F85470524684
:102FD0004946304600F0BEF82060B8F1000F01D03D
:102FE000C8F80040BDE8F08730B5114900E011464F
:102FF0000A688242FBD34B685C18844203D1406864
:1030000018444860084643681C18944209D1084C8B
:10301000103C2468A24209D052681A4442600A68EF
:1030200012680260814200D0086030BD0460F9E798
:103030003000002006484168096829B14168C96824
:10304000C9684968016370474FF0FF31FAE7000033
:103050004400002008484068401C4FF0500080F3B6
:10306000118804D0BFF34F8FBFF36F8FFEE7BFF31C
:103070004F8FBFF36F8FFEE7380000202DE9F0413E
:103080000546002700F094F9314E306808B9FFF783
:103090000BFFF06805424BD1C5B3083568070ED069
:1030A00005F00700C0F108000544680707D050206C
:1030B00080F31188BFF34F8FBFF36F8FFEE72DB3FF
:1030C0007068854234D82248103001460C6801E00F
:1030D00020460C466168A94202D221680029F7D136
:1030E00031688C4224D00768216801606068083725
:1030F000411B10290FD96019420708D0502080F3D6
:103100001188BFF34F8FBFF36F8FFEE710E0416070
:103110006560FFF769FF61687068401A7060B268A7
:10312000904200D2B060F06801430020C4E9000181
:1031300000F0BAFA780707D0502080F31188BFF367
:103140004F8FBFF36F8FFEE73846BDE8F081000078
:103150002000002010B5031F4FF080741C601B1F5F
:1031600021F001011960191F044B0B6014390A602A
:10317000091F6FF0020244380A6010BD5530000884
:10318000D0E9013201699A60D0E901235A604A68A6
:10319000824201D182684A60002202610868401EB2
:1031A0000860086870477047704700F108014FF0E9
:1031B000FF32C0E90112C160016100210160704766
:1031C00000210161704730B50B685A1C02D000F134
:1031D000080202E0026904E02246546825689D4224
:1031E000FAD953684B6099608A6051600861016840
:1031F000491C016030BD42684A6093688B609368E7
:103200005960916008610168491C016070470000C5
:10321000502080F31188BFF34F8FBFF36F8F0A499F
:103220004868401C486001280CD10848006810F02C
:10323000FF0F07D0502080F31188BFF34F8FBFF3EB
:103240006F8FFEE7704700003800002004ED00E0BB
:103250000849486828B1401E486001D180F31188B0
:103260007047502080F31188BFF34F8FBFF36F8FEB
:10327000FEE700003800002070B5002827D0144D6C
:10328000A0F108046168E868014207D1502080F38A
:103290001188BFF34F8FBFF36F8FFEE722683AB1FB
:1032A000502080F31188BFF34F8FBFF36F8FFEE77D
:1032B0008143616000F07CF8606869680844686078
:1032C0002046FFF791FEBDE8704000F0EDB970BDFB
:1032D000200000204FF0E0200021016181610549BC
:1032E0004FF47A720968B1FBF2F1491E416107217E
:1032F000016170471C00002010B5020014D00F4877
:10330000806B38B1502080F31188BFF34F8FBFF32B
:103310006F8FFEE700F04CF800211046FFF71AFD12
:1033200000F0C2F9002807D105494FF0805008602D
:10333000BFF34F8FBFF36F8F10BD0000440000201C
:1033400004ED00E01CB516480024CDE900402346FA
:10335000802214A1154800F009F9012809D0401C69
:103360001CD1502080F31188BFF34F8FBFF36F8FB4
:10337000FEE7502080F31188BFF34F8FBFF36F8FAC
:1033800007484FF0FF31343801630121C1614461C6
:10339000FFF78FFCBDE81C4000F058B81CBD0000D2
:1033A0007800002049444C4500000000F52E00083C
:1033B0000248816B491C8163704700004400002073
:1033C00010B5204CA06B10B10120606210BD002030
:1033D0006062FFF76FFC2064E26B904204D92168C1
:1033E000821ACB6C1A44CA64E063206821680068C2
:1033F000096B884204D8216820683431FFF7D4FE75
:10340000A0691149B0FA80F0C0F11F0000EB800004
:1034100051F820206AB101EB800000F108024168F8
:1034200049684160914201D149684160C8682060A3
:1034300010BD502080F31188BFF34F8FBFF36F8F03
:10344000FEE7000044000020042D00201CB5374892
:103450000168374A914207D1502080F31188BFF3A9
:103460004F8FBFF36F8FFEE700683149491E8842D6
:1034700007D1502080F31188BFF34F8FBFF36F8FB8
:10348000FEE72C4908780190FF20087008788DF835
:1034900000009DF800009DF8002000F0F000904230
:1034A00007D0502080F31188BFF34F8FBFF36F8F89
:1034B000FEE79DF80000204B00F050001870072038
:1034C000986005E09DF8002052008DF80020401E15
:1034D0009DF800201206F5D49860032807D05020EC
:1034E00080F31188BFF34F8FBFF36F8FFEE74FF468
:1034F00040709860019808700C482030016841F4D1
:1035000070010160016841F070410160FFF7E2FE67
:1035100000205860FCF778FE0848016841F04041FF
:103520000160FCF75DFE00201CBD000000ED00E026
:1035300071C20F4100E400E03800002034EF00E0E9
:1035400010B5502080F31188BFF34F8FBFF36F8FFA
:1035500000F046F818B104494FF080500860002090
:1035600080F3118810BD000004ED00E02DE9FF5F3D
:103570008346DDE90E87994616468A469000FFF796
:103580007DFD05001AD05820FFF778FD040012D009
:1035900025630021CDE90241CDE900874B46324643
:1035A00051465846FFF7D8FC2046FFF70BFC012098
:1035B00004B0BDE8F09F2846FFF75EFE4FF0FF30F5
:1035C000F6E700000548C16919B1806B18B1002009
:1035D000704701207047022070470000440000201F
:1035E0002DE9F0412E4C0027A06B40B1206A401C11
:1035F0002062606A00B101273846BDE8F081666943
:10360000761C666113D16068006838B1502080F381
:103610001188BFF34F8FBFF36F8FFEE76068A1681B
:103620006160A060A06A401CA062FFF703FD206BF0
:10363000DFF87080864209D36068006880B16068F6
:10364000C068C568686886420DD220632068C06A79
:1036500000EB800158F821000128CAD90127C8E7EA
:103660004FF0FF30F1E7281DFFF78AFDA86A18B177
:1036700005F11800FFF784FDE86A0121A269814085
:103680001143A16100EB800108EB8100291DFFF7C8
:10369000B2FDE86A2168C96A8842CDD30127CBE729
:1036A00044000020042D00202DE9F0472C4D00247B
:1036B0002746A86B38B1FFF7ABFDA86B401EA86387
:1036C000A86B40B146E0502080F31188BFF34F8FC4
:1036D000BFF36F8FFEE72969224E0120D1B3A6F117
:1036E000B40980463068E8B1F068C46804F1180095
:1036F000FFF746FD201DFFF743FDE06AAA6908FABF
:1037000000F11143A96100EB800109EB8100211D4B
:10371000FFF771FDE06A2968C96A8842E2D3C5F8FB
:103720002480DFE70CB1FFF785FC2C6A44B14646E4
:10373000FFF756FF00B16E62641EF9D100202862C7
:10374000686A38B10849012738070860BFF34F8F0E
:10375000BFF36F8FFFF77CFD3846BDE8F0870000B0
:1037600044000020B82D002004ED00E06838000877
:10377000D1250008FDFF00000000000080000000CF
:103780005C3800082D1E000800000000000000004A
:10379000800000002C380008E3030008000000004F
:1037A000000000008000000038380008EF22000808
:1037B0000000000000000000800000004438000805
:1037C000F722000800000000000000008000000058
:1037D00050380008D9030008000000000000000075
:1037E000800000000000000000000000010203044F
:1037F00006070809A0860100400D0300801A060094
:1038000000350C0040420F0080841E0000093D007E
:1038100000127A000024F40000366E010048E8012E
:10382000006CDC0200000000010203046D795461A9
:10383000736B3131000000006D795461736B31336B
:10384000000000006D795461736B3134000000009A
:103850006D795461736B3137000000006D795461EC
:10386000736B30390000000064656661756C7454D8
:1038700061736B009438000800000020880000008D
:10388000942C00081C3900088800002070310000CA
:10389000A42C000800000000000000000000000050
:1038A0000000000000000000000000000000000018
:1038B00000093D00000000000000000000000000C2
:1038C00000000000000000000000000000000000F8
:1038D000AAAAAAAA00000000000000000000000040
:1038E00000000000000000000000000000000000D8
:1038F00000000000000000000000000000000000C8
:1039000000000000000000000000000000000000B7
:0C391000000000000000000000000000AB
:04000005080001AD41
:00000001FF
